:100000000C9464000C948C000C948C000C948C0068
:100010000C948C000C948C000C948C000C9468094B
:100020000C948C000C948C000C948C000C94660A3C
:100030000C948C000C948C000C948C000C948C0010
:100040000C941C0A0C948C000C94EA090C94C409BE
:100050000C948C000C948C000C948C000C948C00F0
:100060000C94220B0C948C0000000000240027004C
:100070002A000000000023002600290000000008DC
:10008000000201000003040700000000000000005F
:10009000010204081020408001020408102001021F
:1000A0000408102000000000250028002B00040494
:1000B0000404040404040202020202020303030310
:1000C000030302003D0CD31011241FBECFEFD8E074
:1000D000DEBFCDBF11E0A0E0B1E0EAEAFAE202C083
:1000E00005900D92A832B107D9F723E0A8E2B1E05C
:1000F00001C01D92A630B207E1F710E0C3E6D0E0E0
:1001000004C02197FE010E945013C236D107C9F7DF
:100110000E94B50C0C9448150C94000080E00895E2
:10012000AF92BF92CF92DF92EF92FF920F931F9305
:10013000CF93DF936C017B018B01040F151FEB0143
:100140005E01AE18BF08C017D10759F06991D601FA
:10015000ED91FC910190F081E02DC6010995892B6C
:1001600079F7C501DF91CF911F910F91FF90EF902B
:10017000DF90CF90BF90AF90089542E050E06BE1E8
:1001800071E082E292E00C949000FC01538D448D6A
:10019000252F30E0842F90E0821B930B541710F032
:1001A000CF96089501970895FC01918D828D98173F
:1001B00061F0A28DAE0FBF2FB11D5D968C91928D17
:1001C0009F5F9F73928F90E008958FEF9FEF089548
:1001D000FC01918D828D981731F0828DE80FF11D11
:1001E000858D90E008958FEF9FEF0895FC01918D2C
:1001F000228D892F90E0805C9F4F821B91098F7325
:100200009927089582E292E00E94F60021E0892B6E
:1002100009F420E0822F089580E090E0892B29F0F6
:100220000E94020181110C9400000895FC01A48D2C
:10023000A80FB92FB11DA35ABF4F2C91848D90E008
:1002400001968F739927848FA689B7892C93A089EB
:10025000B1898C91837080648C93938D848D981375
:1002600006C00288F389E02D80818F7D8083089508
:10027000EF92FF920F931F93CF93DF93EC0181E0F6
:10028000888F9B8D8C8D98131AC0E889F98980819D
:1002900085FF15C09FB7F894EE89FF896083E889D0
:1002A000F98980818370806480839FBF81E090E0C2
:1002B000DF91CF911F910F91FF90EF900895F62E4F
:1002C0000B8D10E00F5F1F4F0F731127E02E8C8DE9
:1002D0008E110CC00FB607FCFACFE889F98980812E
:1002E00085FFF5CFCE010E941601F1CFEB8DEC0F0B
:1002F000FD2FF11DE35AFF4FF0829FB7F8940B8F4B
:10030000EA89FB8980818062CFCFCF93DF93EC01B4
:10031000888D8823B9F0AA89BB89E889F9898C91ED
:1003200085FD03C0808186FD0DC00FB607FCF7CFA9
:100330008C9185FFF2CF808185FFEDCFCE010E94A9
:100340001601E9CFDF91CF910895833081F028F431
:10035000813099F08230A9F008958730A9F0883073
:10036000C9F08430B1F4809180008F7D03C080910A
:1003700080008F7780938000089584B58F7784BD47
:10038000089584B58F7DFBCF8091B0008F778093E7
:10039000B00008958091B0008F7DF9CFCF93DF93A7
:1003A000282F30E0F901E458FF4F8491F901E0571C
:1003B000FF4FD491F901E255FF4FC491CC23A1F036
:1003C00081110E94A501EC2FF0E0EE0FFF1FEE5807
:1003D000FF4FA591B491EC91ED2381E090E009F4F9
:1003E00080E0DF91CF91089580E090E0FACF1F93F5
:1003F000CF93DF93282F30E0F901E458FF4F849129
:10040000F901E057FF4FD491F901E255FF4FC49134
:10041000CC23A9F0162F81110E94A501EC2FF0E04A
:10042000EE0FFF1FEC55FF4FA591B4918FB7F894D5
:10043000EC91111108C0D095DE23DC938FBFDF91C2
:10044000CF911F910895DE2BF8CF9091020189136F
:100450000BC0E2ECF0E0E4919FEF90930201E130F9
:1004600049F028F0E23061F060E00C94F70110925E
:100470006E00FACF90916F009D7F90936F00F4CF44
:10048000909170009D7F9093700091E09093B000E8
:100490009091B100987F94609093B1001092B30056
:1004A000E3CFCF93DF9390E0FC01E057FF4F24911F
:1004B00082559F4FFC0184918823D1F090E0880FF2
:1004C000991FFC01E859FF4FA591B491FC01EC552F
:1004D000FF4FC591D49161110EC09FB7F8948C91D4
:1004E000E22FE0958E238C932881E223E8839FBF3F
:1004F000DF91CF9108958FB7F894EC91E22BEC93B4
:100500008FBFF6CF4F925F926F927F928F929F92A2
:10051000AF92BF92CF92DF92EF92FF920F931F9311
:10052000CF93DF9300D000D01F92CDB7DEB78C0100
:100530002A013B01809102018A30C9F08F3F09F402
:100540007FC00F900F900F900F900F90DF91CF9181
:100550001F910F91FF90EF90DF90CF90BF90AF90E1
:100560009F908F907F906F905F904F900895E2ECF6
:10057000F0E084918D8387FDE4CF61E08AE00E9402
:1005800051028D81882321F09D81923009F05CC158
:100590004801B12CA12C60E072E18AE790E0A5014E
:1005A00098010E94671129833A834B835C83690118
:1005B0007A0181E0C81AD108E108F1089FEFC91655
:1005C000D104E104F10409F00CF413C160E472E415
:1005D0008FE090E0A50198010E94671169017A01FE
:1005E00081E0C81AD108E108F1089D81923009F034
:1005F00098C08FEFC816D104E104F10409F00CF49F
:10060000DDC160E970ED83E090E0A50198010E94F2
:10061000671169017A0191E0C91AD108E108F1086E
:100620008FEFC816D104E104F10411F00CF0A3C15E
:1006300083E09091B100987F892B8093B100E1C055
:100640008AE080930201E2ECF0E094919D839F3F69
:1006500009F477CF913029F158F0923009F43FC076
:100660008D8187FD6ECF61E08AE00E9451028CCFC0
:1006700014BC15BC84B5826084BD85B5816085BD20
:10068000E8EBF0E0E491F0E0EE0FFF1FEC55FF4FD8
:1006900085919491EAE9F0E0E491E09315021D82DE
:1006A0006CCF109280001092810080918100886050
:1006B0008093810080918100816080938100E8EBCC
:1006C000F0E0E491F0E0EE0FFF1FEC55FF4F859155
:1006D0009491EAE9F0E0E491E09314024ECF109295
:1006E000B0001092B1008091B00082608093B000A1
:1006F0008091B10081608093B100E8EBF0E0E4917B
:10070000F0E0EE0FFF1FEC55FF4F85919491909311
:10071000130280931202EAE9F0E0E491E0931102FF
:100720002CCF9FEFC916D104E104F10409F00CF4B9
:1007300089C068E478EE81E090E0A50198010E940C
:10074000671169017A0181E0C81AD108E108F1084E
:100750009D81992309F428C19FEFC916D104E104B2
:10076000F10409F00CF41EC162E17AE780E090E048
:10077000A50194010E94671169017A0181E0C81AFC
:10078000D108E108F1089D81992309F4EBC08FEFAE
:10079000C816D104E104F10411F008F0BFC086E0EE
:1007A00048CF64E274EF80E090E0A50194010E94DC
:1007B000671169017A0181E0C81AD108E108F108DE
:1007C00085E09FEFC916D104E104F10409F00CF4AF
:1007D00030CF62E17AE780E090E0A50194010E94C9
:1007E000671169017A0191E0C91AD108E108F1089D
:1007F000CECF81E09D8191111CCF95B5987F892B3B
:1008000085BD2FEF3FEFA90141145104610471042C
:1008100009F043C09D81913009F45EC0923009F423
:100820006DC091118ECEC7BC20931E0230931F0263
:10083000409320025093210280916E008260809349
:100840006E007FCE82E0D6CFB12CA12C60E072E1A9
:100850008AE790E0A50198010E94671169017A0179
:1008600081E0C81AD108E108F108C114D10491E06F
:10087000E906F10404F591E08D81813011F6809153
:100880008100887F892B809381002FEF3FEFA901A2
:100890004114510461047104F9F0D801AA0FBB1F7F
:1008A000A30192010E94861128EE33E040E050E05F
:1008B0000E94C811AFCF68E478EE81E090E0A50116
:1008C00098010E94671169017A0181E0C81AD10874
:1008D000E108F10893E0D0CFD0928900C09288005F
:1008E00020931A0230931B0240931C0250931D0266
:1008F00080916F00826080936F0023CEC092B3001E
:100900002093160230931702409318025093190255
:100910008091700082608093700013CEC980DA806D
:10092000EB80FC809AE0F594E794D794C7949A956D
:10093000D1F791E0C91AD108E108F10887E079CE32
:10094000C980DA80EB80FC808AE0F594E794D79444
:10095000C7948A95D1F791E0C91AD108E108F10846
:1009600085E04BCF8FEFC816D104E104F10409F004
:1009700038F784E042CF68E478EE81E090E0A501AA
:1009800098010E94671169017A0191E0C91AD108A2
:10099000E108F1088FEFC816D104E104F10411F069
:1009A0000CF0FFCE84E045CE8FEFC816D104E104F1
:1009B000F10411F00CF0D8CE83E01FCF82E039CEE5
:1009C0003FB7F8948091A9019091AA01A091AB0141
:1009D000B091AC0126B5A89B05C02F3F19F0019638
:1009E000A11DB11D3FBFBA2FA92F982F8827BC0189
:1009F000CD01620F711D811D911D42E0660F771FB1
:100A0000881F991F4A95D1F70895EF92FF920F938F
:100A10001F93CF93DF93B82F2091B1013091B20192
:100A20004091B3015091B4016091B5017091B6014C
:100A30008091B7019091B8010B2F0E94291321706A
:100A400030E040E050E060E070E080E090E0A0E066
:100A50000E94441399F5E090B101F090B201109119
:100A6000B301D091B401C091B501A091B601F0914C
:100A7000B701E091B80121E00E940E132E293F2911
:100A8000412B5D2B6C2B7A2B8F2B9E2B2093B1014E
:100A90003093B2014093B3015093B4016093B50118
:100AA0007093B6018093B7019093B80181E0DF9114
:100AB000CF911F910F91FF90EF90089580E0F7CFB5
:100AC000EF92FF920F931F93CF93DF93B82F209154
:100AD000B1013091B2014091B3015091B4016091E4
:100AE000B5017091B6018091B7019091B8010B2FBB
:100AF0000E942913217030E040E050E060E070E097
:100B000080E090E0A0E00E944413D1F1E090B101B8
:100B1000F090B2011091B301D091B401C091B50130
:100B2000A091B601F091B701E091B8012EEF3FEF2F
:100B30004FEF5FEF6FEF7FEF8FEF9FEF0E940E138E
:100B40002E213F2141235D236C237A238F239E2373
:100B50002093B1013093B2014093B3015093B4019B
:100B60006093B5017093B6018093B7019093B8017B
:100B700081E0DF91CF911F910F91FF90EF90089549
:100B800080E0F7CFDF92EF92FF920F931F93CF9306
:100B9000DF93F82F209197013091980140919901AE
:100BA00050919A0160919B0170919C0180919D01EF
:100BB00090919E01D0909F01E090A001F090A10142
:100BC0001091A201D091A301C091A401B091A501FF
:100BD000A091A6010F2F0E942913E22FEE0FE270C1
:100BE0002D2D3E2D4F2D512F6D2F7C2F8B2F9A2F7A
:100BF0000E942913822F81708E2BDF91CF911F913C
:100C00000F91FF90EF90DF9008956F927F928F92F7
:100C10009F92AF92BF92CF92DF92EF92FF920F938B
:100C20001F93CF93DF93E82ED62E0E94C2058D1519
:100C300009F49CC06D2D8E2D0E9451022EEF3FEFC6
:100C40004FEF5FEF6FEF7FEF8FEF9FEF0E2D0E9463
:100C50000E13F22E132FD42FC52FB62FA72FF82F38
:100C6000E92FDD2009F491C060909F017090A001F0
:100C70008090A1019090A201A090A301B090A40146
:100C8000C090A501D090A60121E030E040E050E006
:100C900060E070E080E090E00E940E132629372982
:100CA000482959296A297B298C299D2920939F014C
:100CB0003093A0014093A1015093A2016093A3013E
:100CC0007093A4018093A5019093A6017091970160
:100CD000609198015091990140919A0130919B0146
:100CE00020919C0190919D0180919E017F21612323
:100CF0005D234C233B232A239F238E23709397014C
:100D0000609398015093990140939A0130939B010D
:100D100020939C0190939D0180939E017091B1015D
:100D20006091B2015091B3014091B4013091B5018D
:100D30002091B6019091B7018091B801F722162356
:100D4000D523C423B323A223F923E823F092B101CE
:100D50001093B201D093B301C093B401B093B50125
:100D6000A093B601F093B701E093B801DF91CF9162
:100D70001F910F91FF90EF90DF90CF90BF90AF90B9
:100D80009F908F907F906F90089570919F016091D8
:100D9000A0015091A1014091A2013091A3012091A5
:100DA000A4019091A5018091A6017F2161235D237B
:100DB0004C233B232A239F238E2370939F01609310
:100DC000A0015093A1014093A2013093A30120936D
:100DD000A4019093A5018093A60178CFDF92EF92B2
:100DE000FF920F931F93CF93DF93C82FD62F61E00D
:100DF0000E940506D090B101E090B201F090B301DD
:100E00001091B401B091B501A091B601F091B70174
:100E1000E091B801DD2371F121E030E040E050E0E5
:100E200060E070E080E090E00C2F0E940E132D290E
:100E30003E294F29512B6B2B7A2B8F2B9E2B2093E6
:100E4000B1013093B2014093B3015093B401609368
:100E5000B5017093B6018093B7019093B8016D2FDF
:100E60008C2FDF91CF911F910F91FF90EF90DF902A
:100E70000C94F7012EEF3FEF4FEF5FEF6FEF7FEF37
:100E80008FEF9FEF0C2F0E940E132D213E214F213B
:100E900051236B237A238F239E23D1CFCF93C82F47
:100EA0008E3008F4C25F60E08C2F0E940506CE50A1
:100EB000C770C064C0937C0080917A008064809386
:100EC0007A0080917A0086FDFCCF80917800909125
:100ED0007900CF9108950E944E0721E040910001D2
:100EE000509101014817590708F020E0822F08951A
:100EF0000F93CF93DF93C82F0E946B07E82F8111C8
:100F000059C02091B1013091B2014091B30150918B
:100F1000B4016091B5017091B6018091B7019091D3
:100F2000B8010C2F0E942913217030E040E050E0FE
:100F300060E070E080E090E0A0E00E944413A9F13E
:100F40005091B1014091B2013091B3012091B401AF
:100F50008091B5018091B6018091B7018091B8016F
:100F600081E090E0A0E0B0E004C0880F991FAA1FC4
:100F7000BB1FCA95D2F780959095A095B095582340
:100F800049233A238B2F82235093B1014093B2011E
:100F90003093B3018093B4011092B5011092B60161
:100FA0001092B7011092B801E1E08E2FDF91CF913E
:100FB0000F910895E0E0F9CF0F931F93CF93DF9344
:100FC000C82F0E946B07882309F450C02091B101FB
:100FD0003091B2014091B3015091B4016091B501DB
:100FE0007091B6018091B7019091B8010C2F0E94C9
:100FF0002913217030E040E050E060E070E080E0D4
:1010000090E0A0E00E944413B1F55091B1014091ED
:10101000B2013091B3012091B4010091B50110915A
:10102000B6017091B7016091B80181E090E0A0E055
:10103000B0E004C0880F991FAA1FBB1FCA95D2F742
:10104000582B492B3A2B8B2F822B5093B101409375
:10105000B2013093B3018093B4010093B5011093B2
:10106000B6017093B7016093B80181E0DF91CF9131
:101070001F910F91089580E0F9CFCF93DF93C82F90
:101080000E94C205D0E0823029F060E08C2F0E94DF
:101090000506D1E08C2F0E94CE0121E0D817190659
:1010A00009F020E0822FDF91CF91089585ED8093A4
:1010B000BC008091BC0084FDFCCF109271010895AA
:1010C00020914D01260F3327331F21323105ECF4D7
:1010D00020917101FC0190E080E0243069F082E011
:1010E0000895A0914D012191AC01435D5E4FA40F85
:1010F000B52FB11D2C930196861798F380914D0161
:10110000680F60934D0180E0089581E0089508958F
:101110008FEF9FEF08958FEF9FEF089580912C013F
:1011200090E09195819591090895CF93DF93CB013C
:10113000EA01642F0E946008CE01DF91CF910895EB
:10114000CF93DF931F92CDB7DEB7698361E0CE0105
:1011500001960E94600881E090E00F90DF91CF91AE
:10116000089590E080E00895682F82E292E00C9468
:101170003801CF93C82F8FEF0E94B40885E50E94F5
:10118000B40880E80E94B40881E00E94B40881E0BD
:101190000E94B40881E00E94B4088C2F0E94B40819
:1011A000CF910C94BD00CF92DF92EF92FF92CF933C
:1011B000DF936B017C0183E00E94B408C701B60194
:1011C0000E94D812862FC72F6093B9017093BA017D
:1011D0000E94B4088C2F0E94B408C9EBD1E08A8128
:1011E0000E94B4088B81DF91CF91FF90EF90DF9048
:1011F000CF900C94B4080F931F93CF93DF938B0180
:10120000D82FC92F82E00E94B408C801AD2FBC2F8F
:101210008093280190932901A0932A01B0932B0178
:101220000E94B408812F0E94B4088D2F0E94B40838
:101230008C2FDF91CF911F910F910C94B4088FEFF9
:101240000E94B40885E50E94B4080C94BD0080E0BB
:101250000895EF92FF920F931F93CF93DF93EC01CA
:101260007B018A0188819981009729F02A813B813D
:101270002417350788F4B8016F5F7F4F0E947B14F5
:10128000009791F0998388831B830A832C813D8189
:10129000232B11F4FC0110821D830C83B70188817C
:1012A00099810E9441150CC088819981009711F0A5
:1012B0000E94F213198218821D821C821B821A82DC
:1012C000CE01DF91CF911F910F91FF90EF90089584
:1012D0001F920F920FB60F9211242F933F934F93AB
:1012E0005F936F937F938F939F93AF93BF93EF938E
:1012F000FF938091160290911702A0911802B0916D
:101300001902892B8A2B8B2BD1F190911102E0913C
:101310001202F09113028081892780838091160246
:1013200090911702A0911802B0911902181619068F
:101330001A061B069CF48091160290911702A09148
:101340001802B09119020197A109B1098093160200
:1013500090931702A0931802B0931902FF91EF9196
:10136000BF91AF919F918F917F916F915F914F91BD
:101370003F912F910F900FBE0F901F901895809165
:1013800002010E942502EACF1F920F920FB60F9220
:1013900011242F933F934F935F936F937F938F937A
:1013A0009F93AF93BF93EF93FF9382E292E00E94EB
:1013B0001601FF91EF91BF91AF919F918F917F9116
:1013C0006F915F914F913F912F910F900FBE0F90B2
:1013D0001F9018951F920F920FB60F9211242F9302
:1013E0008F939F93EF93FF93E0913202F09133023A
:1013F0008081E0913802F091390282FD1BC090811A
:1014000080913B028F5F8F7320913C02821741F0E5
:10141000E0913B02F0E0EE5DFD4F958F80933B0243
:10142000FF91EF919F918F912F910F900FBE0F9091
:101430001F9018958081F4CF1F920F920FB60F92D4
:1014400011242F933F938F939F93AF93BF938091DA
:10145000AD019091AE01A091AF01B091B00130917A
:10146000A80123E0230F2D3758F50196A11DB11DCA
:101470002093A8018093AD019093AE01A093AF019A
:10148000B093B0018091A9019091AA01A091AB0104
:10149000B091AC010196A11DB11D8093A90190935B
:1014A000AA01A093AB01B093AC01BF91AF919F9102
:1014B0008F913F912F910F900FBE0F901F90189515
:1014C00026E8230F0296A11DB11DD2CF1F920F92C5
:1014D0000FB60F9211242F933F934F935F936F9307
:1014E0007F938F939F93AF93BF93CF93DF93EF93AC
:1014F000FF938091A701C091E302D0E087FF24C051
:1015000010928500109284008091A7018F5F8093D4
:10151000A7018091A701082E000C990B8C179D073D
:1015200024F48091A7018C30C4F1809184009091C3
:101530008500049680349C4908F47AC08091840028
:1015400090918500049676C08091A701082E000C2A
:10155000990B8C179D07C4F6E091A7018E2FEE0F13
:10156000990BFC01EE0FFF1FE80FF91FE154FD4F2F
:10157000808186FFC9CFE091A7018E2FEE0F990BD6
:10158000FC01EE0FFF1FE80FF91FE154FD4F8081B2
:1015900060E08F730E94F701B7CF209184003091F3
:1015A0008500E091A7018E2FEE0F990BFC01EE0F45
:1015B000FF1FE80FF91FE154FD4F81819281820FD7
:1015C000931F9093890080938800E091A7018E2F4C
:1015D000EE0F990BFC01EE0FFF1FE80FF91FE1540E
:1015E000FD4F808186FF11C0E091A7018E2FEE0F85
:1015F000990BFC01EE0FFF1FE80FF91FE154FD4F9F
:10160000808161E08F730E94F701FF91EF91DF917C
:10161000CF91BF91AF919F918F917F916F915F918A
:101620004F913F912F910F900FBE0F901F901895E3
:1016300080E49CE990938900809388008FEF8093E9
:10164000A701E3CF1F920F920FB60F9211242F9391
:101650003F934F935F936F937F938F939F93AF933A
:10166000BF93EF93FF938091B900887F803609F490
:101670004AC0F0F5883209F4A5C018F5803109F4A4
:1016800099C0B8F4882309F4F5C0883009F492C0F1
:10169000FF91EF91BF91AF919F918F917F916F914A
:1016A0005F914F913F912F910F900FBE0F901F9020
:1016B0001895883109F486C0803251F78093700103
:1016C00014C0803409F49BC040F48033B9F38833EC
:1016D000F9F68093700185ECAEC0803509F483C0C3
:1016E000883509F494C0883499F60E945608D0CF02
:1016F000883909F48AC038F5883729F050F48836DB
:1017000011F0803729F683E08093710110926F0108
:1017100055C0883809F479C0803919F0803809F04B
:10172000B7CF80916F01803208F06FC0E0916F01F8
:1017300081E08E0F80936F018091BB00F0E0E15B50
:10174000FE4F80833BC0803B39F0D0F4803A09F4EF
:1017500077C0883A09F09CCF84E0809371011092A1
:101760004E0110924D01F0E0E0E0099580914D01AD
:1017700081110FC081E080934D0110922D0109C0AD
:10178000803C09F4A8CF883C09F4A5CF883B09F038
:101790007FCFE0914E0181E08E0F80934E01F0E00B
:1017A000E35DFE4F80818093BB0090914E0180915C
:1017B0004D0129C0809196018093BB0085EC8093F8
:1017C000BC0066CF9091950180919401981758F5CF
:1017D000E091950181E08E0F80939501F0E0EC5847
:1017E000FE4F8081E9CFE091950181E08E0F8093DB
:1017F00095018091BB00F0E0EC58FE4F8083909102
:101800009501809194019817C8F285E8D8CFE091AE
:10181000950181E08E0F809395018091BB00F0E0EF
:10182000EC58FE4F80838091730181115ECF81E07F
:101830008093720184EA8093BC001092710128CFDA
:1018400085EC8093BC001092710180916F01803211
:1018500030F4E0916F01F0E0E15BFE4F10826091A7
:101860006F0170E08FE491E0F0E0E0E00995109204
:101870006F010ECF1092700138CF10922502109296
:10188000240288EE93E0A0E0B0E0809326029093DB
:101890002702A0932802B09329028DE091E0909353
:1018A00023028093220285EC90E090932F02809394
:1018B0002E0284EC90E0909331028093300280EC11
:1018C00090E0909333028093320281EC90E0909309
:1018D00035028093340282EC90E09093370280933B
:1018E000360286EC90E09093390280933802109291
:1018F0003B0210923C0210923D0210923E02109266
:10190000FD021092FC021092FF021092FE02109251
:1019100001031092000349E050E06EE171E08CEFAA
:1019200092E00E942909E4EEF2E02FEF48EB5BE041
:101930008091E3028C30B8F491E0980F9093E30229
:10194000808390E0DC01AA0FBB1FA80FB91FA15430
:10195000BD4F12965C934E931197339682E0EC3F05
:10196000F80731F708952083F8CFCF93DF9300D0A5
:1019700000D000D01F92CDB7DEB7789484B58260D6
:1019800084BD84B5816084BD85B5826085BD85B523
:10199000816085BD80916E00816080936E001092A1
:1019A000810080918100826080938100809181001C
:1019B00081608093810080918000816080938000AD
:1019C0008091B10084608093B1008091B00081600B
:1019D0008093B00080917A00846080937A00809137
:1019E0007A00826080937A0080917A00816080938F
:1019F0007A0080917A00806880937A001092C1000A
:101A0000E0913202F091330282E08083E0912E0275
:101A1000F0912F021082E0913002F091310280E1CA
:101A2000808310923A02E0913602F091370286E00C
:101A30008083E0913402F09135028081806180835F
:101A4000E0913402F0913502808188608083E091DA
:101A50003402F0913502808180688083E091340205
:101A6000F091350280818F7D80838EE890E09093A5
:101A7000CC018093CB0187E299E09093CE018093D3
:101A8000CD0188E592E0909301018093000142E34B
:101A900050E060E070E084EF91E00E9482020E94DA
:101AA000E0044B015C01F2E3CF2ED12CE12CF12CB0
:101AB0000E94E004681979098A099B09683E73400D
:101AC00081059105A8F321E0C21AD108E108F108C7
:101AD00048EE840E43E0941EA11CB11CC114D10435
:101AE000E104F10429F78AE00E94250288248A94FF
:101AF000E3E09E2EA12CB12C82E00E943D088823B9
:101B000041F082E00E940505882319F081E00E94DF
:101B1000B90882E00E943D08811108C082E00E945D
:101B20006005882319F082E00E94B90883E00E94D2
:101B30003D08882341F083E00E940505882319F0C1
:101B400083E00E94B90883E00E943D08811108C02B
:101B500083E00E946005882319F084E00E94B908A0
:101B60008EE00E94DC07882319F085E00E94B90806
:101B70008EE00E947807882319F086E00E94B90859
:101B80008FE00E94DC07882319F087E00E94B908E3
:101B90008FE00E947807882319F088E00E94B90836
:101BA0008EE00E946B07882319F085E00E94B90837
:101BB0008FE00E946B07882319F086E00E94B90825
:101BC00080E10E946B07882319F087E00E94B90822
:101BD00081E10E946B07882319F088E00E94B90810
:101BE00082E10E946B07882319F089E00E94B908FE
:101BF00083E10E946B07882319F08AE00E94B908EC
:101C00002FB7F8946091AD017091AE018091AF0152
:101C10009091B0012FBF0E94D91020E030E04AE738
:101C200054E40E94661220910D0230910E02409100
:101C30000F02509110020E94F9112B013C014092B9
:101C4000090250920A0260920B0270920C021092EA
:101C5000080282E292E00E94F600181619064CF47F
:101C600081E08093080282E292E00E94D400809397
:101C70000702809108028823D1F180910702909198
:101C80000602853509F040C091113EC080910502E1
:101C90008F3F29F481E080930402809306028091B3
:101CA00004028F5F843308F046C080930402809161
:101CB00006028823E1F080910302811118C080910F
:101CC00004028430A0F010920602E090D2018091CC
:101CD000D3010091D401C02ED12CEE2089F18230A5
:101CE00009F47FC07CF5813099F110920402E0E0A4
:101CF000F0E0EF2B09F400CF0E940201882309F4E1
:101D0000FBCE0E940000F8CE80930502992339F2A1
:101D1000E0910402E23039F480930302F0E0E153F1
:101D2000FE4F8083BCCFE330C8F390910302915003
:101D300090930302F3CF1092040210920602B7CFE1
:101D40007601CDCF8450823080F60E941F09CDCF1E
:101D50008FEF0E94B40885E50E94B4088E2D0E9482
:101D6000B408C301B2010233E9F0E091CD01F09172
:101D7000CE01C6010995811117C01091D5010F310F
:101D8000B1F00E3CF9F00E3179F460E0812F0E9441
:101D90005102812F0E94CE01BC01990F880B990B33
:101DA0000E94DB100E94FB080E94BD009ECF812F85
:101DB0000E944E07BC0190E080E00E94D9100E9472
:101DC000D308F2CF812F0E944E079C01A4E6B0E019
:101DD0000E94EA11A50194010E946711622F70E030
:101DE000EACF01113CC01A8219821C821B821E821A
:101DF0001D826091FC027091FD026115710541F038
:101E00004091000350910103CE0101960E942909DF
:101E10001D81E12EFE8084E00E94B408812F0E9483
:101E2000B40810E000E00E151F05A4F48D819E811A
:101E30000817190768F489819A81009749F0800F83
:101E4000911FFC0180810E94B4080F5F1F4FEBCFF0
:101E500080E0F9CF89819A810E94F21376CFF2E374
:101E6000CF16D104E1F42FB7F8946091AD017091D1
:101E7000AE018091AF019091B0012FBF0E94D910A7
:101E800020E030E04AE754E40E94661260930D02BD
:101E900070930E0280930F029093100256CFE09140
:101EA000CB01F091CC01C601099581114ECF109163
:101EB000D501E12EF12C003209F454C054F50E3155
:101EC00009F043CF6091D6016230F8F02091B10162
:101ED0003091B2014091B3015091B4016091B501CC
:101EE0007091B6018091B7019091B801012F0E94C5
:101EF0002913217030E040E050E060E070E080E0C5
:101F000090E0A0E00E94441359F1812F0E94EE0658
:101F10001CCF013209F487C0023209F016CF1093AA
:101F2000B9018091D6018093BA018091B901909155
:101F3000BA012091D7012093B9012091D8012093B3
:101F4000BA01181619060CF06AC04091B9015091F7
:101F5000BA01052E000C660B770B0E948202F5CEAB
:101F600061E0D3CF0091D60161E0812F0E94050688
:101F7000C02ED12C61E0812F0E945102011105C0B9
:101F800060E0812F0E94F701E0CE2FEFC216D1044E
:101F900011F461E0F6CFF701E458FF4FE491E3302C
:101FA00021F148F4E130B9F0E230D1F040E8C41654
:101FB000D1047CF7E5CFE73011F1E83041F1E430AE
:101FC000A9F780918000806280938000D0928B007E
:101FD000C0928A00BACE84B5806884BD07BDB5CEF4
:101FE00084B5806284BD08BDB0CE809180008068D9
:101FF00080938000D0928900C0928800A6CE809104
:10200000B00080688093B0000093B3009ECE8091B2
:10201000B00080628093B0000093B40096CE8AE056
:102020000E94250292CE5091D6015F83EBEBF1E046
:1020300090E080E021913191E216F30651F0232BDC
:1020400009F0A9C0FC01EE0FFF1FE554FE4FF1821D
:10205000E082EF81E53B08F078CEFC01EE0FFF1F38
:10206000E80FF91FEC51FD4F708081819281C72CE0
:10207000D12C1601220C331C91012C0D3D1DA90100
:1020800041545D4F7A01FA01208126FD36C0FBE004
:10209000F71598F161E0812F0E9451021F73F7013B
:1020A0008081807C182B108390E080E0FC01EE0F93
:1020B000FF1FE80FF91FE154FD4F208126FD13C0DB
:1020C00001968C30910591F71092800082E0809308
:1020D00081001092850010928400B19A80916F0067
:1020E000826080936F00F101EC0DFD1DE154FD4F06
:1020F00080818064808390E080E0FBE0F71508F445
:1021000024CE08E512E0091B110997FD1395000F75
:10211000111F000F111F28E8E22EF12CE81AF10818
:1021200087FDF394EE0CFF1CEE0CFF1C27010F2C17
:10213000000C660877089801012E000C440B550B23
:1021400024193509460957098F81A82FB0E00E944C
:10215000861124EB30E040E050E00E946711420E0F
:10216000531E641E751E4E145F042CF07801401639
:1021700051060CF4720192E0E91AF108EE0CFF1C12
:102180008FB7F894F101EC0DFD1DE154FD4FF28283
:10219000E1828FBFDACD01968830910509F04ACFF0
:1021A00090E080E056CF8091FC029091FD020C946B
:1021B000F213E89409C097FB3EF4909580957095D2
:1021C00061957F4F8F4F9F4F9923A9F0F92F96E983
:1021D000BB279395F695879577956795B795F111F8
:1021E000F8CFFAF4BB0F11F460FF1BC06F5F7F4F95
:1021F0008F4F9F4F16C0882311F096E911C07723A7
:1022000021F09EE8872F762F05C0662371F096E8AF
:10221000862F70E060E02AF09A95660F771F881F7E
:10222000DAF7880F9695879597F9089597F99F673C
:1022300080E870E060E008959FEF80EC089500244E
:102240000A941616170618060906089500240A941B
:1022500012161306140605060895092E0394000CA1
:1022600011F4882352F0BB0F40F4BF2B11F460FF30
:1022700004C06F5F7F4F8F4F9F4F089557FD905859
:10228000440F551F59F05F3F71F04795880F97FB3A
:10229000991F61F09F3F79F08795089512161306F4
:1022A0001406551FF2CF4695F1DF08C01616170623
:1022B0001806991FF1CF8695710561050894089558
:1022C000E894BB2766277727CB0197F90895052E59
:1022D00097FB1EF400940E947E1157FD07D00E94C8
:1022E000C81107FC03D04EF40C947E115095409514
:1022F000309521953F4F4F4F5F4F089590958095B2
:10230000709561957F4F8F4F9F4F08950E94EA11FE
:10231000A59F900DB49F900DA49F800D911D112439
:1023200008952F923F924F925F926F927F928F9279
:102330009F92AF92BF92CF92DF92EF92FF920F9354
:102340001F93CF93DF93CDB7DEB7CA1BDB0B0FB65E
:10235000F894DEBF0FBECDBF09942A88398848881B
:102360005F846E847D848C849B84AA84B984C884B1
:10237000DF80EE80FD800C811B81AA81B981CE0FA8
:10238000D11D0FB6F894DEBF0FBECDBFED0108958D
:10239000A1E21A2EAA1BBB1BFD010DC0AA1FBB1F69
:1023A000EE1FFF1FA217B307E407F50720F0A21BDB
:1023B000B30BE40BF50B661F771F881F991F1A9448
:1023C00069F760957095809590959B01AC01BD0172
:1023D000CF010895A29FB001B39FC001A39F700DCC
:1023E000811D1124911DB29F700D811D1124911D1D
:1023F00008955058BB27AA270E9411120C942D1142
:102400000E941F1138F00E94261120F039F49F3FDE
:1024100019F426F40C941C110EF4E095E7FB0C94CF
:102420001611E92F0E943E1158F3BA17620773077D
:102430008407950720F079F4A6F50C9460110EF44A
:10244000E0950B2EBA2FA02D0B01B90190010C01C4
:10245000CA01A0011124FF27591B99F0593F50F4DC
:10246000503E68F11A16F040A22F232F342F442734
:10247000585FF3CF469537952795A795F04053952C
:10248000C9F77EF41F16BA0B620B730B840BBAF0FC
:102490009150A1F0FF0FBB1F661F771F881FC2F767
:1024A0000EC0BA0F621F731F841F48F4879577957B
:1024B0006795B795F7959E3F08F0B0CF9395880F35
:1024C00008F09927EE0F9795879508950E947A1244
:1024D0000C942D110E94261158F00E941F1140F0FB
:1024E00029F45F3F29F00C94161151110C946111DD
:1024F0000C941C110E943E1168F39923B1F35523EB
:1025000091F3951B550BBB27AA2762177307840706
:1025100038F09F5F5F4F220F331F441FAA1FA9F39C
:1025200035D00E2E3AF0E0E832D091505040E6958A
:10253000001CCAF72BD0FE2F29D0660F771F881FEB
:10254000BB1F261737074807AB07B0E809F0BB0BDE
:10255000802DBF01FF2793585F4F3AF09E3F5105F2
:1025600078F00C9416110C9461115F3FE4F3983EDF
:10257000D4F3869577956795B795F7959F5FC9F7DB
:10258000880F911D9695879597F90895E1E0660F5C
:10259000771F881FBB1F621773078407BA0720F0D5
:1025A000621B730B840BBA0BEE1F88F7E09508953E
:1025B0000E94DF126894B1110C94611108950E9479
:1025C000461188F09F5798F0B92F9927B751B0F06E
:1025D000E1F0660F771F881F991F1AF0BA95C9F7A7
:1025E00014C0B13091F00E946011B1E008950C94D4
:1025F0006011672F782F8827B85F39F0B93FCCF387
:10260000869577956795B395D9F73EF49095809523
:10261000709561957F4F8F4F9F4F0895002E083022
:1026200090F0982F872F762F652F542F432F322F1E
:1026300022270850F4CF220F331F441F551F661F57
:10264000771F881F991F0A95B2F7002D089597FDEF
:102650001094002E083098F00850232F342F452F67
:10266000562F672F782F892F912DF4CF159497959A
:1026700087957795679557954795379527950A9547
:10268000AAF71124002D08950024A7FD00942A170D
:1026900030054005500560057005800590050895DA
:1026A000EE0FFF1F0590F491E02D09940F931F93F7
:1026B000CF93DF938230910510F482E090E0E091B7
:1026C0000403F091050330E020E0B0E0A0E0309793
:1026D00099F42115310509F44AC0281B390B24301F
:1026E0003105D8F58A819B816115710589F1FB015E
:1026F00093838283FE0111C0408151810281138145
:1027000048175907E0F04817590799F4109761F0F6
:1027100012960C93129713961C933296CF01DF9169
:10272000CF911F910F910895009304031093050317
:10273000F4CF2115310551F04217530738F0A901A4
:10274000DB019A01BD01DF01F801C1CFEF01F9CF33
:102750009093050380930403CDCFFE01E20FF31F96
:10276000819391932250310939832883D7CF2091C7
:10277000020330910303232B41F420910501309192
:10278000060130930303209302032091030130914B
:1027900004012115310541F42DB73EB740910701E1
:1027A00050910801241B350BE0910203F0910303C3
:1027B000E217F307A0F42E1B3F0B2817390778F018
:1027C000AC014E5F5F4F2417350748F04E0F5F1F77
:1027D0005093030340930203819391939FCFF0E0C2
:1027E000E0E09CCFCF93DF930097E9F0FC013297B4
:1027F00013821282A0910403B0910503ED0130E031
:1028000020E01097A1F420813181820F931F209145
:102810000203309103032817390709F061C0F093D0
:102820000303E0930203DF91CF910895EA01CE17ED
:10283000DF07E8F54A815B819E0141155105B1F73B
:10284000E901FB83EA8349915991C40FD51FEC1725
:10285000FD0761F4808191810296840F951FE90143
:1028600099838883828193819B838A83F0E0E0E06F
:1028700012968D919C9113970097B9F52D913C91EB
:102880001197CD010296820F931F20910203309180
:1028900003032817390739F6309751F510920503CD
:1028A00010920403B0930303A0930203BCCFD3831D
:1028B000C28340815181840F951FC817D90761F4E5
:1028C0004E5F5F4F88819981480F591F5183408324
:1028D0008A819B81938382832115310509F0B0CFD2
:1028E000F0930503E09304039ECFFD01DC01C0CF0C
:1028F00013821282D7CFB0E0A0E0E1E8F4E10C94BB
:1029000093118C01009751F4CB010E9456138C0156
:10291000C801CDB7DEB7E0E10C94AF11FC01E60FC2
:10292000F71F9C0122503109E217F30708F49DC0FC
:10293000D901CD91DC911197C617D70798F0C53012
:10294000D10530F3CE0104978617970708F3C61B0D
:10295000D70B2297C193D1936D937C93CF010E94A3
:10296000F213D6CF5B01AC1ABD0A4C018C0E9D1E32
:10297000A0910403B0910503512C412CF12CE12CC2
:10298000109731F580910203909103038815990502
:1029900009F05CC04616570608F058C08091030144
:1029A00090910401009741F48DB79EB740910701C3
:1029B00050910801841B950BE817F90708F055C0E2
:1029C000F0930303E0930203F90171836083A0CFC6
:1029D0008D919C91119712966C90129713967C9002
:1029E0001397A815B90559F56C0142E0C40ED11C26
:1029F000CA14DB0420F1AC014A195B09DA01129612
:102A0000159780F06282738251834083D9016D9360
:102A10007C93E114F10471F0D7011396FC93EE93CB
:102A2000129776CF22968C0F9D1FF9019183808398
:102A3000F301EFCFF0930503E093040369CF481649
:102A4000590608F42C017D01D3019ACFCB010E94D5
:102A500056137C01009749F0AE01B8010E94381569
:102A6000C8010E94F213870153CF10E000E050CF5D
:102A7000FB01DC0102C001900D9241505040D8F79B
:102A80000895FB01DC0101900D920020E1F708950B
:102A900010E0C3E6D0E004C0FE010E94501321966E
:0A2AA000C436D107C9F7F894FFCF40
:102AAA006400FF0000060380000000000038019067
:102ABA0000C5008501F600D400E8000D0A00303098
:082ACA002E30302E30303000B8
:00000001FF
