:020000021000EC
:108000000040002001A1010041A1010043A10100A5
:108010000000000000000000000000000000000060
:1080200000000000000000000000000045A1010069
:10803000000000000000000047A1010049A101006C
:108040004BA101004BA101009DA901004BA1010022
:108050004BA1010000000000318F01004BA1010085
:108060004BA10100B9A40100619201004BA10100E4
:108070004BA101004BA101004BA101004BA101004C
:108080004BA1010079A201004BA101004BA101000D
:108090004BA101004BA101004BA101004BA101002C
:1080A0004BA101004BA101000000000000000000F6
:1080B00000000000000000000000000000000000C0
:1080C000054B0648033310B51B1A062B03D9044B86
:1080D000002B00D0984710BDD8200020D8200020C9
:1080E000000000000648074910B5091A8910CB0F97
:1080F0005918491003D0044B002B00D0984710BDED
:10810000D8200020D82000200000000010B5074C27
:108110002378002B09D1FFF7D3FF054B002B02D0AA
:10812000044800E000BF0123237010BDD8200020C8
:1081300000000000A8D10100094B10B5002B03D0AE
:108140000849094800E000BF08480368002B02D135
:10815000FFF7C8FF10BD064B002BF9D09847F7E793
:1081600000000000DC200020A8D10100D420002065
:1081700000000000164B002B00D1144B9D464022FE
:1081800092029A1A924600218B460F461348144ACF
:10819000121A04F0FEFC0F4B002B00D098470E4B38
:1081A000002B00D098470020002104000D000D484E
:1081B000002802D00C4800E000BF04F0A7FC20001B
:1081C000290002F0EFFC04F08BFCC0460000080020
:1081D000004000200000000000000000D820002027
:1081E0005C230020000000000000000010B50A2001
:1081F00000F018FB10BD10B50B2000F013FB10BDF4
:1082000010B50C2000F00EFB10BD10B50D2000F0D5
:1082100009FB10BD10B5162000F004FB10BD10B511
:10822000172000F0FFFA10BD10B5182000F0FAFA80
:1082300010BD10B5192000F0F5FA10BD10B565207D
:1082400000F0F0FA10BD10B5662000F0EBFA10BD9A
:1082500010B5672000F0E6FA10BD10B5682000F0F8
:10826000E1FA10BD10B56A2000F0DCFA10BD10B5BF
:10827000692000F0D7FA10BD10B56B2000F0D2FADB
:1082800010BD10B56C2000F0CDFA10BD10B56D20FA
:1082900000F0C8FA10BD10B56E2000F0C3FA10BD92
:1082A00030B585B0222812D11C3800F061F90400E5
:1082B000082000F05DF90200002C04DD2100002000
:1082C00001F016FA7DE0002001F062FA79E06428FE
:1082D00006D105215E3800F07FF901F00FF870E05B
:1082E000652802D101F002F86BE0662807D16038FA
:1082F00000F04CF903F02CF900F0F0FF61E0672882
:1083000007D1613800F042F902F0D4FE01F052F8D2
:1083100057E0682811D1623800F024F901000720E5
:1083200000F046F9010001A802F0A0FB01A801F04D
:1083300003F801A802F053FB43E069280BD163382E
:1083400000F010F90400072000F00CF901002000F3
:1083500001F026F835E06A280BD1643800F002F904
:108360000400072000F0FEF80100200001F052F8A0
:1083700027E06C280BD1663800F0F4F804000720E1
:1083800000F0F0F80100200001F04EF819E06D282F
:1083900012D1673800F0E6F80400072000F0E2F898
:1083A0000500082000F0DEF8421E90412900C2B20C
:1083B000200000F0E3FF04E000236B2802D100F06E
:1083C000CBFF0123180005B030BD10B5031E782B7C
:1083D00002D101F0E9F903E0792806D101F086FA2B
:1083E00004F07CFA00F078F923E07D280AD1062019
:1083F00000F0B8F8002802D100F05AFE17E000F0B3
:1084000063FE14E000207E2B14D1063000F0AAF8A1
:10841000041E02D100F064FE09E0012805D100F03D
:1084200077FE00F025F9200004E000F089FE00F05E
:108430001FF9012010BD000010B500F083FA2D498E
:108440002D4800F0DDF800F03FFF2C490A2000F035
:108450008FFE2B490B2000F08BFE2A490C2000F0E8
:1084600087FE29490D2000F083FE2849162000F0E0
:108470007FFE2749172000F07BFE2649182000F0D8
:1084800077FE2549192000F073FE2449652000F08D
:108490006FFE2349662000F06BFE2249672000F042
:1084A00067FE2149682000F063FE2049692000F042
:1084B0005FFE1F496A2000F05BFE1E496B2000F042
:1084C00057FE1D496C2000F053FE1C496D2000F042
:1084D0004FFE1B496E2000F04BFEFA21322249006C
:1084E000002001F005F9322001F0B8FE002001F073
:1084F0004FF910BDCB830100A1820100ED81010085
:10850000F7810100018201000B8201001582010048
:108510001F82010029820100338201003D82010097
:1085200047820100518201005B8201006F820100DD
:108530006582010079820100838201008D82010041
:108540009782010010B500F033FD00F0C1FF00F08C
:1085500091F910BD10B5024802F05CF810BDC0469C
:10856000E8220020014B185C7047C046152100200E
:10857000044A054B115C1018427819705A7000209B
:10858000185E7047152100205A210020064A074B2B
:10859000115C1018427819705A7082789A70C278FB
:1085A000DA7018687047C04615210020802100202D
:1085B000002330B5064A074D8B4204DA2C18E45CE0
:1085C000D4540133F8E700231000535430BDC046A3
:1085D0006C2100201521002070B500230500064AFB
:1085E000064E10008B4206DA102B04D07419E45C9E
:1085F000D4540133F5E770BD492100201521002036
:10860000024B1860024B19607047C0466821002079
:108610008421002010B5054C0549200002F026FAFF
:10862000044A0549200004F03BFA10BD0421002053
:10863000E8CD010000200020DFA9010010B50100F5
:10864000014802F039F810BDE822002010B5FF20E3
:10865000FFF7F4FF5520FFF7F1FF10BD10B5FF2025
:10866000FFF7ECFF5520FFF7E9FFFFF773FF10BDA1
:1086700010B504000120FFF7E1FF2000FFF7DEFF47
:1086800010BD70B5866805000420FFF7D7FFF0B273
:10869000FFF7D4FF0024B44207DA2100280002F0DB
:1086A0007CFAFFF7CBFF0134F5E770BD70B5051C10
:1086B0000220FFF7C3FF074C25602078FFF7BEFFBD
:1086C0006078FFF7BBFFA078FFF7B8FFE078FFF70F
:1086D000B5FF70BD80210020D0B506000F0003203B
:1086E000FFF7ACFF3900300004F080F8074C208021
:1086F000C0B2FFF7A3FF6078FFF7A0FFA078FFF7F5
:108700009DFFE078FFF79AFFD0BDC0465A210020B8
:108710007FB500223A4B3B4D1A70EE783A4B1E70F3
:1087200028796C79964200D126000138042866D851
:1087300002F0C2FA033665636300FFF787FFF0B209
:10874000FFF77CFF322C05D1304B1868596804F0D4
:10875000FDF814E02E4B20001B689847011E1CD129
:10876000AD791F2C0ED0CE2C10D01E2C15D1280088
:1087700001F0E8FE280001F019FF02F00BFFFFF7FF
:1087800095FF0AE0280001F0A3FC02E0280001F0B8
:10879000A9FC04F0A3F8FFF79FFFFFF7DBFE2EE034
:1087A000002C0AD11B4901A802F083F901A8FFF7A8
:1087B00068FF01A802F013F91FE0322C0BD101F081
:1087C00035FD04F08BF8144B002202F02BFF134B05
:1087D0001860596011E0124B20001B689847002870
:1087E0000BD1A8791E2C05D0202C06D1E97901F0F7
:1087F00064FC02E0E97901F057FCFFF72FFF7FBD31
:10880000002100201521002014210020F820002044
:10881000842100200421002000408F40602100209E
:108820006821002010B50400FFF710FF8020FFF73B
:1088300005FF0120FFF71CFF2000FFF719FFFFF7DE
:1088400089FE10BD002370B5074C084D20002B7029
:1088500001F06AFF002806DD012320002B7001F0E3
:108860006DFF034B187070BDE8220020F42000203B
:108870001121002070B501F0D9FC04F02FF800227E
:10888000264B02F0CFFE264B1A685B6803F05AFCB9
:10889000244B18605960FFF7D5FF234B1B78002B42
:1088A0003AD0224B22491A78224C234B552A09D11F
:1088B0001878002806D10A78FF2A15D1FE3A2270CE
:1088C0001A7011E00A70197800290DD02178022958
:1088D00002D11A48027005E0022903D9174D287801
:1088E000013828701648425422780132D2B2332A15
:1088F00001D8227002E0002222701A701A78002A31
:108900000AD00E4A1578002D06D12278032A03D901
:108910001D70FFF7FDFE257070BDC04600408F4002
:1089200060210020F8200020F420002011210020E8
:1089300010210020122100200021002013210020FE
:1089400015210020E12110B54902024801F0ADFED9
:1089500010BDC046E8220020F8B505000E00170043
:108960000024BC4208D02B68315D1B682800984762
:10897000002801D00134F4E72000F8BD704710B59D
:108980001C3001F077FE10BD10B51C3001F064FE04
:1089900010BD70B5437E0D00002B05D0643004007F
:1089A00001F077FE002801D0002004E0200029001B
:1089B00001F043FE012070BD10B51C3001F060FED7
:1089C00010BD0000F7B50193FA23002504009B00B9
:1089D00083600D4B4560083303601C300F001600A8
:1089E00001F020FE2000643001F01CFE074AB600B2
:1089F000B35827616375019B20009B009B586576E7
:108A0000A576A375FEBDC046F4CD010058D0010087
:108A10000123A022C375837D0C49C133FF33D205E6
:108A20009B009950437DC133FF339B009950CC216B
:108A30000369074A490499500521243A9950817DD8
:108A400008329950417D034A995070470C06000046
:108A5000240500000C050000F7B5050000200C00FF
:108A6000019382425CD0161E402E00D940262F0072
:108A70001C37380001F0ECFDB1222B69D2008021B7
:108A80009C50012289005A50A97E002901D11A6206
:108A90001A600024731E2A69A34206D1019B002B91
:108AA00003D0802302219B00D150012313621300C5
:108AB000FC33D968002902D1996A0029F9D0996A52
:108AC00000290AD1D960A323DB00D1583800C9B2EC
:108AD000013401F0B2FDA642DCD8019A2B69002ACC
:108AE00004D11A00FC32916A00290AD00121002227
:108AF000AA7659611900FC3188680028FCD08A6088
:108B000007E00121A976D961D16C0029FCD00021B0
:108B1000D164FC339A6A002A01D000229A62E0B242
:108B2000FEBD10B50123FFF797FF10BD0300AC3366
:108B300010B504001970643001F08AFD01236376DA
:108B400010BD0000F8B500220D0001004276AC31E6
:108B5000036904000878B121C900585080218900B8
:108B60005A5001321A629A6026006436300001F0D1
:108B700081FD00280ED03000276901F06DFD1E4BED
:108B8000F8502369FC331A6A002A0CD19A6A002A29
:108B9000F9D008E02369002D0AD11A00FC32916A4D
:108BA000002905D10EE09A6A002AF3D11A62DBE7A8
:108BB00001225A611A00FC3291680029FCD0002180
:108BC000916006E00121D961D16C0029FCD000211F
:108BD000D1641A000020FC32916A81420BD007490F
:108BE00090625A5802305A50824204D0043A53429A
:108BF00053410230C01AF8BD1C050000C404000037
:108C000010B50121FFF79EFF10BD000010B5132322
:108C1000142202490248FFF7D5FE10BD0040004073
:108C200088210020014B0170C3617047E12E65422D
:108C3000C07840B27047007940B27047407940B286
:108C40007047000070B50E0005000F4C0178200041
:108C5000FFF76CFF31002000FFF79BFE0021200092
:108C6000FFF770FF297801222000FFF75AFF20004C
:108C7000FFF785FE03000020834203D02000FFF7AA
:108C800083FEC0B270BDC0468821002070B50600CA
:108C9000164C01782000FFF749FF2A212000FFF73A
:108CA00078FE2000FFF7ACFF317801222000FFF7AB
:108CB00038FF20002500FFF762FE0024A04203D009
:108CC0002800FFF761FEC4B231782800FFF72EFFBD
:108CD00028002A21FFF75DFE012321002800994387
:108CE000FFF757FE2800FFF78BFF70BD882100209B
:108CF00070B50600204C01782000FFF717FF2A21ED
:108D00002000FFF746FE2000FFF77AFF31780122AE
:108D10002000FFF706FF2000FFF731FE0025A842E4
:108D200003D02000FFF730FEC5B231782000FFF7F6
:108D3000FDFE2B212000FFF72CFE09212000FFF76C
:108D400028FE2000FFF75CFF31782000FFF7EEFEE1
:108D50002A212000FFF71DFE317B20004B425941A4
:108D60004B0031210D432B431900FFF712FE200069
:108D7000FFF746FF70BDC04688210020F8B51600F9
:108D800005000F001C4C2000FFF742FE0D212F7341
:108D9000AE702800FFF756FF29782000FFF7C6FEC7
:108DA0002B212000FFF7F5FD40212000FFF7F1FD0A
:108DB0002000FFF725FF0A2001F050FA2800FFF7F6
:108DC00065FF29782000FFF7B1FE0E212000FFF794
:108DD000E0FDAB780121042B03D00221082B00D049
:108DE00000212000FFF7D5FD2000FFF709FF280034
:108DF000FFF77EFFF8BDC0468821002070B5214CEA
:108E0000050001782000FFF791FE00212000FFF708
:108E1000C0FD00212000FFF795FE2B7B060029787E
:108E20000722002B00D1033A2000FFF77AFE200032
:108E3000FFF7A5FD002823D02000FFF7A5FD2B7B21
:108E400068702000002B10D0FFF79EFD2000FFF778
:108E50009BFDE8702000FFF797FD2000FFF794FDD1
:108E600028712000FFF790FD06E0FFF78DFDE87008
:108E70002000FFF789FD28712000FFF785FD68714C
:108E8000300070BD8821002052DF704712DF70472C
:108E900010B502210400052001F01CF802210B206E
:108EA00001F018F8002C1DD0052001F0C9F80028A9
:108EB00001D00A2005E0052001F09EF8002802D02C
:108EC0000B2000F0A7FF0B2001F0BAF8002801D01A
:108ED0000C2005E00B2001F08FF8002802D00D20B7
:108EE00000F098FF10BD000010B50F4CE06801289D
:108EF00005D1C1230D4A9B00D3585B070ED4A0684F
:108F0000012810D1C123094A9B00D3589B070AD5D9
:108F10000022054B9A60FFF7BBFF04E00023E360EB
:108F2000FFF7B6FFEBE710BDFC60004000600040BB
:108F300010B5FFF7D9FF10BD70B5052804D00B2878
:108F400005D00024230004E00424022301E00224CD
:108F50000123A225104A9B009B18ED005A59002AB4
:108F600019D10E4A8000825840200D4E0D49F067FD
:108F7000C026760088510C4E120232435A51C1224B
:108F8000054B92009C508C58084B2340C02424046D
:108F900023438B50086070BD0060004058D0010032
:108FA00004E100E000E100E001000300FFFF00FF3A
:108FB00010B5394B1A781C00002A08D0002001F0A7
:108FC000F5FA002803D0354B1A78002A45D02378CB
:108FD000002B08D0002001F0E9FA012803D12F4B23
:108FE0001A78012A3FD02E4B1A781C00002A08D08C
:108FF000012001F0DBFA002803D12A4B1A78002A5D
:1090000037D02378002B08D0012001F0CFFA0028B8
:1090100003D0244B1A78012A31D0234B1A781C0034
:10902000002A08D0022001F0C1FA002803D11F4B0A
:109030001A78002A29D02378002B2CD0022001F0A6
:10904000B5FA002827D0194B1A78012A23D100221B
:1090500019201A7000F0DEFE1DE0012214201A70A3
:1090600000F0D8FEB3E7002215201A7000F0D2FEFF
:10907000B9E7012216201A7000F0CCFEC1E70022E9
:1090800017201A7000F0C6FEC7E7012218201A70D8
:1090900000F0C0FECFE710BD502200208522002046
:1090A0005822002086220020512200208722002002
:1090B00010B50221052000F00DFF052000F088FF0B
:1090C000431E9841C0B210BD10B502210B2000F024
:1090D00001FF0B2000F07CFF431E9841C0B210BD81
:1090E00010B5094C2078C0B2002806D1010001F06B
:1090F00029FA01232370FFF75BFF044B187801382E
:1091000043425841C0B210BD5022002085220020A9
:1091100010B5094C2178C9B2002906D1012001F00F
:1091200011FA01232370FFF743FF044B187801382D
:1091300043425841C0B210BD582200208622002070
:1091400010B5094C2178C9B2002906D1022001F0DE
:10915000F9F901232370FFF72BFF044B187801382E
:1091600043425841C0B210BD512200208722002046
:1091700070B504000D0000F037FE002832D1230046
:109180000A3B012B02D80530FFF7D6FE23000C3B2B
:10919000012B02D80B20FFF7CFFE2300143B012B3D
:1091A00006D80021080001F0CDF901220E4B1A70FB
:1091B0002300163B012B06D80021012001F0C2F943
:1091C00001220A4B1A702300183B012B06D80021FC
:1091D000022001F0B7F90122054B1A702900200086
:1091E00000F030FE70BDC046502200205822002002
:1091F00051220020144B70B55A6C144D002A22D015
:10920000C1229200AA58D2031DD5002610485E64E0
:1092100000F09CFC0F4C2368B34207D001F006F825
:109220002368C01A0C4B1B88984207D8A822FA2141
:10923000D200AB5889005B18AB5004E00122074B09
:1092400026605A60F2E770BDFCA0004000A000401C
:10925000A02200204C2200208E220020008000400E
:1092600010B5FFF7C7FF10BD002230B50120042460
:10927000104B11495A500C31D8605C50FA2408390F
:109280005A50A40038315C500C49E03C5A508021BF
:10929000C12249029200995009490A4A0D592A40AF
:1092A0008025ED032A430A518022D2000A6018600B
:1092B00030BDC04600A00040040500004405000089
:1092C00000E100E0FFFF00FF10B5034800F0A4FB41
:1092D000FFF7CAFF10BDC046A022002010B5010054
:1092E000014800F00BFD10BDA022002010B502487F
:1092F00000F0B0FB10BDC046A0220020F7B500244E
:1093000001270C4D0600280000F0A4FB0195002564
:109310000422335D521B13413B4204D0E2B2E9B256
:10932000019800F0A5FB0135052DF1D10134052C84
:10933000EDD1F7BDA02200201FB5010001A801F06A
:10934000B8FB01A9034800F047FC01A801F047FB66
:1093500005B000BDA022002010B5024800F0E6FCD8
:1093600010BDC046A022002010B50A00010002482E
:1093700000F086FB10BDC046A0220020030010B5FF
:109380000648002A04D00A00190000F071FB03E02F
:109390000A00190000F0D2FC10BDC046A022002037
:1093A00010B50A000100024800F062FB10BDC04683
:1093B000A0220020F8B5154B061E9E4224D8144862
:1093C00000F048FB0425002E1ED030000A2101F0D9
:1093D00003FD30000F00CCB20A2101F077FC06003B
:1093E000052F06D900212800053CFFF7D9FFE4B27C
:1093F00001E0002F05D00523191BC9B22800FFF793
:10940000CFFF013DEDB2DEE7F8BDC0469F8601000B
:10941000A022002010B50A000100024800F08EFCD6
:1094200010BDC046A022002070B50D000400FFF75B
:109430009BFF01225040C2B229002000FFF79EFF8F
:1094400070BD000010B5022200210348FFF796FC12
:109450000122024B1A7010BD5C2200205A2200200B
:1094600010B51A4C2078652801D100F0D3FC207883
:109470006A2801D100F0CEFC20786B2801D100F0E1
:10948000C9FC2078662801D100F0C4FC2078672848
:1094900001D100F0BFFC2078682801D100F0BAFCAF
:1094A0002078692801D100F0B5FC20786C2801D122
:1094B00000F0B0FC20786D2801D100F0ABFC2078E2
:1094C0006E2801D100F0A6FC10BDC046052000208A
:1094D00070B5744B1B78002B01D1FFF7B3FF00F080
:1094E000A5FE714C2368C01A312800D8D8E000F0DE
:1094F0009DFE6E4E20603000FFF780FC3000FFF7CD
:1095000097FB03F0A9F96A4A6A4B02F0A1FB00221B
:10951000694B02F09DFB03F069F9684D287030003B
:10952000FFF789FB03F098F9614A624B02F090FB68
:109530000022614B02F08CFB03F058F9604C207064
:109540003000FFF77BFB03F087F9594A594B02F0D3
:109550007FFB0022584B02F07BFB03F047F9002110
:10956000584BC0B218702478695664B20A002300C0
:109570004A43634340B2D21803004343524DD218CA
:109580002B78002B04D00133DBB22B70052B73D862
:109590004E4D2B78002B04D00133DBB22B70052B02
:1095A00071D84B4D2B78002B04D00133DBB2052B47
:1095B00070D82B70444B1D78002D07D1454DAA4221
:1095C00004D901251D70444B6B351D703F4B1D7830
:1095D000002D07D1414DAA4204D901251D703E4BF3
:1095E0006C351D703A4B1D78002D07D13C4DAA42B9
:1095F00004D901256E261D70374D2E70324D2D7801
:10960000012D36D0314D2D78012D32D01B78012B14
:109610002FD0344D6B23AA4215D90A00063B503295
:1096200011DB013350290EDC2200013350320ADBFA
:109630000133502C07DC02000133503203DB0133CD
:10964000502800DC063B284A28491078984204D16B
:109650000B78012B04D8013301E0137000230B7049
:109660001D4B1278187890421AD00978012917D921
:109670001A70FFF7F5FE13E00023154E2B703370C0
:10968000124E337084E70023114E2B700E4D337051
:109690002B7086E700232B700C4D2B700A4D88E74A
:1096A00070BDC0465A220020542200205C220020B7
:1096B000DE718A8EE4F28F3F00005940892200203B
:1096C0008B2200208C22002059220020882200209A
:1096D000842200203147000005200020907E0000F9
:1096E000409C00003F060000042000208A22002049
:1096F000F7B5A22601251A4B01921B68194A1A4F89
:109700001B02F6001343BB51184B194CFD500023AC
:10971000184A6560E560A3500422A251A122D2003C
:10972000A350154801F05CFBA823E840DB00E050A3
:1097300080239B00E550114A114B0E499F50114A5E
:109740009A510C4A9A582A435A50256000F06EFDEF
:109750006A460D4B928818600C4B1A80F7BDC046C4
:1097600058D001000300030000600040FC0F00001F
:10977000008000400405000040420F001405000076
:1097800000F00140408100404C2200208E22002049
:109790000022034B1A60034B01325A607047C046E7
:1097A0004C2200200080004013B500F03FFD184C13
:1097B0002368C01AFA239B00984226D900F036FD90
:1097C0006B462060DC1C2000FFF760FB2378002B39
:1097D00003D001A8FFF758FB0FE001220D4B1A60E0
:1097E0000D4A5368002BFCD000220B4B5A600B4BE8
:1097F00001321B680193074B5A600322019BD91762
:109800000A40D318064A9B101370054B187816BDF2
:109810004822002000C00040FCC0004008C50040B5
:109820007C220020F8B500F001FD2B4C2368C01A03
:10983000C72850D900F0FAFC0025284E20600021EE
:10984000300000F00DF900211A2000F099FE0021EF
:109850001B2000F095FE00211C2000F091FE01214C
:10986000032000F08DFE0121042000F089FE01217B
:109870000A2000F085FE2C003700194B0021E65C21
:109880000134300000F07CFE0021300000F05AFE70
:10989000300000F063FA01212D18300000F052FE74
:1098A0000121300000F06CFE032CE6D101213800CC
:1098B00000F0D6F80B4B21001888013080B21880D8
:1098C00001F08AFA28008EB2210001F089FA064BD5
:1098D00080B27600F052F8BD90220020A022002035
:1098E00014CE01007E2200204022002007B5FFF7A1
:1098F00099FF0E4B032118885A889B888018C0183E
:1099000001F06EFA0A4B18601A681A681A60AA22E7
:109910001968914200D81A6800211A601868AA22B2
:109920000091FF2301F050F880B20EBD40220020CC
:109930008022002010B500F079FC074B186000F081
:1099400075FC064B186000F071FC054B1D2118607A
:109950000448FFF767F910BD48220020902200203C
:10996000542200205C22002070B5141C082A00D963
:109970000824E4B20D1C022900D902250921012284
:10998000EDB26943091946688A40002B01D016439D
:1099900000E09643466070BD0B1C022900D90223EB
:1099A0000921DBB25943131C082A00D90823DAB273
:1099B00040688B18D84001231840704710B50478D0
:1099C000002C09D0052461438A18044952008918E3
:1099D0000A784978FFF7C8FF10BDC0461DCE0100C8
:1099E000F7B50025037807000191AB4213D000249E
:1099F000EBB20093019B5E5D0123210001343340F3
:109A0000009A3800E4B2FFF7D9FF7608052CF3D1AD
:109A10000135052DEBD1F7BD70B5050000240C4BC9
:109A20000121E05C013400F08DFD092CF7D101210A
:109A30001A2000F087FD01211B2000F083FD012189
:109A40001C2000F07FFD00236B6001332B7070BD84
:109A50002FD00100002343600133437070470000A2
:109A60000022024B01701A707047C046AD220020E0
:109A700010B50C00012311002200FFF79FFF10BD5D
:109A800005235A4310B55118054A490051180A7860
:109A90004978FFF781FF431E9841C0B210BDC04610
:109AA0001DCE0100F8B5234E040033783700002B9B
:109AB0003ED0214B1B78002B09D0204D2968FFF7A1
:109AC0008FFF00232868337098421AD130E01C4D74
:109AD0001C4B2A681B689A4208D3184B1868002848
:109AE00001D001F077F800233B7021E04378002B90
:109AF0000AD1012243603370104B4270186800286D
:109B000016D001F067F813E000F090FB0E4E3368BA
:109B1000C01A95280CD900F089FB084B30601968F1
:109B20002B682000C918FFF75BFF2B6801332B60FF
:109B3000F8BDC046B8220020AC220020B022002090
:109B4000B42200209822002094220020F8B5037847
:109B50000500002B37D043681B4A002B30D1137807
:109B6000013BDBB21370002B2DD02800FFF79AFFCA
:109B7000164C174F23780021F85C00F001FD237884
:109B800003210133DBB2237020780026C0B201F03C
:109B900023F9C9B221702178F2B2C9B22800FFF7C7
:109BA000FBFE0C4B41424141F05C013600F0E8FC09
:109BB000092EF0D123780121F85C00F0E1FC02E0ED
:109BC00004231370D1E7F8BD9C220020AD220020B1
:109BD0003AD001002FD00100F0B5404B89B01B787E
:109BE00006000D00002B76D13D4C2068002801D0E6
:109BF00000F0F0FF0023736001337370394902A84D
:109C000000F034FFAB68002B04D1374902A800F004
:109C10007DFF19E0012B04D1290002A800F039FFD3
:109C200012E0314E05A8310000F020FF290005A800
:109C300000F089FF310000F093FF010002A800F05E
:109C400028FF05A800F0CBFE0625049A531E5842B3
:109C50005841554325490870681E00F0B7FF206041
:109C60000024234E34600196049BA34227D921008F
:109C700002A800F092FF20385F2800D900200523B9
:109C8000002158431B4B1818154B9C46184B664631
:109C9000425C1F6836680131F2551A6801321A6059
:109CA0000529F4D1049901398C4206D2614600207D
:109CB000096888541A6801321A600134D4E7002315
:109CC000019A073D136001220B4B02A81D60034B54
:109CD0001A7000F084FE09B0F0BDC046B822002022
:109CE000B0220020DED0010038D00100AC220020DC
:109CF000B42200204FCE01009822002010B50400AD
:109D000086B00A22684600F0EFFE694603A800F01C
:109D1000D0FE03A92000FFF75FFF03A800F05FFE5D
:109D2000684600F05CFE06B010BD00000023024A49
:109D3000437013707047C046B822002010B50C0065
:109D4000002311002200FFF739FE10BD10B500F00E
:109D50006DFA014B186010BD94220020F7B5002267
:109D60001C4B8000C158130001391A2901D81A4B25
:109D70005B5C69468E1DC121184C194D89003280EB
:109D800062506A600A221B021343164A0127A3503D
:109D9000A023DB000220E75000F060FA80222000C0
:109DA00010492760D2006B68002B02D18358002B2A
:109DB000F9D10022A1236A60DB00E3589BB2338013
:109DC00001236360A023DB00E2500A236350308844
:109DD00080B2FEBD58D001003DD0010000700040AF
:109DE000FC70004004050000084A094B12781B680B
:109DF000D2009A18934207D008331900083909781D
:109E00008142F7D1012000E000207047C8220020E5
:109E1000CC22002010B5094A094B12781B68D200E9
:109E20009A18934208D0190008331C00083C247883
:109E30008442F6D14B68984710BDC046C822002026
:109E4000CC220020F8B504000D00FFF7CDFF00285C
:109E50001CD10F4E0F4F3068002807D138780821E9
:109E60000130C0B2387002F023FE06E039780131CB
:109E7000C9B23970C90002F03FFF3B78064A306032
:109E80009B183268DB00D3181C705D60F8BDC046BB
:109E9000CC220020C8220020FFFFFF1FF8B50500DC
:109EA0000A4B2A0018685968094B02241E685F682B
:109EB00001F082F8400004402A003000390001F02F
:109EC0007BF8012318402043F8BDC046D82200206B
:109ED000D0220020F7B504000191FFF7DFFF019BBE
:109EE000984246D01900200000F02CFB214D019B28
:109EF0002E686F682200DB0707D50120002101F0E2
:109F000067F830430200394307E002204042C1179E
:109F100001F05EF83040020039400B002A606B60AF
:109F2000154D019B2E686F6822009B0707D5012005
:109F3000002101F04DF830430200394307E00220D0
:109F40004042C11701F044F83040020039400B0094
:109F500002204042C1172A606B60220001F038F8ED
:109F6000064D2E686F683040394002000B002A60B1
:109F70006B60F7BDD0220020D8220020C022002034
:109F8000F7B5050001910121FFF7A4FF0F4C019BDC
:109F9000266867682A00002B07D00120002101F005
:109FA00017F830430200394307E002204042C1174E
:109FB00001F00EF83040020039400B0028000199F2
:109FC0002260636000F0DCFAF7BDC046C0220020CA
:109FD00070B50500FFF762FF0024022804D02100BD
:109FE0002800FFF777FF0134280000F0DFFA201A7D
:109FF00044426041C0B270BDF8B50500FFF7E8FF0C
:10A00000061E18D10D4C2A002068616800F0D4FFAC
:10A010000123184210D0266867682A0002204042B7
:10A02000C11700F0D5FF3040394002000B00012677
:10A030002260636000E000263000F8BDC0220020EE
:10A04000F8B50500FFF7C4FF002818D00C4C2A0013
:10A050002068616800F0B0FF0123184201D00020A1
:10A060000DE02A00266867680120002100F0B0FF9B
:10A070003043394302000B00012022606360F8BDC9
:10A08000C022002010B50400064B22001868596851
:10A0900000F092FF0121084200D000212000FFF7CC
:10A0A0006FFF10BDC022002010B5012902D9FFF7B3
:10A0B000E9FF01E0FFF764FF10BD70B50D0004007B
:10A0C0000121FFF707FF2900200000F073F970BDA0
:10A0D00010B504000021FFF7FDFE200000F0DCF8C1
:10A0E00080B210BD07B5FFF7F3FF64230093002390
:10A0F000024A190000F068FCC0B20EBDFF03000068
:10A1000003210A4802680A430260094802680A43B8
:10A1100002600849084A094B9B1A03DD043BC858F2
:10A12000D050FBDC00F012F8FEF724F824050040C4
:10A1300054050040B4D1010000200020D8200020A8
:10A14000FEE7FEE7FEE7FEE7FEE7FEE72D4B10B574
:10A150001A78012A19D12C4A1268120715D12B4AF4
:10A16000E0241168F0220800104021420BD1284958
:10A170000968114209D12749274A11608021274ADD
:10A180000902116001E03028F1D01A78012A0DD1BE
:10A190001D490968090709D1F0201C4909680140D7
:10A1A000402903D11A490968014223D01B68DBB258
:10A1B000012B25D1144B1B681B0721D1134B1A68A7
:10A1C000F0231A40A02A04D1114A12681A4203D07F
:10A1D00016E0D02A14D1F7E7114B1A68012A03D1EF
:10A1E000C022104B1A600BE00F4A1A601A68012A4D
:10A1F000FCD1F5E7C1218020C900C0054250D5E758
:10A2000010BDC046E00F00F0E40F00F0E80F00F0D2
:10A21000EC0F00F0DFFF07C004050040186C0040A1
:10A2200000EC064014EC064075930000084A09490A
:10A23000094B10B51B688858FA22190A1B061843E7
:10A240009200002300F00AFF4904C00B084310BD30
:10A250000405000000100140E022002070B5041E3B
:10A2600009D0FFF7E3FF050000F014F8FFF7DEFF69
:10A27000401B8442F8D870BD0022044B9A60044A07
:10A2800013680133DBB213607047C046FC10014015
:10A29000E022002070470000F7B50023202877D87F
:10A2A0003C4B8000C258042A14D006D8022A0DD094
:10A2B0000ED80423012A14D069E0062A0ED00BD34D
:10A2C0001A2A0DD002231B2A0BD060E0082308E0D5
:10A2D000102306E0202304E0402302E0802300E076
:10A2E00001232D4A1268082A04D9092A05D00A2117
:10A2F000022404E00821002401E011000124A0252B
:10A3000001261C272548ED004651254D254E2D6878
:10A310001B02AD003D400195234D2D6800958559E8
:10A32000AC466746214D3D401D4385518359C025AC
:10A330009C46009BAD021D40FF2367461B023B402D
:10A340002B43019D1D43009B5F0160231F402B0099
:10A350003B431C4301238451154C036063680F4841
:10A36000002BFBD00024124B01255C60A123DB00F5
:10A37000C3584560A025ED0044511BB2914207D05F
:10A3800002D98A1AD34003E0521A934000E0002316
:10A390001800FEBD58D001001420002000700040BD
:10A3A0000C2000200405000008200020FF00FFFF13
:10A3B000FC700040F0B520286CD8374B8000C258A4
:10A3C000364B1E68002E2ED1C2243548A4000759F2
:10A3D000344B03253B40C0273F023B4303518023BE
:10A3E000893C9B00FF3C03512F4F03602F4B803C67
:10A3F000D859FF3CA043D8510437D859A84320432B
:10A40000D8510837D8590C35A843083D2843D851AE
:10A41000A820C0001E508026C120760280001E5059
:10A420001C601E4B1C6000231426214834005C4332
:10A43000255804006F1C0FD1142058432250A0202F
:10A440000325C132FF329200C0051550194A080099
:10A450001268082A03D10BE0AA4218D1ECE7082AB7
:10A4600002D9083AD14002E00820821A914008003F
:10A4700014225343E3189A680C495132FF32920078
:10A4800058605050DA68C1239B00CA5002E0013383
:10A49000032BCBD1F0BDC04658D00100E4220020F0
:10A4A00000E100E0FF00FFFF040500000090004015
:10A4B00018200020102000201E4BF0B5596C180009
:10A4C0001D4A002914D0A025A12600230124ED0552
:10A4D000F600D1584F1C06D0D7187F68002F02D045
:10A4E00027008F40AF5114333C2BF2D1002343643B
:10A4F000131DA02540329446002001240F4EED0587
:10A50000DA680F49920057180A495218526C002A0B
:10A510000CD01A1F1268511C05D01968FF2902D0EF
:10A5200021009140A9513A00FC32506414339C45FB
:10A53000E6D1F0BDFC900040182000200C05000082
:10A540000090004000B5202816D80C4A83009B5884
:10A55000032911D8A0220800C133FF33D2059B0084
:10A5600000F0AAFB02080406002104E00C2102E02E
:10A57000042100E00321D15000BDC04658D00100A5
:10A5800020280DD8074B8000C058A0220123D205F7
:10A590008340002901D1044901E0A121C9005350A1
:10A5A0007047C04658D001000C0500000300002091
:10A5B000202B0AD8A222A021D200C9058858034A1C
:10A5C0009B009B58D84001231840704758D0010089
:10A5D000F7B506000D000C008B180193019B671B5B
:10A5E0009C4207D0336821781B68300098470134BB
:10A5F0000028F3D13800FEBD70B505000C00081E20
:10A6000007D002F09DFB2B6802005B682100280048
:10A61000984770BD10B50249FFF7EEFF10BDC04668
:10A62000DCD0010010B540220021040002F0B1FA94
:10A63000002320002364636410BD3F23026C10B527
:10A64000541C2340446C9C4201D08154036410BDCF
:10A650000023036443647047436C026C934206D04A
:10A660003F21C25C01330B404364100001E0012034
:10A6700040427047036C406C181A00D54030704758
:10A68000436C026C934201D0C05C01E00120404267
:10A690007047036C406C5A1C3F231340181A424207
:10A6A0004241D0B270470120704710B503681322B1
:10A6B000DB69984710BD70470369054A9950FC3320
:10A6C0001A6A002AFCD0002201201A627047C04694
:10A6D0001C050000030010B55C331A781F231340DB
:10A6E0000122110099400D4B0424D967C22103694E
:10A6F00089005C505A60DA60A0220021D200995093
:10A700000122074952425A50064914305A500C3916
:10A710005A5008315A50FFF79BFF10BD04E100E08A
:10A720000C0500001405000010B51430FFF7A2FF5F
:10A7300010BD10B51430FFF7A3FF10BD10B51430D5
:10A74000FFF78AFF10BD0000030070B55E331C7870
:10A750000269604BD45003005D331C785E4BD450CB
:10A76000030061331C785D4B012C0CD105005F3573
:10A770002E78A225ED005651050060352E78A125D2
:10A78000ED00565100E00024D4509623DB0099429E
:10A7900038D996231B01994237D996235B019942F8
:10A7A00036D996239B01994234D9E1239B019942E2
:10A7B00032D99623DB01994231D9E123DB01994259
:10A7C0002FD996231B0299422DD9E1231B029942CE
:10A7D0002BD996235B02994229D9E1235B02994246
:10A7E00027D9E1239B02994225D93D4B994224D98F
:10A7F000E123DB02994223D9E1231B03994221D8AB
:10A80000384B21E09E23DB021EE09D231B031BE04F
:10A81000354B19E0354B17E0EC239B0314E0344B28
:10A8200012E0344B10E0344B0EE0344B0CE0344B70
:10A830000AE0344B08E0344B06E08023DB0403E0FD
:10A84000324B01E080235B0531490024535004233F
:10A85000243953501100FC31CC600C62C121013409
:10A86000890014605C309460535003781F202200EC
:10A87000D9B20840824080342648FF345BB202518E
:10A88000002B13DA0F230B40083B234C9B089B0043
:10A890001B1903242140A140FC348C40DD69A543F1
:10A8A000C0248C4021002943D96111E0194C9B0838
:10A8B0009B001B1903242140A140C025FC348C407F
:10A8C000AD005E59A643C0248C402100314359514C
:10A8D000026070BD0C050000140500006C0500004E
:10A8E00090D0030000D0BE0E00B01300005027002F
:10A8F00000A04E0000F0750000509D0000F0EB003D
:10A9000000903A0100E0D70100B0AF0300705F078C
:10A910002405000000E100E000ED00E0F7B5009341
:10A9200008AB1B7800250193FA2304009B00836089
:10A930000E4B45600833036014300F001600FFF71C
:10A9400071FE23005C3327611E70009B084A9B0048
:10A95000995823005D331970019B20009B009A5881
:10A9600023005E33DD701A70FEBDC046F0D00100DA
:10A9700058D00100036910B51A00FC32D2680400F7
:10A98000002A0AD0A322D20099581430C9B2FFF786
:10A9900054FE00222369FC33DA6010BD10B5024872
:10A9A000FFF7E8FF10BDC046E8220020162307B5D8
:10A9B000022200930249013B0248FFF7AFFF07BDA7
:10A9C00000200040E822002010B51C00029B401A25
:10A9D0001B1B5843511A00F003FA001910BD10B5A3
:10A9E0000400006802F0C2F8200010BD10B5040099
:10A9F0000068002801D002F0B9F800232360A360AA
:10AA0000636010BD70B504000D000068013102F0F4
:10AA100073F9031E01D0012028C470BD036810B56E
:10AA20000400002B02D043688B4209D22000FFF7BC
:10AA3000E9FF002805D0A368002B01D1226813701C
:10AA4000012010BD70B50E00110004001500FFF7C5
:10AA5000E5FF002803D12000FFF7C8FF04E0A56050
:10AA60003100206802F064F9200070BD002370B549
:10AA700004000D1E0360436083609D4207D0080000
:10AA800002F05EF9290002002000FFF7DBFF200042
:10AA900070BD10B50B00041E8C4208D00968002957
:10AAA00003D09A68FFF7CEFF01E0FFF79FFF200079
:10AAB00010BD002310B50400036043608360FFF7FE
:10AAC000E8FF200010BD70B504000D1E08D008007E
:10AAD00002F036F9290002002000FFF7B3FF01E081
:10AAE000FFF784FF200070BD10B5002304008AB07A
:10AAF00023606360A360080001A900F06FF801A95A
:10AB00002000FFF7E0FF20000AB010BD10B5FFF7EE
:10AB1000DAFF10BDF8B504000F1E01D1002610E0C9
:10AB20000126002A0DD08368D5182900FFF776FF8B
:10AB30000028F3D02368A2683900981802F0F8F8CA
:10AB4000A5603000F8BD10B58A6809680400FFF7F9
:10AB5000E1FF002802D12000FFF748FF200010BDD0
:10AB600070B504000D1E09D0080002F0E9F82900B4
:10AB700002002000FFF7CEFF002802D12000FFF7DF
:10AB800035FF200070BD826800238A4203D9026825
:10AB90009A4200D0535C1800704710B5FFF7F3FFDE
:10ABA00010BD704710B500F05DF8FFF7FAFF012007
:10ABB000FFF754FBFDF740FCFDF7C4FC024B002BF4
:10ABC000FAD000E000BFF7E70000000010B501F088
:10ABD000C3FF10BD10B501F0C9FF10BDF0B58DB0B9
:10ABE0000E0000920B1E39D0023A0023222A35D8DB
:10ABF000009B0A2B04D1002802DA4442012301E021
:10AC000004000023019303AF3A00002C11D0200070
:10AC1000009900F0E1F820000D00009900F056F8CE
:10AC20000400092D01D8303500E057353D7001375B
:10AC3000EAE703ABBB42EAD001993300002902D016
:10AC40002D21731C317003A98A4204D9013A11786D
:10AC500019700133F7E700221A70330018000DB0A5
:10AC6000F0BD0000C421114A89005058104B034028
:10AC7000C020000203435350802391399B02FF39C7
:10AC8000535013608023A3220021DB05D20099508A
:10AC90000122A1209A60074BC0001950C120023147
:10ACA00080001950403019501A60704700E100E0F0
:10ACB000FF00FFFF0010014002B47146490849003F
:10ACC000095C49008E4402BC7047C046002243081C
:10ACD0008B4274D303098B425FD3030A8B4244D364
:10ACE000030B8B4228D3030C8B420DD3FF220902A6
:10ACF00012BA030C8B4202D31212090265D0030B65
:10AD00008B4219D300E0090AC30B8B4201D3CB035A
:10AD1000C01A5241830B8B4201D38B03C01A52419C
:10AD2000430B8B4201D34B03C01A5241030B8B429E
:10AD300001D30B03C01A5241C30A8B4201D3CB0289
:10AD4000C01A5241830A8B4201D38B02C01A52416E
:10AD5000430A8B4201D34B02C01A5241030A8B4271
:10AD600001D30B02C01A5241CDD2C3098B4201D389
:10AD7000CB01C01A524183098B4201D38B01C01A07
:10AD8000524143098B4201D34B01C01A524103097E
:10AD90008B4201D30B01C01A5241C3088B4201D32D
:10ADA000CB00C01A524183088B4201D38B00C01ADA
:10ADB000524143088B4201D34B00C01A5241411A01
:10ADC00000D20146524110467047FFE701B500200E
:10ADD00000F0F0F802BDC0460029F7D076E77047D2
:10ADE00003460B437FD4002243088B4274D30309EC
:10ADF0008B425FD3030A8B4244D3030B8B4228D38D
:10AE0000030C8B420DD3FF22090212BA030C8B42B2
:10AE100002D31212090265D0030B8B4219D300E052
:10AE2000090AC30B8B4201D3CB03C01A5241830BD7
:10AE30008B4201D38B03C01A5241430B8B4201D387
:10AE40004B03C01A5241030B8B4201D30B03C01AB0
:10AE50005241C30A8B4201D3CB02C01A5241830A2A
:10AE60008B4201D38B02C01A5241430A8B4201D359
:10AE70004B02C01A5241030A8B4201D30B02C01A83
:10AE80005241CDD2C3098B4201D3CB01C01A5241EA
:10AE900083098B4201D38B01C01A524143098B4273
:10AEA00001D34B01C01A524103098B4201D30B015C
:10AEB000C01A5241C3088B4201D3CB00C01A524181
:10AEC00083088B4201D38B00C01A524143088B4246
:10AED00001D34B00C01A5241411A00D201465241DF
:10AEE000104670475DE0CA0F00D04942031000D3FE
:10AEF0004042534000229C4603098B422DD3030A53
:10AF00008B4212D3FC22890112BA030A8B420CD362
:10AF1000890192118B4208D3890192118B4204D38B
:10AF200089013AD0921100E08909C3098B4201D30B
:10AF3000CB01C01A524183098B4201D38B01C01A45
:10AF4000524143098B4201D34B01C01A52410309BC
:10AF50008B4201D30B01C01A5241C3088B4201D36B
:10AF6000CB00C01A524183088B4201D38B00C01A18
:10AF70005241D9D243088B4201D34B00C01A5241EF
:10AF8000411A00D20146634652415B10104601D37C
:10AF90004042002B00D54942704763465B1000D306
:10AFA000404201B5002000F005F802BD0029F8D0AC
:10AFB00016E770477047C046D0400B1CD1409C46F6
:10AFC000203AD34018435242634693401843704797
:10AFD0009140031C90409C46203A934019435242B2
:10AFE0006346D340194370478446081C6146FFE717
:10AFF0001FB500F0E3F8002801D40021C8421FBDAE
:10B0000010B500F06FF84042013010BD10B500F0EF
:10B01000D5F8002801DB002010BD012010BDC0467E
:10B0200010B500F0CBF8002801DD002010BD012094
:10B0300010BDC04610B500F07DF8002801DC0020EE
:10B0400010BD012010BDC04610B500F073F80028F7
:10B0500001DA002010BD012010BDC046F0B54F46FA
:10B060004646C0B41604360C9946330005042C0C31
:10B07000070C150C63437E436F4365431C0CAD19ED
:10B0800064199C46A64203D980235B029846474434
:10B090006346250CEF191D044B464A4343432D0CD0
:10B0A000240464199918C91920000CBC90469946CB
:10B0B000F0BDC0469E2110B5C905041CFFF7C4FFB2
:10B0C000002803D1201C00F043FA10BD9E21201C53
:10B0D000C90500F0B7F800F03BFA80231B069C4638
:10B0E0006044F2E7430270B542004C005D0AC30FB2
:10B0F0004802120E460A240EC90FFF2A0FD0FF2C59
:10B1000011D00120A24200D070BDB542FCD18B42CB
:10B110000DD0002AF8D12800431E9841F4E7012001
:10B12000002DF1D1EBE70120002EEDD1E9E7002061
:10B13000EAE7C0464302F0B542005D0AC30F480289
:10B14000440A4800120E000EC90FFF2A1FD0FF2824
:10B1500022D0002A09D16E426E4100280FD1002C66
:10B160000DD10020002D09D005E0002801D1002CD0
:10B1700001D08B4213D0584201231843F0BD002E5A
:10B18000F7D048424141012049420843F6E7002DEB
:10B19000DDD002204042F1E7002CDAD0F9E782420C
:10B1A000E9DC04DBA542E6D80020A542E6D25842FD
:10B1B000434101205B421843E0E7C0464302F0B53B
:10B1C00042004C005E0AC30F4802120E450A240ECC
:10B1D000C90FFF2A17D0FF2C19D0002A0BD17042BB
:10B1E0007041002C17D0002807D04842414101206F
:10B1F00049420843F0BD002C13D08B4214D0584272
:10B2000001231843F6E70220002EF3D1E3E70220E2
:10B21000002DEFD1E1E7002DE5D10020002EE9D08F
:10B22000EDE7002DE9D1EAE7A242E8DC04DBAE421B
:10B23000E5D80020AE42DDD25842434101205B42B6
:10B240001843D7E7F8B54A024E0043024400240EE3
:10B25000C50F9B09360EC90F9209FF2E00D183E05E
:10B2600001204140A01BA9425CD0002800DC95E0F1
:10B27000002E1CD1002A00D081E05A0704D00F22F2
:10B280001A40042A00D004335A013BD50134FF2C64
:10B2900000D191E001209B015B0AE4B205405B0212
:10B2A000E4055B0AED0723432B431800F8BDFF2C90
:10B2B000E3D08021C9040A431B2800DD90E016007A
:10B2C0002021C640081A8240511E8A4132439B1AEF
:10B2D0005A0115D59B019E09300001F0C3FB0538CA
:10B2E000864084426CDC041B330020200134E340A0
:10B2F000041BA640721E964100243343BDE70D0097
:10B300005A07BCD1DF0801231D40FF2C33D1002F89
:10B3100000D190E08022D20313003B435B025B0A22
:10B32000FF24BCE700284FDD002E2ED0FF2CA4D038
:10B330008025ED042A431B2800DD97E01600202518
:10B34000C640281A8240501E824132439B185A013F
:10B35000D5D50134FF2C6DD001227B481A405B0803
:10B36000034013430D0088E7002A00D07AE777E70F
:10B37000031EC5D100257B025B0AE4B28FE70138CA
:10B380000028A4D0FF2C97D177E7002A00D174E7DA
:10B3900001380028DAD0FF2CCDD16EE7002821D16A
:10B3A000601CC0B2012858DD80279E1AFF04374078
:10B3B0002FD0D61A0D008FE701231D4000236EE722
:10B3C000624B241A334058E7002851D1601CC6B2A2
:10B3D000012E33DDFF282DD09B185B0804004CE7BD
:10B3E000012274E7002C1AD0FF2E1FD08024E40421
:10B3F000404223431B2800DD96E01D002024C54069
:10B40000201A8340581E83412B43D31A34000D0069
:10B410005EE7002E00D05FE700250024ABE7002B9D
:10B4200044D0C0430028F0D0FF2EE3D11300FF2406
:10B430000D0022E70D00FF24002330E7002C5DD132
:10B44000002B7DD0002A00D117E79B185A0100D4A9
:10B4500056E73E4A040013400FE7002C1ED1002B94
:10B460002FD1002A65D013000D0006E701226DE7F9
:10B47000002C1FD1002B59D0C04300280BD0FF2E29
:10B480004FD01B285EDC1D002024C540201A8340BD
:10B49000581E83412B439B18340058E7002B1CD1C6
:10B4A000002A49D013000D00FF24E6E61300340003
:10B4B0000D00E2E6FF2E34D08024E4044042234312
:10B4C000DFE7002A00D1D8E68027981AFF0407405A
:10B4D00000D14DE7D31A0D00CFE6FF24002A00D19A
:10B4E000CBE68020DB08C003034204D0D20802422E
:10B4F00001D113000D00DB00FF24BEE6002B10D0AD
:10B50000FF24002A00D1B8E68020DB08C0030342F4
:10B5100003D0D208024200D11300DB000D00FF244B
:10B52000ABE61300FF24A8E601236EE71300340006
:10B53000A3E6002700251EE780270025FF03E9E694
:10B5400013009AE60123A6E7FFFFFF7DFFFFFFFB45
:10B550004302590A4300C20F1B0E00207E2B0EDD52
:10B560009D2B0DDC802000040143952B0BDC9620E5
:10B57000C31AD9400B005842002A00D11800704766
:10B58000034BD018FBE7963B99400B00F3E7C0460E
:10B59000FFFFFF7F70B5002830D0C317C5185D408E
:10B5A000C40F280001F05EFA9E231B1A962B0DDCB7
:10B5B0009622D21A95406A02520AD8B25202C005A7
:10B5C000520AE40702432243100070BD992B19DC94
:10B5D0009922D21A9540124A2A40690704D00F21B5
:10B5E0000D40042D00D00432510103D50C4B1A40FC
:10B5F0009F231B1A9201520AD8B2DFE700240020D1
:10B600000022DBE705222E00121AB921D6402A00BB
:10B61000C91A8A40551EAA4135001543DBE7C046CA
:10B62000FFFFFFFBF0B556464D4644465F46F0B47B
:10B630001D000E034C00CB0F87B0070092468146D9
:10B64000360B640D98466AD06D4B9C4235D08022F3
:10B65000430F12041343F6001E43C3009946694B7F
:10B6600000279C460023644402932B0368001B0BB5
:10B67000ED0F51469B46400D009500D178E0604BA0
:10B6800098426CD05B46DA004B0F802109040B43D3
:10B6900013439B465346D9005A4B9C4600236044B3
:10B6A0004246201A6A40924601901F430F2F00D94C
:10B6B000B0E05548BF00C0598746374300D088E006
:10B6C000002399460233082700260293CDE743461C
:10B6D000B34649460093029B009A9246022B00D043
:10B6E000BFE1002153460122002689461A40444BFF
:10B6F000002136030C0D2405360B2643434C1B0555
:10B7000026401E437600D20776081643484631008D
:10B7100007B03CBC90469946A246AB46F0BD33000C
:10B7200003434FD0002E00D1BCE1300001F09AF964
:10B7300003000B3B1C2B00DDADE11D220100D31AE1
:10B7400008393A008F408E40DA40B9461643304BF4
:10B7500000279C46002360444442029385E75346F9
:10B760005A4613432CD1002300219B46023397E70E
:10B770000B4320D05B46002B00D19EE1584601F0E0
:10B7800071F903000B3B1C2B00DD8FE102005946D1
:10B79000083A91408B461D21CB1A5146D9400B00E7
:10B7A00059460B4351469B469140194B9C46604479
:10B7B0004042002374E7002300219B4601336FE7DA
:10B7C00003236DE7002399460133042700260293E3
:10B7D0004BE703230C27029347E70122D51A382DA4
:10B7E00000DCB0E153461A400021002300268946C0
:10B7F0007EE700238026994600223603004B77E738
:10B80000FF07000001FCFFFF20D10100FFFF0F80B8
:10B81000F30300005E4500D972E100D16DE1019BA8
:10B820004D46013B01930023340002935B461E0208
:10B830000B0E1E430B020393330C994633041B0C6F
:10B84000494620000093FFF741FA009B370043432D
:10B850000600494620009846FFF7BEFA2C0C090462
:10B860000C43A04509D9E419731EA74200D95CE135
:10B87000A04500D859E1023EE4194346E41A49467E
:10B880002000FFF723FA0300009A804653434946FD
:10B8900020009B46FFF7A0FA2A040904120C0A4371
:10B8A00093450DD94346D219013B974200D93AE15D
:10B8B000934500D837E102235B429C46D219E0440D
:10B8C0005B46D21A4346360433439B460399180C11
:10B8D0000B0C1D00059309045B46090C0C001B04AE
:10B8E0001B0C4443049159436B4368431B190D0CD3
:10B8F000EB189C4203D980246402A44660441C0CCB
:10B9000009041B04090C20185D18824200D2DEE0F5
:10B9100000D1D7E0161A029B9C465D1BAC459B41AB
:10B920005B42F61AB74200D106E149463000FFF704
:10B93000CDF9009B04004343494630009846FFF789
:10B940004BFA2E0C09040E43B04509D9F619631EB3
:10B95000B74200D9F3E0B04500D8F0E0023CF61958
:10B960004346F31A494618000293FFF7AFF9009BCC
:10B9700006004343494602989846FFF72DFA2D04E6
:10B9800009042D0C0D43A84509D9ED19731EAF42CA
:10B9900000D9D6E0A84500D8D3E0023EED19240432
:10B9A000210043463143049E059A3000ED1A0B04F2
:10B9B0000C0C1B0C58436643534354439A19030C15
:10B9C0009B189E4203D980225202944664441A0C6A
:10B9D00000041B04000C14191B18A54250D34DD0B1
:10B9E00001231943964A019B94466344002B00DCD3
:10B9F000F3E64A0709D00F220A40042A05D00A1D9F
:10BA00008A42894149428B4411005A46D20108D5E5
:10BA10005A468C4B1A4093468022D2009446019B92
:10BA20006344894A934200DD5BE65A46C9085007E1
:10BA300008435602514601225B058146360B5B0DD9
:10BA40000A4055E680231B031E4211D05A461A4273
:10BA50000ED15E461E433603360B2A0089467B4BC9
:10BA600046E6032B00D1E1E0012BBBD11A40BBE637
:10BA70001E433603360B4246744B39E6002BB1D0D9
:10BA80007D194A1EAF4252D91100A542A8D1039A8E
:10BA90009A42A5D1A6E703003E00283B9E40002322
:10BAA000994654E600F0DEFF203041E6030052469E
:10BAB000283B9A400021934677E6504600F0D2FF9B
:10BAC00020305EE6029B0026AB4200D323E7039EB4
:10BAD0000299B44661448846B045B6415B46764219
:10BAE000F619B218013B0291974213D290424FD8F7
:10BAF00000D18EE0161A9B460DE7894500D28EE6EE
:10BB000074084B46F60735005B081D434B46DB07C0
:10BB100002938BE69742EDD10399029CA142E5D9AD
:10BB20003E1A9B46F7E69846CAE61E00A5E6AC42DA
:10BB30003ED874D0110053E70121494252E71C005E
:10BB40000EE71E002BE71F2D3CDC20230A00584681
:10BB50005B1B9840EA4099400243481E81415E4683
:10BB60001143EE404B0709D00F230B40042B05D0A7
:10BB70000B00191D99429B415B42F61833023CD5DC
:10BB80005346012200211A40002601238946AFE5D1
:10BB900002235B429C46039CE344A446029B63440D
:10BBA0009846A045B6417642F6190293B218B1E61E
:10BBB00003988A1E41008142B6417642F619AD19BA
:10BBC000039161E71F225242D31A5A46DA4013000A
:10BBD000202D29D040225846551BA8400143481E1D
:10BBE000814107200B4318400026002809D00F226E
:10BBF00000261A401900042ABBD10B0070077602F8
:10BC0000360BDB0803439946012253461A400023B2
:10BC10006EE502998D42BBD89B4600267BE60398D1
:10BC20009842C5D3110032E70020D7E780265B4653
:10BC300036031E433603360B009A8946034B57E5FD
:10BC4000FF030000FFFFFFFEFE070000FF070000EC
:10BC5000F0B55F4656464D464446F0B40D0399464E
:10BC60004E002B0B87B00700924680469B46760D10
:10BC7000CC0F002E69D06D4B9E4235D05B468022A2
:10BC8000DD001204430F13432B439B46C300984629
:10BC9000674B00279C460023664401934A461503E0
:10BCA0005000D20F53462D0B400D914600D176E047
:10BCB0005E4A90426CD080225B0F120413435C4AB0
:10BCC000ED0094461D4353460022DB006044494684
:10BCD0003618701C6140029017430F2F00D9AFE057
:10BCE0005448BF00C759BF465B461F4300D088E099
:10BCF00000239B469846023308270193CEE7494626
:10BD0000022A6AD0032A00D109E2012A00D0BBE14D
:10BD100011400022002300259046CCB200212D03C3
:10BD20000A0D12052D0B1543434A1B0515401D43F3
:10BD30006D00E4076D0825434046290007B03CBC70
:10BD400090469946A246AB46F0BD034352D05B46AF
:10BD5000002B00D18AE1584600F084FE03000B3B23
:10BD60001C2B00DD7BE11D22D31A3A0001005D4649
:10BD7000DA4008398D4013008F402B439B46B8466C
:10BD80002E4B00279C46002360444642019385E7E2
:10BD900052462A432CD100250023022297E752461F
:10BDA0002A4321D0002D00D154E1280000F05AFE92
:10BDB00003000B3B1C2B00DD46E11D21CB1A514635
:10BDC0000200D9405346083A954093400D431B4A20
:10BDD000944660444042002279E7012400220C404E
:10BDE000124B0025904699E70025002301226EE7BB
:10BDF00003226CE700239B469846013304270193F6
:10BE00004CE703230C27019348E70023802598463D
:10BE100000242D03054B81E75D464346019A6FE7F9
:10BE20005D4643462100019A6AE7C046FF070000CD
:10BE300001FCFFFF60D10100FFFF0F80F303000052
:10BE40004246120C91461A0C9446424617044A4642
:10BE50001B041B0C5A43604690464A46424310005E
:10BE6000039262461C003F0C7A437C434244019299
:10BE7000220C9246019A5244904506D9824680206F
:10BE800040028046C24450460390100C049048463D
:10BE90002404240C1204121905922A0C2D042D0CD2
:10BEA00068432C00824648467C4350438146200C20
:10BEB0008046574357444744BA4503D9802040023F
:10BEC0008046C144380C3F04B84648442404240C3E
:10BED00001900498A044404404905846000C8146C8
:10BEE00058460404200C8246070048465F434C46EF
:10BEF0004343604660436446834650464443380C9F
:10BF00008446E4186444A34203D980235B029C4620
:10BF1000E34448463F04230C3F0C2404E4195746ED
:10BF200068436F4384464D46504655434243380C60
:10BF3000814662444A445B44944503D980204002D0
:10BF40008446654403983F04834604983F0C844626
:10BF5000E344C34580414042824610048446019830
:10BF6000674484466744A344BC46A345A44199461C
:10BF7000D44464428742BF41D4458041E144A04655
:10BF800099459B417F424042C8440743120CBA186E
:10BF9000A045A4415F423B0064422343D718434677
:10BFA0007D19DB0D6D021D435B465A02059B1A434A
:10BFB000531E9A415B46DB0D1A4343465B02134313
:10BFC000EA0107D501225C0813402343EA07029ED9
:10BFD00013436D08574AB218002A4BDD580709D0A1
:10BFE0000F201840042805D0181D98429B415B4241
:10BFF000ED180300E80104D54F4A15408022D20015
:10C00000B2184E48824200DDE7E60124DB086807EB
:10C0100018436D02530580462D0B5B0D0C407DE6E9
:10C02000802259461203114208D0154206D1154309
:10C030002D0398462D0B4C46414B6FE65D4615434C
:10C040002D032D0B3E4B69E603005546283B9D40D2
:10C050000023BCE6504600F005FD2030A8E60300B2
:10C06000283B9F400023BB46984689E600F0FAFC37
:10C07000203073E60124A61A382E07DD00220C407A
:10C0800000230025904649E6029EA3E71F2E20DCF0
:10C0900020222C001800921BF0409440934004434F
:10C0A000581E83411C43F540630709D00F232340EA
:10C0B000042B05D023001C1D9C4292415242AD1816
:10C0C0002B021FD5012400220C400123002590469D
:10C0D00024E61F202C004042821AD440202E1CD07F
:10C0E0004022961BB5402B43581E83410720234313
:10C0F00018400025002809D00F2200251A401C00F6
:10C10000042AD8D1230068076D022D0B0124DB0817
:10C11000034398460C40002300E60025E3E7802215
:10C120000124120315432D0398462D0B0C40044B9C
:10C13000F4E5C046FF030000FFFFFFFEFE0700001E
:10C14000FF070000F0B557464E464546E0B40E00E6
:10C150001100F20F9246C500420F18033703740016
:10C16000400A4E0F7F0A3043CF4E17435A00640DEA
:10C17000520DDB0FC900B24200D1E5E00126734049
:10C18000A61AB446534500D1AFE0002E00DC0DE105
:10C19000002A3AD103000B4300D0E4E06B0709D03A
:10C1A0000F232B40042B05D02B1DAB42AD416D421C
:10C1B0007F191D003B0200D488E0BB4B01349C4238
:10C1C00000D110E13A00B94B51461A400123500703
:10C1D000ED08520264050543120B640D0B4000216B
:10C1E000280012030D0D120B64052D05154362087E
:10C1F000AF4CDB072C401443640064081C4321004F
:10C200001CBC90469946A246F0BDA74B9C42C5D0A7
:10C2100080231B0418436346382B00DDFDE01F2BF1
:10C2200000DD30E1624620239B1A02009A406646F8
:10C2300090460A009940F24046464B1E99413243CF
:10C24000114363460200DA40691A8D429B410D009A
:10C25000BA1A5B42D71A3B0235D57A02530A98467E
:10C260004346002B00D1C4E0404600F0FBFB030036
:10C27000083B1F2B00DDC5E020222900D21A4746CB
:10C28000D1409F400A009D403A439C4200DDC0E0FF
:10C290001C1B631C1F2B00DDE4E020211400280080
:10C2A000C91AD8408C408D400443DA40681E85414D
:10C2B00017002543002471E7424663461A4300D124
:10C2C0004CE2674645466B0700D069E701235146BB
:10C2D0007807ED08FA080B40054373498C4238D0C3
:10C2E00012036405120B640D79E7002E00DC9AE05E
:10C2F000002A47D06C4A944200D14FE780221204B2
:10C3000010436246382A00DC08E10143481E81419F
:10C310000022C9B24919D219A942BF410D007F427A
:10C32000BF183A0200D442E15F4A0134944200D17E
:10C330004EE101205D4A69083A4028400843D5078C
:10C34000054357089A4629E706000E4300D017E731
:10C3500014E72900114300D1F9E1802109030A43C0
:10C360001203120B3BE701235B429846C444634629
:10C37000002B72D1691A8D429B413F1A5B42FF1A12
:10C380000D0068E702000A4300D107E7012252428C
:10C390009046C4446246002A00D0E6E06918A942EB
:10C3A000B6413F187642F7190D00BAE7002E00D0CB
:10C3B00080E0621C5205520D012A00DCF9E06A1A85
:10C3C00091464D45B6413A1A7642921B904612026A
:10C3D00000D499E04D1BA9428941C71B49427A1AF2
:10C3E00090469A463CE7524601230025134000221E
:10C3F000F5E6280000F036FB20300300083B1F2B39
:10C4000000DC39E72A002838824000259C4200DC05
:10C410003EE7264FE41A1740C0E60143481E81411B
:10C420000022C9B210E7002E00D0F1E0621C944651
:10C430005205520D012A00DCA0E01B4A944500D1B0
:10C44000C5E06918A94292413F185242D2194908E1
:10C45000D5070D4357086446A0E6134B9C4200D015
:10C46000D9E69BE611001F3CE1400C00202B00D1D7
:10C4700080E04021CB1A9A4015436A1E954100275F
:10C48000254300241FE763460200203BDA40634651
:10C49000202B71D0402366469B1B98400143481EC9
:10C4A000814111430022CFE6FF070000FFFF7FFF1D
:10C4B000FFFF0F80002C48D0CA4CA24200D1A2E05E
:10C4C0007442A1468024240427434C46382C00DDC6
:10C4D000DBE01F2C00DD44E14E462024A41B3E007F
:10C4E000A640A246B0464C462E00E640B44646461C
:10C4F000644626435446A5406C1EA54134002C4397
:10C500004D46EF400D1B28E04A4643464D461A4330
:10C5100000D0A5E6002300240025DEE61F2A5ADC11
:10C5200066462022921B060096409146B04662461F
:10C530000E00D640424616434A4691404A1E91415B
:10C54000020060463143C240E4E63C002C435AD02E
:10C55000F443A146002C52D14D1BA9428941C71B6F
:10C5600049427F1A14009A4675E69E4A944200D0CA
:10C57000C7E613E600227FE700208FE7002C00D0FB
:10C58000C8E03B002B4300D10FE103000B4300D177
:10C5900004E66918A9429B413F185B42DF193B0240
:10C5A00000D41AE1904B0D001F406446F6E59A4610
:10C5B00089E63A002A43002C5CD1002A75D102009A
:10C5C0000A4300D1CAE007000D009A46E6E564463A
:10C5D0000022002581E662460600203AD6406246E7
:10C5E000B046202A00D1B7E040226646921B904018
:10C5F00001434246481E8141114300228AE6794C9C
:10C60000A24200D061E707000D0014009A46C5E57C
:10C61000002C41D13C002C4378D0F443A146002C9F
:10C6200020D0704CA24271D04C46382C00DDB2E0D4
:10C630001F2C00DDBCE02026341BA2463C005646E1
:10C64000B4404E46A0462C00F440A44644466646FC
:10C650003443A4465446A54064466E1EB541254366
:10C660004C46E7406D188D4289413F184942CF1929
:10C67000140056E6002A2FD102000A4300D184E0BC
:10C6800007000D009A46574C88E53D436F1EBD419B
:10C69000ECB200270D1B60E7524CA24236D0744228
:10C6A00080263604A1463743BEE702000A4300D184
:10C6B00074E56A1A90464545B6413A1A7642921B8D
:10C6C0009446120200D4F7E54D1BA9428941C71BCD
:10C6D00049427F1A9A4661E502000A433AD0ED08C2
:10C6E0007C072C438025FA082D032A4208D0C7086E
:10C6F0002F4205D145072C003A009A46C9080C4341
:10C70000670FD200E5001743364C47E507000D00E0
:10C71000140043E53A002A4343D002000A4319D0EB
:10C72000ED087C072C438025FA082D032A4207D008
:10C73000C6082E4204D147073C003200C9080C430A
:10C74000D700620FE50017439A46264C26E50022E3
:10C75000002544E5234C21E5002049E7002300257E
:10C76000BBE54C463E00203CE6404C46B446202CFF
:10C7700031D040244E46A61BB7403D436C1EA54118
:10C7800064462C4300270D1BE7E68022002312039A
:10C79000144C0025A1E53D436F1EBD410027EDB2BD
:10C7A00060E707000D000F4CF8E407000D00F5E40A
:10C7B0004E463C00203EF440A0464C46202C0ED075
:10C7C00040244E46A41BA7403D436F1EBD41444636
:10C7D0000027254346E70027CFE70D0073E5002734
:10C7E000F2E7C046FF070000FFFF7FFF0B0330B5F5
:10C7F000134D1A0B4B005B0DC90F0024AB4211DD2A
:10C80000104CA34210DC8024640322430E4CE41A33
:10C810001F2C0CDD0D48C31ADA4013005C420029BE
:10C8200000D11C00200030BD094BCC18FAE7E040D5
:10C83000084CA44663449A4013000343EEE7C04605
:10C84000FE0300001D040000330400001304000078
:10C85000FFFFFF7FEDFBFFFF70B5002830D0C3174F
:10C86000C4185C40C50F200000F0FCF8174B184AB4
:10C870001B1AD21A1F2A18DD164AD21A9440002217
:10C8800024035B05240B5B0D0021100024030A0D1B
:10C890001205240B1443104A1B0514401C4364006A
:10C8A000ED0764082C43210070BD210091400A006F
:10C8B0000B21081AC4405B052403240B5B0DE3E73E
:10C8C0000025002300240022DEE7C0461E040000ED
:10C8D0003304000013040000FFFF0F8070B5051E35
:10C8E00028D000F0BFF8154B154A1B1AD21A1F2A80
:10C8F00016DD2C00134A0025D21A94405A05240351
:10C90000240B520D002124030B0D240B1B05234384
:10C910000D4C1205234013435B002800590870BDDD
:10C920000B212C00081AC440954024035A05240BFF
:10C93000520DE7E700220024E4E7C0461E04000091
:10C940003304000013040000FFFF0F804B0070B59C
:10C950005E0D0C03751C640A420F6D052243C90F5E
:10C96000C4006D0D012D2ADD3B4BF318FE2B1ADCA4
:10C97000002B42DD8001451EA841D2001043620F0A
:10C980000243500704D00F201040042800D0043286
:10C990008020C004104021D00133FF2B03D092012E
:10C9A000520ADBB201E0FF2300225202520ADB05E9
:10C9B00013435B00C9075B080B43180070BD002ED2
:10C9C00007D01443EFD08020D20080040243FF231D
:10C9D000D7E722430023002A03D00522D208FF2BE9
:10C9E00003D05202520ADBB2DFE7002A32D08020A5
:10C9F000C00302435202520AD7E71800173014DB73
:10CA00008020000402431E20C01A1F280FDC2500CE
:10CA1000124BF3189D406E1EB5419A402B001343F4
:10CA20002200C2401A430023ABE70023D5E70225CA
:10CA30006D42EB1A1500DD40202809D0084BF31891
:10CA40009A401443621E9441220000232A4398E72F
:10CA50000022F6E70022A8E780FCFFFF82FCFFFF30
:10CA6000A2FCFFFF1C2101231B04984201D3000CF0
:10CA700010391B0A984201D3000A08391B09984251
:10CA800001D30009043902A2105C40187047C04667
:10CA90000403020201010101000000000000000087
:10CAA0000B0010B50100180000F00CF810BD0000DC
:10CAB00010B5034B0A000100186800F072F810BDB1
:10CAC000B420002070B5054C05001300201E04D0D2
:10CAD0000A000220290000E000BF70BD0000000035
:10CAE000084B10B50400002B02D0002100E000BF6D
:10CAF000054B1868836A002B00D09847200000F08F
:10CB000065F9C04600000000A4D101000E4B70B5CD
:10CB100000251E000D4CE41AA410A54204D0AB0061
:10CB2000F35898470135F8E700F052F9084B002513
:10CB30001E00084CE41AA410A54204D0AB00F35820
:10CB400098470135F8E770BDB8200020B8200020D4
:10CB5000B8200020D020002010B5034B0100186839
:10CB600000F074F810BDC046B420002010B5034B8F
:10CB70000100186800F024F810BDC046B420002061
:10CB8000002310B59A4203D0CC5CC4540133F9E7BA
:10CB900010BD03008218934202D019700133FAE7E6
:10CBA00070474A4370B51100140000F04FF8051E9D
:10CBB00003D022000021FFF7ECFF280070BD000029
:10CBC00030B500293ED004390B68002B00DAC918B3
:10CBD0001D4A13681400002B02D14B60116031E034
:10CBE0008B420DD90A688818834203D118685B68A4
:10CBF00082180A604B60216024E08A4203D8130047
:10CC00005A68002AF9D11D685C198C420BD1096859
:10CC1000691858181960824214D110685268411876
:10CC200019605A600EE08C4202D90C23036009E0BF
:10CC300008680C18A24203D11468526820180860D2
:10CC40004A60596030BDC04650230020032370B5B0
:10CC5000CD1C9D43083506000C2D01D20C2505E0A6
:10CC6000002D03DA0C230020336040E0A942F9D8FC
:10CC70001F4B1C681A002100002913D00B685B1B96
:10CC80000DD40B2B02D90B60CC181EE08C4202D1C4
:10CC9000636813601AE04B6863600C0016E00C00D8
:10CCA0004968E9E7134C2368002B03D1300000F0FA
:10CCB0002DF820602900300000F028F8431CD1D066
:10CCC0000323C41C9C43A0420AD1256020000722F4
:10CCD0000B30231D9043C31A09D05A42E25006E09C
:10CCE000211A300000F012F8431CEED1BAE770BDF3
:10CCF000502300204C23002010B5034B0A000100F4
:10CD0000186800F024F810BDB4200020002370B58E
:10CD1000064C05000800236000F04AF8431C03D1CC
:10CD20002368002B00D02B6070BDC0465823002024
:10CD3000031C0A7801311A700133002AF9D17047B7
:10CD40000023C25C0133002AFBD1581E7047F8B59E
:10CD500006000C001500002904D11100FFF776FF32
:10CD6000040018E0002A03D1FFF72AFF2C0012E08C
:10CD700000F013F885420ED929003000FFF766FF56
:10CD8000071E07D021002A00FFF7FAFE210030001D
:10CD9000FFF716FF3C002000F8BD0B1F1A68101F9C
:10CDA000002A04DA891804390B68D018043870474F
:10CDB000044A1368002B03D018181060180070473D
:10CDC000014BF9E75423002060230020FEE7C04612
:10CDD000F8B5C046F8BC08BC9E467047F8B5C046DA
:10CDE000F8BC08BC9E46704730302E30302E3030B4
:10CDF00030000000000000000000000093890100E6
:10CE0000598901007F89010089890100B9890100E0
:10CE10007D89010003040A17181909070600000399
:10CE200001010004010200030204020502060207D8
:10CE300002010108000201080200010700060005C6
:10CE400000040003000202060100020501010200C5
:10CE500000000000001700000000030003000A1F8C
:10CE60000A1F0A0A17151D0A13090412190A1515B3
:10CE70000A100003000000000E11000000110E0057
:10CE800000000A040A0000040E040000100800005C
:10CE90000004040400000800000010080402010E51
:10CEA00011110E0000121F100019151512000911A2
:10CEB000150B000C0A091F0817151515090814167B
:10CEC000150811090503010A1515150A02150D05A6
:10CED00002000A00000000100A000000040A11000D
:10CEE000000A0A0A0000110A040002011505020ED8
:10CEF0001115090E1E05051E001F15150A000E113D
:10CF00001111001F11110E001F151511001F05052D
:10CF100001000E1111150C1F04041F00111F110038
:10CF2000000911110F011F040A11001F1010100039
:10CF30001F0204021F1F0204081F0E11110E001F02
:10CF40000505020006091916001F05050A1012152D
:10CF500015090001011F01010F10100F0007081033
:10CF600008071F0804081F1B04041B0001021C0201
:10CF7000011915131100001F1111000102040810FE
:10CF80000011111F0000020102001010101010000B
:10CF9000010200000C12121E101F141408000C12C3
:10CFA0001212000814141F000E15151200041E059D
:10CFB00001000215150F001F04041800001D0000D9
:10CFC000000010100D001F040A1000000F101000C8
:10CFD0001E0204021E1E02021C000C12120C001E75
:10CFE0000A0A0400040A0A1E001C020202001014AD
:10CFF0000A0200000F1414100E10101E1006081064
:10D0000008061E1008101E120C0C12001214080440
:10D0100002121A16120000041F1100001F00000067
:10D02000111F0400000004040808000000000003B1
:10D03000040A17181909070620001A1B1C040810F7
:10D040002040800000000000000000000000000000
:10D0500000000000000001020300000002000000C8
:10D0600001000000040000000500000011000000A5
:10D070000C0000000B000000120000000A0000007D
:10D08000060000001A000000140000001700000055
:10D09000160000001500000010000000FFFFFFFF59
:10D0A000FFFFFFFF000000001E000000190000004D
:10D0B0001800000007000000080000000900000040
:10D0C0000D0000000E0000000F0000001C0000001A
:10D0D0001B0000001D000000130000000D0A006E80
:10D0E000616E00696E66006F7666002E00000000BB
:10D0F0000000000000000000B9A60100D1A5010059
:10D1000029A701003DA7010033A70100B7A6010030
:10D11000ABA6010049A70100D5A60100A7A6010002
:10D1200014B80100E2B60100E8B70100D8B601006A
:10D13000E8B70100F2B70100E8B70100D8B6010076
:10D14000E2B60100E2B60100F2B70100D8B6010074
:10D15000CEB60100CEB60100CEB6010044BA010041
:10D1600040BE010000BD010000BD0100FEBC010089
:10D1700018BE010018BE01000ABE0100FEBC01007D
:10D1800018BE01000ABE010018BE0100FEBC01006D
:10D1900020BE010020BE010020BE010020C0010011
:0CD1A000430000005420002000000000AC
:08D1AC00C8AFFF7F0100000085
:10D1B400000000006464000003000000020000009E
:10D1C400080000000A000000FFFFFFFF000000004D
:10D1D400010000000000020001000000FFFFFFFF4B
:10D1E4000000000002000000000004000200000033
:10D1F400FFFFFFFF00000000030000000000080024
:10D204000300000000000000000000000000000017
:10D21400000000000000000000000000000000000A
:10D2240000000000A0D10100000000000000000088
:10D2340000000000000000000000000000000000EA
:10D2440000000000000000000000000000000000DA
:10D2540000000000000000000000000000000000CA
:10D2640000000000542000203981010015860100CF
:10D274000D8C0100359901004D9D0100ADA90100FF
:08D284000D8101000000000013
:040000031000A10147
:00000001FF
