:020000021000EC
:1080000000400020359F0100759F0100779F01000F
:108010000000000000000000000000000000000060
:10802000000000000000000000000000799F010037
:1080300000000000000000007B9F01007D9F010008
:108040007F9F01007F9F0100D1A701007F9F01005A
:108050007F9F010000000000F58F01007F9F01005D
:108060007F9F0100EDA20100AD9301007F9F010001
:108070007F9F01007F9F01007F9F01007F9F010084
:108080007F9F0100ADA001007F9F01007F9F010045
:108090007F9F01007F9F01007F9F01007F9F010064
:1080A0007F9F01007F9F0100000000000000000092
:1080B00000000000000000000000000000000000C0
:1080C000054B0648033310B51B1A062B03D9044B86
:1080D000002B00D0984710BDD8200020D8200020C9
:1080E000000000000648074910B5091A8910CB0F97
:1080F0005918491003D0044B002B00D0984710BDED
:10810000D8200020D82000200000000010B5074C27
:108110002378002B09D1FFF7D3FF054B002B02D0AA
:10812000044800E000BF0123237010BDD8200020C8
:108130000000000028D00100094B10B5002B03D02F
:108140000849094800E000BF08480368002B02D135
:10815000FFF7C8FF10BD064B002BF9D09847F7E793
:1081600000000000DC20002028D00100D4200020E6
:1081700000000000164B002B00D1144B9D464022FE
:1081800092029A1A924600218B460F461348144ACF
:10819000121A04F03EFC0F4B002B00D098470E4BF8
:1081A000002B00D098470020002104000D000D484E
:1081B000002802D00C4800E000BF04F0E7FB2000DC
:1081C000290002F009FC04F0CBFBC04600000800C7
:1081D000004000200000000000000000D820002027
:1081E00048230020000000000000000010B50A2015
:1081F00000F01EFB10BD10B50B2000F019FB10BDE8
:1082000010B50C2000F014FB10BD10B50D2000F0CF
:108210000FFB10BD10B5162000F00AFB10BD10B505
:10822000172000F005FB10BD10B5182000F000FB72
:1082300010BD10B5192000F0FBFA10BD10B5652077
:1082400000F0F6FA10BD10B5662000F0F1FA10BD8E
:1082500010B5672000F0ECFA10BD10B5682000F0F2
:10826000E7FA10BD10B56A2000F0E2FA10BD10B5B3
:10827000692000F0DDFA10BD10B56B2000F0D8FACF
:1082800010BD10B56C2000F0D3FA10BD10B56D20F4
:1082900000F0CEFA10BD10B56E2000F0C9FA10BD86
:1082A00030B585B0222812D11C3800F061F90400E5
:1082B000082000F05DF90200002C04DD2100002000
:1082C00001F0BCFA7DE0002001F008FB79E06428B1
:1082D00006D105215E3800F07FF901F0B5F870E0B5
:1082E000652802D101F0A8F86BE0662807D1603854
:1082F00000F04CF903F02EF801F096F861E06728E1
:1083000007D1613800F042F902F0D6FD01F0F8F82B
:1083100057E0682811D1623800F024F901000720E5
:1083200000F046F9010001A802F0BAFA01A801F034
:10833000A9F801A802F06DFA43E069280BD163386F
:1083400000F010F90400072000F00CF901002000F3
:1083500001F0CCF835E06A280BD1643800F002F95E
:108360000400072000F0FEF80100200001F0F8F8FA
:1083700027E06C280BD1663800F0F4F804000720E1
:1083800000F0F0F80100200001F0F4F819E06D2889
:1083900012D1673800F0E6F80400072000F0E2F898
:1083A0000500082000F0DEF8421E90412900C2B20C
:1083B000200001F089F804E000236B2802D101F0CD
:1083C00071F80123180005B030BD10B5031E782BDD
:1083D00002D101F08FFA03E0792806D101F02CFBDD
:1083E00004F0BCF900F008FA23E07D280AD1062049
:1083F00000F0B8F8002802D100F0C6FE17E000F047
:10840000DDFE14E000207E2B14D1063000F0AAF827
:10841000041E02D100F0ECFE09E0012805D100F0B5
:10842000FFFE00F025F9200004E000F011FF00F04D
:108430001FF9012010BD000010B500F089FA2D4988
:108440002D4800F0DDF800F0E5FF2C490A2000F08F
:1084500017FF2B490B2000F013FF2A490C2000F0D6
:108460000FFF29490D2000F00BFF2849162000F0CE
:1084700007FF2749172000F003FF2649182000F0C6
:10848000FFFE2549192000F0FBFE2449652000F07D
:10849000F7FE2349662000F0F3FE2249672000F032
:1084A000EFFE2149682000F0EBFE2049692000F032
:1084B000E7FE1F496A2000F0E3FE1E496B2000F032
:1084C000DFFE1D496C2000F0DBFE1C496D2000F032
:1084D000D7FE1B496E2000F0D3FEFA21322249005C
:1084E000002001F0ABF9322001F0D2FD002001F0B4
:1084F000F5F910BDCB830100A1820100ED810100DF
:10850000F7810100018201000B8201001582010048
:108510001F82010029820100338201003D82010097
:1085200047820100518201005B8201006F820100DD
:108530006582010079820100838201008D82010041
:108540009782010010B500F09FFD01F067F800F080
:1085500097F910BD10B5024801F076FF10BDC04676
:10856000D4220020014B185C7047C0461521002022
:10857000044A054B115C1018427819705A7000209B
:10858000185E7047152100205A210020064A074B2B
:10859000115C1018427819705A7082789A70C278FB
:1085A000DA7018687047C04615210020802100202D
:1085B000002330B5064A074D8B4204DA2C18E45CE0
:1085C000D4540133F8E700231000535430BDC046A3
:1085D0006C2100201521002070B500230500064AFB
:1085E000064E10008B4206DA102B04D07419E45C9E
:1085F000D4540133F5E770BD492100201521002036
:10860000024B1860024B19607047C0466821002079
:108610008421002010B5054C0549200002F040F9E6
:10862000044A0549200004F07BF910BD0421002014
:1086300068CC01000020002013A8010010B5010043
:10864000014801F053FF10BDD422002010B5FF20D7
:10865000FFF7F4FF5520FFF7F1FF10BD10B5FF2025
:10866000FFF7ECFF5520FFF7E9FFFFF773FF10BDA1
:1086700010B504000120FFF7E1FF2000FFF7DEFF47
:1086800010BD70B5866805000420FFF7D7FFF0B273
:10869000FFF7D4FF0024B44207DA2100280002F0DB
:1086A00096F9FFF7CBFF0134F5E770BD70B5051CF7
:1086B0000220FFF7C3FF074C25602078FFF7BEFFBD
:1086C0006078FFF7BBFFA078FFF7B8FFE078FFF70F
:1086D000B5FF70BD802100207FB500223D4B3E4D8F
:1086E0001A70EE783D4B1E7028796C79964200D155
:1086F0002600013804286BD802F0F8F903316A68C3
:108700006800FFF7A3FFF0B2FFF798FF322C05D106
:10871000334B1868596804F059F81BE0314B2000BE
:108720001B689847011E17D1AD791E2C0AD01F2C4B
:1087300012D1280001F020FE280001F0C7FC02F051
:1087400073FE07E0280001F017FE280001F048FE44
:1087500002F022FEFFF7AAFFFFF7FCFE38E0002C34
:108760000AD1214901A802F0BEF801A8FFF789FF4C
:1087700001A802F04EF829E0322C0BD101F070FC78
:1087800003F0ECFF194B002202F08CFE184B18602E
:1087900059601BE0174B20001B689847002815D133
:1087A000AE791E2C0AD0202C10D13000012101F00E
:1087B000E3FDE979300001F017FD07E00121300009
:1087C00001F0DAFDE979300001F0F4FDFFF746FF32
:1087D0007FBDC0460021002015210020142100206B
:1087E000F8200020842100200421002000408F4038
:1087F0006021002068210020D0B506000F00032072
:10880000FFF71CFF3900300003F030FF074C2080D9
:10881000C0B2FFF713FF6078FFF710FFA078FFF7F3
:108820000DFFE078FFF70AFFD0BDC0465A210020B7
:1088300010B50400FFF70AFF8020FFF7FFFE0120BC
:10884000FFF716FF2000FFF713FFFFF783FE10BDB1
:10885000002370B5074C084D20002B7001F07EFE00
:10886000002806DD012320002B7001F081FE034B60
:10887000187070BDD4220020F420002011210020A7
:1088800070B501F0EDFB03F069FF0022264B02F00A
:1088900009FE264B1A685B6803F094FB244B1860B2
:1088A0005960FFF7D5FF234B1B78002B3AD0224BA2
:1088B00022491A78224C234B552A09D118780028CE
:1088C00006D10A78FF2A15D1FE3A22701A7011E0FB
:1088D0000A70197800290DD02178022902D11A488E
:1088E000027005E0022903D9174D28780138287055
:1088F0001648425422780132D2B2332A01D822706B
:1089000002E0002222701A701A78002A0AD00E4A59
:108910001578002D06D12278032A03D91D70FFF7A0
:10892000DBFE257070BDC04600408F4060210020F6
:10893000F8200020F4200020112100201021002028
:1089400012210020002100201321002015210020E9
:10895000E12110B54902024801F0C1FD10BDC04639
:10896000D4220020F8B505000E0017000024BC42F8
:1089700008D02B68315D1B6828009847002801D07B
:108980000134F4E72000F8BD704710B51C3001F049
:108990008BFD10BD10B51C3001F078FD10BD70B519
:1089A000437E0D00002B05D06430040001F08BFDE8
:1089B000002801D0002004E02000290001F057FD2C
:1089C000012070BD10B51C3001F074FD10BD000019
:1089D000F7B50193FA23002504009B0083600D4B3B
:1089E0004560083303601C300F00160001F034FDB1
:1089F0002000643001F030FD074AB600B35827610B
:108A00006375019B20009B009B586576A576A37536
:108A1000FEBDC04674CC0100D8CE01000123A022C7
:108A2000C375837D0C49C133FF33D2059B00995038
:108A3000437DC133FF339B009950CC210369074A22
:108A4000490499500521243A9950817D0832995062
:108A5000417D034A995070470C0600002405000030
:108A60000C050000F7B5050000200C0001938242C0
:108A70005CD0161E402E00D940262F001C3738002F
:108A800001F000FDB1222B69D20080219C5001220F
:108A900089005A50A97E002901D11A621A60002467
:108AA000731E2A69A34206D1019B002B03D08023A9
:108AB00002219B00D150012313621300FC33D968BB
:108AC000002902D1996A0029F9D0996A00290AD1AE
:108AD000D960A323DB00D1583800C9B2013401F0BA
:108AE000C6FCA642DCD8019A2B69002A04D11A00E0
:108AF000FC32916A00290AD001210022AA7659612C
:108B00001900FC3188680028FCD08A6007E0012148
:108B1000A976D961D16C0029FCD00021D164FC3345
:108B20009A6A002A01D000229A62E0B2FEBD10B516
:108B30000123FFF797FF10BD0300AC3310B504000D
:108B40001970643001F09EFC0123637610BD0000B3
:108B5000F8B500220D0001004276AC310369040033
:108B60000878B121C9005850802189005A5001323B
:108B70001A629A6026006436300001F095FC0028E5
:108B80000ED03000276901F081FC1E4BF85023699C
:108B9000FC331A6A002A0CD19A6A002AF9D008E03C
:108BA0002369002D0AD11A00FC32916A002905D1EF
:108BB0000EE09A6A002AF3D11A62DBE701225A61B9
:108BC0001A00FC3291680029FCD00021916006E077
:108BD0000121D961D16C0029FCD00021D1641A0097
:108BE0000020FC32916A81420BD0074990625A58AA
:108BF00002305A50824204D0043A53425341023068
:108C0000C01AF8BD1C050000C404000010B5012105
:108C1000FFF79EFF10BD000010B513231422024978
:108C20000248FFF7D5FE10BD00400040882100201B
:108C3000014B0170C3617047E12E6542C07840B2BC
:108C40007047007940B27047407940B270470000E9
:108C500070B50E0005000F4C01782000FFF76CFF87
:108C600031002000FFF79BFE00212000FFF770FF7E
:108C7000297801222000FFF75AFF2000FFF785FE28
:108C800003000020834203D02000FFF783FEC0B220
:108C900070BDC0468821002070B50600164C0178D2
:108CA0002000FFF749FF2A212000FFF778FE20006F
:108CB000FFF7ACFF317801222000FFF738FF2000DA
:108CC0002500FFF762FE0024A04203D02800FFF732
:108CD00061FEC4B231782800FFF72EFF28002A2158
:108CE000FFF75DFE0123210028009943FFF757FE9F
:108CF0002800FFF78BFF70BD8821002070B50600AB
:108D0000204C01782000FFF717FF2A212000FFF7F1
:108D100046FE2000FFF77AFF317801222000FFF79E
:108D200006FF2000FFF731FE0025A84203D02000F7
:108D3000FFF730FEC5B231782000FFF7FDFE2B2192
:108D40002000FFF72CFE09212000FFF728FE20005D
:108D5000FFF75CFF31782000FFF7EEFE2A212000AC
:108D6000FFF71DFE317B20004B4259414B00312162
:108D70000D432B431900FFF712FE2000FFF746FFBB
:108D800070BDC04688210020F8B5160005000F0010
:108D90001C4C2000FFF742FE0D212F73AE702800FF
:108DA000FFF756FF29782000FFF7C6FE2B21200091
:108DB000FFF7F5FD40212000FFF7F1FD2000FFF750
:108DC00025FF0A2001F064F92800FFF765FF2978E4
:108DD0002000FFF7B1FE0E212000FFF7E0FDAB7889
:108DE0000121042B03D00221082B00D000212000F8
:108DF000FFF7D5FD2000FFF709FF2800FFF77EFFF2
:108E0000F8BDC0468821002070B5214C05000178CE
:108E10002000FFF791FE00212000FFF7C0FD002198
:108E20002000FFF795FE2B7B060029780722002BF8
:108E300000D1033A2000FFF77AFE2000FFF7A5FDDE
:108E4000002823D02000FFF7A5FD2B7B68702000B1
:108E5000002B10D0FFF79EFD2000FFF79BFDE87070
:108E60002000FFF797FD2000FFF794FD28712000F8
:108E7000FFF790FD06E0FFF78DFDE8702000FFF79B
:108E800089FD28712000FFF785FD6871300070BDF5
:108E90008821002052DF704712DF7047084A094BD3
:108EA00012781B68D2009A18934207D00833190031
:108EB000083909788142F7D1012000E0002070478D
:108EC0009B2200209022002010B5094A094B1278FD
:108ED0001B68D2009A18934208D0190008331C006E
:108EE000083C24788442F6D14B68984710BDC046B0
:108EF0009B2200209022002070B5284B04001A7895
:108F00001D00002A0ED0052001F06AFA002809D1C0
:108F1000234B1A78002A05D101221A70002C14D094
:108F20000A2010E02B78002B0FD0052001F058FA12
:108F300000280AD01A4B1A78012A06D100221A708A
:108F4000944202D00B20FFF7BFFF164B1A781D008A
:108F5000002A0ED00B2001F043FA002809D1124B51
:108F60001A78002A05D101221A70002C14D00C2086
:108F700010E02B78002B0FD00B2001F031FA0028E5
:108F80000AD0094B1A78012A06D100221A7094429D
:108F900002D00D20FFF798FF70BDC046A022002030
:108FA0008C220020402200208D22002010B50F4C82
:108FB000E068012805D1C1230D4A9B00D3585B0707
:108FC0000ED4A068012810D1C123094A9B00D358B0
:108FD0009B070AD50022054B9A60FFF78DFF04E03E
:108FE0000023E360FFF788FFEBE710BDFC60004063
:108FF0000060004010B5FFF7D9FF10BD1A4B82008A
:1090000070B5D258052805D10121184B01381970C7
:10901000022308E00B2804D10123154909380B70FD
:1090200001E000200300A22512499B005B18ED001F
:109030005959002916D140240F4E1049F467C02613
:1090400076008C510E4E120232435A51C122094B06
:109050009200985088580B4B0340C02000040343F3
:109060008B500C6070BDC046D8CE0100A0220020FD
:10907000402200200060004004E100E000E100E048
:1090800001000300FFFF00FF10B5394B1A781C00E8
:10909000002A08D0002001F0A3F9002803D0354BA6
:1090A0001A78002A45D02378002B08D0002001F040
:1090B00097F9012803D12F4B1A78012A3FD02E4B64
:1090C0001A781C00002A08D0012001F089F9002834
:1090D00003D12A4B1A78002A37D02378002B08D0E6
:1090E000012001F07DF9002803D0244B1A78012AD1
:1090F00031D0234B1A781C00002A08D0022001F03E
:109100006FF9002803D11F4B1A78002A29D0237841
:10911000002B2CD0022001F063F9002827D0194B36
:109120001A78012A23D1002219201A70FFF7CCFEE9
:109130001DE0012214201A70FFF7C6FEB3E70022DB
:1091400015201A70FFF7C0FEB9E7012216201A7029
:10915000FFF7BAFEC1E7002217201A70FFF7B4FE2E
:10916000C7E7012218201A70FFF7AEFECFE710BD47
:109170004C220020892200205C2200208A2200202C
:109180004D2200208B22002070B50A4D2C78E4B2CD
:10919000002C08D10520022101F0EEF80123200067
:1091A0002B70FFF7A9FE044B187801384342584151
:1091B000C0B270BDA02200208C22002070B50A4DE4
:1091C0002C78E4B2002C08D10B20022101F0D4F855
:1091D000012320002B70FFF78FFE044B1878013815
:1091E00043425841C0B270BD402200208D22002071
:1091F00010B5094C2078C0B2002806D1010001F05A
:10920000BBF801232370FFF73FFF044B18780138A8
:1092100043425841C0B210BD4C2200208922002098
:1092200010B5094C2178C9B2002906D1012001F0FE
:10923000A3F801232370FFF727FF044B18780138A8
:1092400043425841C0B210BD5C2200208A22002057
:1092500010B5094C2178C9B2002906D1022001F0CD
:109260008BF801232370FFF70FFF044B18780138A8
:1092700043425841C0B210BD4D2200208B22002035
:10928000F8B504000D00FFF709FE00284BD12300BC
:109290000A3B012B02D80530FFF7B0FE23000C3B40
:1092A000012B02D80B20FFF7A9FE2300143B012B52
:1092B00006D80021080001F05FF801221A4B1A704D
:1092C0002300163B012B06D80021012001F054F8A1
:1092D0000122164B1A702300183B012B06D80021DF
:1092E000022001F049F80122114B1A70114E124F61
:1092F0003068002807D1387808210130C0B23870B2
:1093000003F016FB06E039780131C9B23970C900A3
:1093100003F032FC3B78094A30609B183268DB006E
:10932000D3181C705D60F8BD4C2200205C22002028
:109330004D220020902200209B220020FFFFFF1FD3
:10934000144B70B55A6C144D002A22D0C1229200E1
:10935000AA58D2031DD5002610485E6400F09CFC7C
:109360000F4C2368B34207D000F07AFE2368C01A7E
:109370000C4B1B88984207D8A822FA21D200AB5880
:1093800089005B18AB5004E00122074B26605A604D
:10939000F2E770BDFCA0004000A00040B022002019
:1093A00048220020982200200080004010B5FFF7DE
:1093B000C7FF10BD002230B501200424104B114915
:1093C0005A500C31D8605C50FA2408395A50A40025
:1093D00038315C500C49E03C5A508021C12249028E
:1093E0009200995009490A4A0D592A408025ED03F7
:1093F0002A430A518022D2000A60186030BDC0465C
:1094000000A00040040500004405000000E100E069
:10941000FFFF00FF10B5034800F0A4FBFFF7CAFFF1
:1094200010BDC046B022002010B50100014800F078
:109430000BFD10BDB022002010B5024800F0B0FBBB
:1094400010BDC046B0220020F7B5002401270C4D06
:109450000600280000F0A4FB019500250422335DDE
:10946000521B13413B4204D0E2B2E9B2019800F032
:10947000A5FB0135052DF1D10134052CEDD1F7BD4A
:10948000B02200201FB5010001A801F02CFA01A9AB
:10949000034800F047FC01A801F0BBF905B000BD8E
:1094A000B022002010B5024800F0E6FC10BDC04616
:1094B000B022002010B50A000100024800F086FB2F
:1094C00010BDC046B0220020030010B50648002A97
:1094D00004D00A00190000F071FB03E00A00190033
:1094E00000F0D2FC10BDC046B022002010B50A002A
:1094F0000100024800F062FB10BDC046B02200200F
:10950000F8B5154B061E9E4224D8144800F048FBBF
:109510000425002E1ED030000A2101F077FB300018
:109520000F00CCB20A2101F0EBFA0600052F06D994
:1095300000212800053CFFF7D9FFE4B201E0002F2D
:1095400005D00523191BC9B22800FFF7CFFF013D45
:10955000EDB2DEE7F8BDC0469F860100B0220020D4
:1095600010B50A000100024800F08EFC10BDC04694
:10957000B022002070B50D000400FFF79BFF012210
:109580005040C2B229002000FFF79EFF70BD0000CE
:1095900010B5022200210348FFF7F6FB0122024B1F
:1095A0001A7010BD602200205E22002010B51A4CF7
:1095B0002078652801D1FFF787FC20786A2801D13F
:1095C000FFF782FC20786B2801D1FFF77DFC207823
:1095D000662801D1FFF778FC2078672801D1FFF7D2
:1095E00073FC2078682801D1FFF76EFC2078692889
:1095F00001D1FFF769FC20786C2801D1FFF764FCEA
:1096000020786D2801D1FFF75FFC20786E2801D10A
:10961000FFF75AFC10BDC0460520002070B5744B02
:109620001B78002B01D1FFF7B3FF00F019FD714C3F
:109630002368C01A312800D8D8E000F011FD6E4E22
:1096400020603000FFF7E0FB3000FFF7F7FA03F08F
:1096500043F86A4A6A4B02F03BFA0022694B02F077
:1096600037FA03F003F8684D28703000FFF7E9FA85
:1096700003F032F8614A624B02F02AFA0022614B91
:1096800002F026FA02F0F2FF604C20703000FFF783
:10969000DBFA03F021F8594A594B02F019FA00227B
:1096A000584B02F015FA02F0E1FF0021584BC0B20E
:1096B00018702478695664B20A0023004A43634351
:1096C00040B2D21803004343524DD2182B78002BDE
:1096D00004D00133DBB22B70052B73D84E4D2B78A1
:1096E000002B04D00133DBB22B70052B71D84B4D0E
:1096F0002B78002B04D00133DBB2052B70D82B70F4
:10970000444B1D78002D07D1454DAA4204D90125AF
:109710001D70444B6B351D703F4B1D78002D07D1DC
:10972000414DAA4204D901251D703E4B6C351D7078
:109730003A4B1D78002D07D13C4DAA4204D9012592
:109740006E261D70374D2E70324D2D78012D36D07E
:10975000314D2D78012D32D01B78012B2FD0344D77
:109760006B23AA4215D90A00063B503211DB0133A4
:1097700050290EDC2200013350320ADB0133502C19
:1097800007DC02000133503203DB0133502800DCD8
:10979000063B284A28491078984204D10B78012BBF
:1097A00004D8013301E0137000230B701D4B1278B5
:1097B000187890421AD00978012917D91A70FFF742
:1097C000F5FE13E00023154E2B703370124E3370EC
:1097D00084E70023114E2B700E4D33702B7086E7FB
:1097E00000232B700C4D2B700A4D88E770BDC046CE
:1097F0005E2200205822002060220020DE718A8E26
:10980000E4F28F3F000059409A2200209522002068
:10981000962200205D220020542200208822002071
:109820003147000005200020907E0000409C000091
:109830003F0600000420002094220020F7B5A22655
:1098400001251A4B01921B68194A1A4F1B02F60098
:109850001343BB51184B194CFD500023184A656047
:10986000E560A3500422A251A122D200A3501548C2
:1098700001F0D0F9A823E840DB00E05080239B00F2
:10988000E550114A114B0E499F50114A9A510C4A0A
:109890009A582A435A50256000F0E2FB6A460D4B65
:1098A000928818600C4B1A80F7BDC046D8CE0100D4
:1098B0000300030000600040FC0F00000080004037
:1098C0000405000040420F001405000000F00140B4
:1098D0004081004048220020982200200022034BB3
:1098E0001A60034B01325A607047C046482200207C
:1098F0000080004013B500F0B3FB184C2368C01A79
:10990000FA239B00984226D900F0AAFB6B46206000
:10991000DC1C2000FFF7C0FA2378002B03D001A83D
:10992000FFF7B8FA0FE001220D4B1A600D4A536899
:10993000002BFCD000220B4B5A600B4B01321B68F2
:109940000193074B5A600322019BD9170A40D31891
:10995000064A9B101370054B187816BD4422002050
:1099600000C00040FCC0004008C50040802200202C
:10997000F8B500F075FB2B4C2368C01AC72850D9E6
:1099800000F06EFB0025284E20600021300000F022
:109990000DF900211A2000F00DFD00211B2000F020
:1099A00009FD00211C2000F005FD0121032000F02D
:1099B00001FD0121042000F0FDFC01210A2000F03E
:1099C000F9FC2C003700194B0021E65C0134300013
:1099D00000F0F0FC0021300000F0CEFC300000F080
:1099E00063FA01212D18300000F0C6FC012130007F
:1099F00000F0E0FC032CE6D10121380000F0D6F89D
:109A00000B4B21001888013080B2188001F0FEF85D
:109A100028008EB2210001F0FDF8064B80B27600DE
:109A2000F052F8BD9C220020B022002094CC01000E
:109A3000822200204E22002007B5FFF799FF0E4B2F
:109A4000032118885A889B888018C01801F0E2F812
:109A50000A4B18601A681A681A60AA22196891429B
:109A600000D81A6800211A601868AA220091FF2302
:109A700000F0C4FE80B20EBD4E22002084220020E1
:109A800010B500F0EDFA074B186000F0E9FA064B4C
:109A9000186000F0E5FA054B1D2118600448FFF737
:109AA000C7F810BD442200209C220020582200202C
:109AB0006022002070B5141C082A00D90824E4B2E2
:109AC0000D1C022900D9022509210122EDB26943AA
:109AD000091946688A40002B01D0164300E09643DE
:109AE000466070BD0B1C022900D902230921DBB29C
:109AF0005943131C082A00D90823DAB240688B188E
:109B0000D84001231840704710B50478002C09D0C4
:109B1000052461438A180449520089180A78497853
:109B2000FFF7C8FF10BDC0469DCC0100F7B500256A
:109B3000037807000191AB4213D00024EBB20093ED
:109B4000019B5E5D0123210001343340009A3800FF
:109B5000E4B2FFF7D9FF7608052CF3D10135052DC6
:109B6000EBD1F7BD70B5050000240C4B0121E05C82
:109B7000013400F001FC092CF7D101211A2000F07A
:109B8000FBFB01211B2000F0F7FB01211C2000F052
:109B9000F3FB00236B6001332B7070BDAFCE01006F
:109BA0000023436001334370704700000022024BE2
:109BB00001701A707047C046BD22002010B50C001D
:109BC000012311002200FFF79FFF10BD05235A4318
:109BD00010B55118054A490051180A784978FFF71D
:109BE00081FF431E9841C0B210BDC0469DCC01000C
:109BF000F8B5234E040033783700002B3ED0214BBC
:109C00001B78002B09D0204D2968FFF78FFF002318
:109C10002868337098421AD130E01C4D1C4B2A68DA
:109C20001B689A4208D3184B1868002801D000F02E
:109C3000EBFE00233B7021E04378002B0AD1012288
:109C400043603370104B42701868002816D000F043
:109C5000DBFE13E000F004FA0E4E3368C01A9528BC
:109C60000CD900F0FDF9084B306019682B68200012
:109C7000C918FFF75BFF2B6801332B60F8BDC046A6
:109C8000C8220020BC220020C0220020C4220020C4
:109C9000A8220020A4220020F8B503780500002B9C
:109CA00037D043681B4A002B30D11378013BDBB21D
:109CB0001370002B2DD02800FFF79AFF164C174F7A
:109CC00023780021F85C00F075FB23780321013331
:109CD000DBB2237020780026C0B200F097FFC9B233
:109CE00021702178F2B2C9B22800FFF7FBFE0C4BBD
:109CF00041424141F05C013600F05CFB092EF0D19D
:109D000023780121F85C00F055FB02E00423137076
:109D1000D1E7F8BDAC220020BD220020BACE010060
:109D2000AFCE0100F0B5404B89B01B7806000D00A6
:109D3000002B76D13D4C2068002801D000F064FE55
:109D40000023736001337370394902A800F0A8FD45
:109D5000AB68002B04D1374902A800F0F1FD19E0EF
:109D6000012B04D1290002A800F0ADFD12E0314E14
:109D700005A8310000F094FD290005A800F0FDFDC4
:109D8000310000F007FE010002A800F09CFD05A8CC
:109D900000F03FFD0625049A531E58425841554392
:109DA00025490870681E00F02BFE20600024234E19
:109DB00034600196049BA34227D9210002A800F039
:109DC00006FE20385F2800D90020052300215843D3
:109DD0001B4B1818154B9C46184B6646425C1F6877
:109DE00036680131F2551A6801321A600529F4D13A
:109DF000049901398C4206D26146002009688854D2
:109E00001A6801321A600134D4E70023019A073D31
:109E1000136001220B4B02A81D60034B1A7000F067
:109E2000F8FC09B0F0BDC046C8220020C0220020C6
:109E30005ECF0100B8CE0100BC220020C422002069
:109E4000CFCC0100A822002010B5040086B00A2261
:109E5000684600F063FD694603A800F044FD03A9CD
:109E60002000FFF75FFF03A800F0D3FC684600F076
:109E7000D0FC06B010BD00000023024A43701370EE
:109E80007047C046C822002010B50C000023110006
:109E90002200FFF739FE10BD10B500F0E1F8014BCC
:109EA000186010BDA4220020F7B500221C4B8000D2
:109EB000C158130001391A2901D81A4B5B5C694655
:109EC0008E1DC121184C194D8900328062506A6084
:109ED0000A221B021343164A0127A350A023DB00CA
:109EE0000220E75000F0D4F88022200010492760BB
:109EF000D2006B68002B02D18358002BF9D10022CD
:109F0000A1236A60DB00E3589BB2338001236360C6
:109F1000A023DB00E2500A236350308880B2FEBDEC
:109F2000D8CE0100BDCE010000700040FC700040A2
:109F30000405000003210A4802680A430260094838
:109F400002680A4302600849084A094B9B1A03DD6C
:109F5000043BC858D050FBDC00F012F8FEF70AF9B9
:109F6000240500405405004034D0010000200020AA
:109F7000D8200020FEE7FEE7FEE7FEE7FEE7FEE76B
:109F80002D4B10B51A78012A19D12C4A12681207E4
:109F900015D12B4AE0241168F0220800104021421C
:109FA0000BD128490968114209D12749274A116074
:109FB0008021274A0902116001E03028F1D01A7887
:109FC000012A0DD11D490968090709D1F0201C4952
:109FD00009680140402903D11A490968014223D088
:109FE0001B68DBB2012B25D1144B1B681B0721D149
:109FF000134B1A68F0231A40A02A04D1114A1268A0
:10A000001A4203D016E0D02A14D1F7E7114B1A6890
:10A01000012A03D1C022104B1A600BE00F4A1A60CC
:10A020001A68012AFCD1F5E7C1218020C900C005CA
:10A030004250D5E710BDC046E00F00F0E40F00F03D
:10A04000E80F00F0EC0F00F0DFFF07C00405004050
:10A05000186C004000EC064014EC064075930000BC
:10A06000084A0949094B10B51B688858FA22190A91
:10A070001B0618439200002300F0F2FE4904C00BB7
:10A08000084310BD0405000000100140CC22002050
:10A0900070B5041E09D0FFF7E3FF050000F014F8C7
:10A0A000FFF7DEFF401B8442F8D870BD0022044B4E
:10A0B0009A60044A13680133DBB213607047C046EC
:10A0C000FC100140CC22002070470000F7B50023AF
:10A0D000202877D83C4B8000C258042A14D006D8D8
:10A0E000022A0DD00ED80423012A14D069E0062AD2
:10A0F0000ED00BD31A2A0DD002231B2A0BD060E0FE
:10A10000082308E0102306E0202304E0402302E0B7
:10A11000802300E001232D4A1268082A04D9092A65
:10A1200005D00A21022404E00821002401E01100E6
:10A130000124A02501261C272548ED004651254D68
:10A14000254E2D681B02AD003D400195234D2D6825
:10A1500000958559AC466746214D3D401D438551CC
:10A160008359C0259C46009BAD021D40FF236746D6
:10A170001B023B402B43019D1D43009B5F0160235D
:10A180001F402B003B431C4301238451154C0360AB
:10A1900063680F48002BFBD00024124B01255C6044
:10A1A000A123DB00C3584560A025ED0044511BB23C
:10A1B000914207D002D98A1AD34003E0521A934041
:10A1C00000E000231800FEBDD8CE010014200020BE
:10A1D000007000400C200020040500000820002032
:10A1E000FF00FFFFFC700040F0B520286CD8374B13
:10A1F0008000C258364B1E68002E2ED1C22435482E
:10A20000A4000759344B03253B40C0273F023B4382
:10A2100003518023893C9B00FF3C03512F4F036077
:10A220002F4B803CD859FF3CA043D8510437D85914
:10A23000A8432043D8510837D8590C35A843083DC6
:10A240002843D851A820C0001E508026C120760285
:10A2500080001E501C601E4B1C60002314262148E9
:10A2600034005C43255804006F1C0FD11420584360
:10A270002250A0200325C132FF329200C0051550A4
:10A28000194A08001268082A03D10BE0AA4218D123
:10A29000ECE7082A02D9083AD14002E00820821AE5
:10A2A0009140080014225343E3189A680C49513234
:10A2B000FF32920058605050DA68C1239B00CA50A8
:10A2C00002E00133032BCBD1F0BDC046D8CE010054
:10A2D000D022002000E100E0FF00FFFF04050000A5
:10A2E0000090004018200020102000201E4BF0B5E8
:10A2F000596C18001D4A002914D0A025A12600235E
:10A300000124ED05F600D1584F1C06D0D7187F6800
:10A31000002F02D027008F40AF5114333C2BF2D1D5
:10A3200000234364131DA0254032944600200124DD
:10A330000F4EED05DA680F49920057180A49521876
:10A34000526C002A0CD01A1F1268511C05D01968D3
:10A35000FF2902D021009140A9513A00FC325064FB
:10A3600014339C45E6D1F0BDFC900040182000203D
:10A370000C0500000090004000B5202816D80C4ABB
:10A3800083009B58032911D8A0220800C133FF3352
:10A39000D2059B0000F0AAFB02080406002104E09D
:10A3A0000C2102E0042100E00321D15000BDC04691
:10A3B000D8CE010020280DD8074B8000C058A0221D
:10A3C0000123D2058340002901D1044901E0A121E4
:10A3D000C90053507047C046D8CE01000C0500009C
:10A3E00003000020202B0AD8A222A021D200C905F8
:10A3F0008858034A9B009B58D84001231840704757
:10A40000D8CE0100F7B506000D000C008B180193A3
:10A41000019B671B9C4207D0336821781B68300082
:10A42000984701340028F3D13800FEBD70B505000F
:10A430000C00081E07D002F0C3FB2B6802005B680B
:10A4400021002800984770BD10B50249FFF7EEFFC4
:10A4500010BDC0465CCF010010B5402200210400B1
:10A4600002F0D7FA002320002364636410BD3F2369
:10A47000026C10B5541C2340446C9C4201D08154A2
:10A48000036410BD0023036443647047436C026C93
:10A49000934206D03F21C25C01330B40436410005D
:10A4A00001E0012040427047036C406C181A00D54F
:10A4B00040307047436C026C934201D0C05C01E0B5
:10A4C000012040427047036C406C5A1C3F231340EC
:10A4D000181A42424241D0B270470120704710B56D
:10A4E00003681322DB69984710BD70470369054A6A
:10A4F0009950FC331A6A002AFCD0002201201A620B
:10A500007047C0461C050000030010B55C331A7884
:10A510001F2313400122110099400D4B0424D967D9
:10A52000C221036989005C505A60DA60A0220021D0
:10A53000D20099500122074952425A50064914301C
:10A540005A500C395A5008315A50FFF79BFF10BD32
:10A5500004E100E00C0500001405000010B5143003
:10A56000FFF7A2FF10BD10B51430FFF7A3FF10BD19
:10A5700010B51430FFF78AFF10BD0000030070B55E
:10A580005E331C780269604BD45003005D331C7845
:10A590005E4BD450030061331C785D4B012C0CD111
:10A5A00005005F352E78A225ED0056510500603577
:10A5B0002E78A125ED00565100E00024D4509623BA
:10A5C000DB00994238D996231B01994237D996234B
:10A5D0005B01994236D996239B01994234D9E123F4
:10A5E0009B01994232D99623DB01994231D9E1236B
:10A5F000DB0199422FD996231B0299422DD9E123E1
:10A600001B0299422BD996235B02994229D9E12357
:10A610005B02994227D9E1239B02994225D93D4B00
:10A62000994224D9E123DB02994223D9E1231B0378
:10A63000994221D8384B21E09E23DB021EE09D2366
:10A640001B031BE0354B19E0354B17E0EC239B0354
:10A6500014E0344B12E0344B10E0344B0EE0344B3A
:10A660000CE0344B0AE0344B08E0344B06E0802326
:10A67000DB0403E0324B01E080235B053149002419
:10A6800053500423243953501100FC31CC600C6228
:10A69000C1210134890014605C3094605350037808
:10A6A0001F202200D9B20840824080342648FF345F
:10A6B0005BB20251002B13DA0F230B40083B234CF3
:10A6C0009B089B001B1903242140A140FC348C40B3
:10A6D000DD69A543C0248C4021002943D96111E0E4
:10A6E000194C9B089B001B1903242140A140C02545
:10A6F000FC348C40AD005E59A643C0248C40210040
:10A7000031435951026070BD0C0500001405000072
:10A710006C05000090D0030000D0BE0E00B0130006
:10A720000050270000A04E0000F0750000509D0072
:10A7300000F0EB0000903A0100E0D70100B0AF0359
:10A7400000705F072405000000E100E000ED00E07C
:10A75000F7B5009308AB1B7800250193FA2304009A
:10A760009B0083600E4B45600833036014300F007C
:10A770001600FFF771FE23005C3327611E70009BFB
:10A78000084A9B00995823005D331970019B2000F3
:10A790009B009A5823005E33DD701A70FEBDC046E0
:10A7A00070CF0100D8CE0100036910B51A00FC3249
:10A7B000D2680400002A0AD0A322D200995814308B
:10A7C000C9B2FFF754FE00222369FC33DA6010BDE2
:10A7D00010B50248FFF7E8FF10BDC046D4220020A4
:10A7E000162307B5022200930249013B0248FFF7F6
:10A7F000AFFF07BD00200040D422002010B51C0090
:10A80000029B401A1B1B5843511A00F003FA00190F
:10A8100010BD10B50400006802F0E8F8200010BD7B
:10A8200010B504000068002801D002F0DFF8002312
:10A830002360A360636010BD70B504000D00006864
:10A84000013102F099F9031E01D0012028C470BD26
:10A85000036810B50400002B02D043688B4209D274
:10A860002000FFF7E9FF002805D0A368002B01D1E5
:10A8700022681370012010BD70B50E001100040095
:10A880001500FFF7E5FF002803D12000FFF7C8FF00
:10A8900004E0A5603100206802F08AF9200070BD54
:10A8A000002370B504000D1E0360436083609D4269
:10A8B00007D0080002F084F9290002002000FFF709
:10A8C000DBFF200070BD10B50B00041E8C4208D0C9
:10A8D0000968002903D09A68FFF7CEFF01E0FFF76F
:10A8E0009FFF200010BD002310B5040003604360EB
:10A8F0008360FFF7E8FF200010BD70B504000D1E57
:10A9000008D0080002F05CF9290002002000FFF7DF
:10A91000B3FF01E0FFF784FF200070BD10B50023F6
:10A9200004008AB023606360A360080001A900F0FE
:10A930006FF801A92000FFF7E0FF20000AB010BD6A
:10A9400010B5FFF7DAFF10BDF8B504000F1E01D1F6
:10A95000002610E00126002A0DD08368D5182900B2
:10A96000FFF776FF0028F3D02368A2683900981813
:10A9700002F01EF9A5603000F8BD10B58A680968BC
:10A980000400FFF7E1FF002802D12000FFF748FF95
:10A99000200010BD70B504000D1E09D0080002F0A3
:10A9A0000FF9290002002000FFF7CEFF002802D196
:10A9B0002000FFF735FF200070BD826800238A4227
:10A9C00003D902689A4200D0535C1800704710B552
:10A9D000FFF7F3FF10BD704710B500F05DF8FFF70B
:10A9E000FAFF0120FFF754FBFDF726FDFDF7AAFD56
:10A9F000024B002BFAD000E000BFF7E70000000098
:10AA000010B501F0E9FF10BD10B501F0EFFF10BD6A
:10AA1000F0B58DB00E0000920B1E39D0023A002323
:10AA2000222A35D8009B0A2B04D1002802DA44429E
:10AA3000012301E004000023019303AF3A00002C3E
:10AA400011D02000009900F0E1F820000D000099DD
:10AA500000F056F80400092D01D8303500E05735D4
:10AA60003D700137EAE703ABBB42EAD001993300FE
:10AA7000002902D02D21731C317003A98A4204D908
:10AA8000013A117819700133F7E700221A70330088
:10AA900018000DB0F0BD0000C421114A89005058C3
:10AAA000104B0340C02000020343535080239139D0
:10AAB0009B02FF39535013608023A3220021DB0542
:10AAC000D20099500122A1209A60074BC000195072
:10AAD000C120023180001950403019501A6070476F
:10AAE00000E100E0FF00FFFF0010014002B47146EA
:10AAF00049084900095C49008E4402BC7047C046C1
:10AB0000002243088B4274D303098B425FD3030AAC
:10AB10008B4244D3030B8B4228D3030C8B420DD3BF
:10AB2000FF22090212BA030C8B4202D3121209024D
:10AB300065D0030B8B4219D300E0090AC30B8B428B
:10AB400001D3CB03C01A5241830B8B4201D38B0339
:10AB5000C01A5241430B8B4201D34B03C01A5241DE
:10AB6000030B8B4201D30B03C01A5241C30A8B4221
:10AB700001D3CB02C01A5241830A8B4201D38B020C
:10AB8000C01A5241430A8B4201D34B02C01A5241B0
:10AB9000030A8B4201D30B02C01A5241CDD2C30922
:10ABA0008B4201D3CB01C01A524183098B4201D39E
:10ABB0008B01C01A524143098B4201D34B01C01A89
:10ABC000524103098B4201D30B01C01A5241C30801
:10ABD0008B4201D3CB00C01A524183088B4201D370
:10ABE0008B00C01A524143088B4201D34B00C01A5C
:10ABF0005241411A00D20146524110467047FFE7C8
:10AC000001B5002000F0F0F802BDC0460029F7D0E1
:10AC100076E7704703460B437FD4002243088B42FC
:10AC200074D303098B425FD3030A8B4244D3030BD3
:10AC30008B4228D3030C8B420DD3FF22090212BA98
:10AC4000030C8B4202D31212090265D0030B8B4214
:10AC500019D300E0090AC30B8B4201D3CB03C01AFE
:10AC60005241830B8B4201D38B03C01A5241430BD9
:10AC70008B4201D34B03C01A5241030B8B4201D3C9
:10AC80000B03C01A5241C30A8B4201D3CB02C01A34
:10AC90005241830A8B4201D38B02C01A5241430AAC
:10ACA0008B4201D34B02C01A5241030A8B4201D39B
:10ACB0000B02C01A5241CDD2C3098B4201D3CB0142
:10ACC000C01A524183098B4201D38B01C01A5241F1
:10ACD00043098B4201D34B01C01A524103098B42F5
:10ACE00001D30B01C01A5241C3088B4201D3CB00E0
:10ACF000C01A524183088B4201D38B00C01A5241C3
:10AD000043088B4201D34B00C01A5241411A00D272
:10AD100001465241104670475DE0CA0F00D04942DB
:10AD2000031000D34042534000229C4603098B424B
:10AD30002DD3030A8B4212D3FC22890112BA030AD3
:10AD40008B420CD3890192118B4208D38901921155
:10AD50008B4204D389013AD0921100E08909C309DA
:10AD60008B4201D3CB01C01A524183098B4201D3DC
:10AD70008B01C01A524143098B4201D34B01C01AC7
:10AD8000524103098B4201D30B01C01A5241C3083F
:10AD90008B4201D3CB00C01A524183088B4201D3AE
:10ADA0008B00C01A5241D9D243088B4201D34B00C9
:10ADB000C01A5241411A00D20146634652415B100B
:10ADC000104601D34042002B00D5494270476346EC
:10ADD0005B1000D3404201B5002000F005F802BD31
:10ADE0000029F8D016E770477047C0468446081C13
:10ADF0006146FFE71FB500F0E3F8002801D4002109
:10AE0000C8421FBD10B500F06FF84042013010BDC0
:10AE100010B500F0D5F8002801DB002010BD01209E
:10AE200010BDC04610B500F0CBF8002801DD0020B1
:10AE300010BD012010BDC04610B500F07DF80028FF
:10AE400001DC002010BD012010BDC04610B500F08F
:10AE500073F8002801DA002010BD012010BDC046A3
:10AE6000F0B54F464646C0B41604360C994633003A
:10AE700005042C0C070C150C63437E436F4365439C
:10AE80001C0CAD1964199C46A64203D980235B02B1
:10AE9000984647446346250CEF191D044B464A4328
:10AEA00043432D0C240464199918C91920000CBCC3
:10AEB00090469946F0BDC0469E2110B5C905041CB8
:10AEC000FFF7C4FF002803D1201C00F043FA10BD97
:10AED0009E21201CC90500F0B7F800F03BFA802342
:10AEE0001B069C466044F2E7430270B542004C00EA
:10AEF0005D0AC30F4802120E460A240EC90FFF2A2C
:10AF00000FD0FF2C11D00120A24200D070BDB5425D
:10AF1000FCD18B420DD0002AF8D12800431E984165
:10AF2000F4E70120002DF1D1EBE70120002EEDD157
:10AF3000E9E70020EAE7C0464302F0B542005D0AB7
:10AF4000C30F4802440A4800120E000EC90FFF2A20
:10AF50001FD0FF2822D0002A09D16E426E4100285E
:10AF60000FD1002C0DD10020002D09D005E00028C4
:10AF700001D1002C01D08B4213D058420123184339
:10AF8000F0BD002EF7D0484241410120494208431C
:10AF9000F6E7002DDDD002204042F1E7002CDAD0A8
:10AFA000F9E78242E9DC04DBA542E6D80020A542AD
:10AFB000E6D25842434101205B421843E0E7C046D5
:10AFC0004302F0B542004C005E0AC30F4802120E65
:10AFD000450A240EC90FFF2A17D0FF2C19D0002ACA
:10AFE0000BD170427041002C17D0002807D0484286
:10AFF0004141012049420843F0BD002C13D08B424F
:10B0000014D0584201231843F6E70220002EF3D152
:10B01000E3E70220002DEFD1E1E7002DE5D100208C
:10B02000002EE9D0EDE7002DE9D1EAE7A242E8DC05
:10B0300004DBAE42E5D80020AE42DDD258424341A7
:10B0400001205B421843D7E7F8B54A024E0043029D
:10B050004400240EC50F9B09360EC90F9209FF2E1E
:10B0600000D183E001204140A01BA9425CD0002810
:10B0700000DC95E0002E1CD1002A00D081E05A07A8
:10B0800004D00F221A40042A00D004335A013BD5C1
:10B090000134FF2C00D191E001209B015B0AE4B256
:10B0A00005405B02E4055B0AED0723432B431800D0
:10B0B000F8BDFF2CE3D08021C9040A431B2800DD22
:10B0C00090E016002021C640081A8240511E8A4195
:10B0D00032439B1A5A0115D59B019E09300001F09D
:10B0E00001FC0538864084426CDC041B33002020C0
:10B0F0000134E340041BA640721E964100243343F2
:10B10000BDE70D005A07BCD1DF0801231D40FF2C0D
:10B1100033D1002F00D190E08022D20313003B43B3
:10B120005B025B0AFF24BCE700284FDD002E2ED017
:10B13000FF2CA4D08025ED042A431B2800DD97E0D6
:10B1400016002025C640281A8240501E82413243F4
:10B150009B185A01D5D50134FF2C6DD001227B48B4
:10B160001A405B08034013430D0088E7002A00D013
:10B170007AE777E7031EC5D100257B025B0AE4B2BC
:10B180008FE701380028A4D0FF2C97D177E7002A59
:10B1900000D174E701380028DAD0FF2CCDD16EE75A
:10B1A000002821D1601CC0B2012858DD80279E1ADA
:10B1B000FF0437402FD0D61A0D008FE701231D4022
:10B1C00000236EE7624B241A334058E7002851D120
:10B1D000601CC6B2012E33DDFF282DD09B185B0802
:10B1E00004004CE7012274E7002C1AD0FF2E1FD078
:10B1F0008024E404404223431B2800DD96E01D0028
:10B200002024C540201A8340581E83412B43D31A63
:10B2100034000D005EE7002E00D05FE7002500241B
:10B22000ABE7002B44D0C0430028F0D0FF2EE3D181
:10B230001300FF240D0022E70D00FF24002330E758
:10B24000002C5DD1002B7DD0002A00D117E79B1880
:10B250005A0100D456E73E4A040013400FE7002C81
:10B260001ED1002B2FD1002A65D013000D0006E758
:10B2700001226DE7002C1FD1002B59D0C0430028BC
:10B280000BD0FF2E4FD01B285EDC1D002024C540B4
:10B29000201A8340581E83412B439B18340058E7E3
:10B2A000002B1CD1002A49D013000D00FF24E6E634
:10B2B000130034000D00E2E6FF2E34D08024E404B5
:10B2C00040422343DFE7002A00D1D8E68027981ABE
:10B2D000FF04074000D14DE7D31A0D00CFE6FF244D
:10B2E000002A00D1CBE68020DB08C003034204D053
:10B2F000D208024201D113000D00DB00FF24BEE69C
:10B30000002B10D0FF24002A00D1B8E68020DB08F3
:10B31000C003034203D0D208024200D11300DB0075
:10B320000D00FF24ABE61300FF24A8E601236EE71F
:10B3300013003400A3E6002700251EE78027002520
:10B34000FF03E9E613009AE60123A6E7FFFFFF7D6E
:10B35000FFFFFFFB4302590A4300C20F1B0E0020F0
:10B360007E2B0EDD9D2B0DDC802000040143952BF0
:10B370000BDC9620C31AD9400B005842002A00D19A
:10B3800018007047034BD018FBE7963B99400B0021
:10B39000F3E7C046FFFFFF7F70B5002830D0C3172A
:10B3A000C5185D40C40F280001F09CFA9E231B1AAB
:10B3B000962B0DDC9622D21A95406A02520AD8B218
:10B3C0005202C005520AE40702432243100070BD36
:10B3D000992B19DC9922D21A9540124A2A40690702
:10B3E00004D00F210D40042D00D00432510103D5AB
:10B3F0000C4B1A409F231B1A9201520AD8B2DFE766
:10B40000002400200022DBE705222E00121AB921B9
:10B41000D6402A00C91A8A40551EAA413500154354
:10B42000DBE7C046FFFFFFFB70B5041E28D001F02C
:10B4300059FA9E231B1A962B0ADC9622D21A9440A4
:10B440006202520AD8B25202520AC005104370BDBD
:10B45000992B18DC9922D21A9440114A2240610794
:10B4600004D00F210C40042C00D00432510103D52C
:10B470000B4B1A409F231B1A9201520AD8B2E2E7E3
:10B4800000200022DFE705222500121AB921D5404D
:10B490002200C91A8A40541EA2412C001443DCE742
:10B4A000FFFFFFFBF0B556464D4644465F46F0B4FD
:10B4B0001D000E034C00CB0F87B00700924681465B
:10B4C000360B640D98466AD06D4B9C4235D0802275
:10B4D000430F12041343F6001E43C3009946694B01
:10B4E00000279C460023644402932B0368001B0B37
:10B4F000ED0F51469B46400D009500D178E0604B22
:10B5000098426CD05B46DA004B0F802109040B4354
:10B5100013439B465346D9005A4B9C460023604434
:10B520004246201A6A40924601901F430F2F00D9CD
:10B53000B0E05548BF00C0598746374300D088E087
:10B54000002399460233082700260293CDE743469D
:10B55000B34649460093029B009A9246022B00D0C4
:10B56000BFE1002153460122002689461A40444B80
:10B57000002136030C0D2405360B2643434C1B05D6
:10B5800026401E437600D20776081643484631000F
:10B5900007B03CBC90469946A246AB46F0BD33008E
:10B5A00003434FD0002E00D1BCE1300001F09AF9E6
:10B5B00003000B3B1C2B00DDADE11D220100D31A63
:10B5C00008393A008F408E40DA40B9461643304B76
:10B5D00000279C46002360444442029385E753467B
:10B5E0005A4613432CD1002300219B46023397E790
:10B5F0000B4320D05B46002B00D19EE1584601F062
:10B6000071F903000B3B1C2B00DD8FE10200594652
:10B61000083A91408B461D21CB1A5146D9400B0068
:10B6200059460B4351469B469140194B9C466044FA
:10B630004042002374E7002300219B4601336FE75B
:10B6400003236DE700239946013304270026029364
:10B650004BE703230C27029347E70122D51A382D25
:10B6600000DCB0E153461A40002100230026894641
:10B670007EE700238026994600223603004B77E7B9
:10B68000FF07000001FCFFFFA0CF0100FFFF0F80BC
:10B69000F30300005E4500D972E100D16DE1019B2A
:10B6A0004D46013B01930023340002935B461E028A
:10B6B0000B0E1E430B020393330C994633041B0CF1
:10B6C000494620000093FFF71BFA009B37004343D5
:10B6D0000600494620009846FFF798FA2C0C09040A
:10B6E0000C43A04509D9E419731EA74200D95CE1B7
:10B6F000A04500D859E1023EE4194346E41A494600
:10B700002000FFF7FDF90300009A804653434946A5
:10B7100020009B46FFF77AFA2A040904120C0A4318
:10B7200093450DD94346D219013B974200D93AE1DE
:10B73000934500D837E102235B429C46D219E0448E
:10B740005B46D21A4346360433439B460399180C92
:10B750000B0C1D00059309045B46090C0C001B042F
:10B760001B0C4443049159436B4368431B190D0C54
:10B77000EB189C4203D980246402A44660441C0C4C
:10B7800009041B04090C20185D18824200D2DEE077
:10B7900000D1D7E0161A029B9C465D1BAC459B412D
:10B7A0005B42F61AB74200D106E149463000FFF786
:10B7B000A7F9009B04004343494630009846FFF731
:10B7C00025FA2E0C09040E43B04509D9F619631E5B
:10B7D000B74200D9F3E0B04500D8F0E0023CF619DA
:10B7E0004346F31A494618000293FFF789F9009B74
:10B7F00006004343494602989846FFF707FA2D048E
:10B8000009042D0C0D43A84509D9ED19731EAF424B
:10B8100000D9D6E0A84500D8D3E0023EED192404B3
:10B82000210043463143049E059A3000ED1A0B0473
:10B830000C0C1B0C58436643534354439A19030C96
:10B840009B189E4203D980225202944664441A0CEB
:10B8500000041B04000C14191B18A54250D34DD032
:10B8600001231943964A019B94466344002B00DC54
:10B87000F3E64A0709D00F220A40042A05D00A1D20
:10B880008A42894149428B4411005A46D20108D567
:10B890005A468C4B1A4093468022D2009446019B14
:10B8A0006344894A934200DD5BE65A46C908500763
:10B8B00008435602514601225B058146360B5B0D5B
:10B8C0000A4055E680231B031E4211D05A461A42F5
:10B8D0000ED15E461E433603360B2A0089467B4B4B
:10B8E00046E6032B00D1E1E0012BBBD11A40BBE6B9
:10B8F0001E433603360B4246744B39E6002BB1D05B
:10B900007D194A1EAF4252D91100A542A8D1039A0F
:10B910009A42A5D1A6E703003E00283B9E400023A3
:10B92000994654E600F0DEFF203041E6030052461F
:10B93000283B9A400021934677E6504600F0D2FF1C
:10B9400020305EE6029B0026AB4200D323E7039E35
:10B950000299B44661448846B045B6415B4676429A
:10B96000F619B218013B0291974213D290424FD878
:10B9700000D18EE0161A9B460DE7894500D28EE66F
:10B9800074084B46F60735005B081D434B46DB0742
:10B9900002938BE69742EDD10399029CA142E5D92F
:10B9A0003E1A9B46F7E69846CAE61E00A5E6AC425C
:10B9B0003ED874D0110053E70121494252E71C00E0
:10B9C0000EE71E002BE71F2D3CDC20230A00584603
:10B9D0005B1B9840EA4099400243481E81415E4605
:10B9E0001143EE404B0709D00F230B40042B05D029
:10B9F0000B00191D99429B415B42F61833023CD55E
:10BA00005346012200211A40002601238946AFE552
:10BA100002235B429C46039CE344A446029B63448E
:10BA20009846A045B6417642F6190293B218B1E69F
:10BA300003988A1E41008142B6417642F619AD193B
:10BA4000039161E71F225242D31A5A46DA4013008B
:10BA5000202D29D040225846551BA8400143481E9E
:10BA6000814107200B4318400026002809D00F22EF
:10BA700000261A401900042ABBD10B007007760279
:10BA8000360BDB0803439946012253461A40002334
:10BA90006EE502998D42BBD89B4600267BE6039853
:10BAA0009842C5D3110032E70020D7E780265B46D5
:10BAB00036031E433603360B009A8946034B57E57F
:10BAC000FF030000FFFFFFFEFE070000FF0700006E
:10BAD000F0B55F4656464D464446F0B40D039946D0
:10BAE0004E002B0B87B00700924680469B46760D92
:10BAF000CC0F002E69D06D4B9E4235D05B46802224
:10BB0000DD001204430F13432B439B46C3009846AA
:10BB1000674B00279C460023664401934A46150361
:10BB20005000D20F53462D0B400D914600D176E0C8
:10BB30005E4A90426CD080225B0F120413435C4A31
:10BB4000ED0094461D4353460022DB006044494605
:10BB50003618701C6140029017430F2F00D9AFE0D8
:10BB60005448BF00C759BF465B461F4300D088E01A
:10BB700000239B469846023308270193CEE74946A7
:10BB8000022A6AD0032A00D109E2012A00D0BBE1CF
:10BB900011400022002300259046CCB200212D0345
:10BBA0000A0D12052D0B1543434A1B0515401D4375
:10BBB0006D00E4076D0825434046290007B03CBCF2
:10BBC00090469946A246AB46F0BD034352D05B4631
:10BBD000002B00D18AE1584600F084FE03000B3BA5
:10BBE0001C2B00DD7BE11D22D31A3A0001005D46CB
:10BBF000DA4008398D4013008F402B439B46B846EE
:10BC00002E4B00279C46002360444642019385E763
:10BC100052462A432CD100250023022297E75246A0
:10BC20002A4321D0002D00D154E1280000F05AFE13
:10BC300003000B3B1C2B00DD46E11D21CB1A5146B6
:10BC40000200D9405346083A954093400D431B4AA1
:10BC5000944660444042002279E7012400220C40CF
:10BC6000124B0025904699E70025002301226EE73C
:10BC700003226CE700239B46984601330427019377
:10BC80004CE703230C27019348E7002380259846BF
:10BC900000242D03054B81E75D464346019A6FE77B
:10BCA0005D4643462100019A6AE7C046FF0700004F
:10BCB00001FCFFFFE0CF0100FFFF0F80F303000056
:10BCC0004246120C91461A0C9446424617044A46C4
:10BCD0001B041B0C5A43604690464A4642431000E0
:10BCE000039262461C003F0C7A437C43424401921B
:10BCF000220C9246019A5244904506D982468020F1
:10BD000040028046C24450460390100C04904846BE
:10BD10002404240C1204121905922A0C2D042D0C53
:10BD200068432C00824648467C4350438146200CA1
:10BD30008046574357444744BA4503D980204002C0
:10BD40008046C144380C3F04B84648442404240CBF
:10BD500001900498A044404404905846000C814649
:10BD600058460404200C8246070048465F434C4670
:10BD70004343604660436446834650464443380C20
:10BD80008446E4186444A34203D980235B029C46A2
:10BD9000E34448463F04230C3F0C2404E41957466F
:10BDA00068436F4384464D46504655434243380CE2
:10BDB000814662444A445B44944503D98020400252
:10BDC0008446654403983F04834604983F0C8446A8
:10BDD000E344C345804140428246100484460198B2
:10BDE000674484466744A344BC46A345A44199469E
:10BDF000D44464428742BF41D4458041E144A046D7
:10BE000099459B417F424042C8440743120CBA18EF
:10BE1000A045A4415F423B0064422343D7184346F8
:10BE20007D19DB0D6D021D435B465A02059B1A43CB
:10BE3000531E9A415B46DB0D1A4343465B02134394
:10BE4000EA0107D501225C0813402343EA07029E5A
:10BE500013436D08574AB218002A4BDD580709D022
:10BE60000F201840042805D0181D98429B415B42C2
:10BE7000ED180300E80104D54F4A15408022D20096
:10BE8000B2184E48824200DDE7E60124DB0868076D
:10BE900018436D02530580462D0B5B0D0C407DE66B
:10BEA000802259461203114208D0154206D115438B
:10BEB0002D0398462D0B4C46414B6FE65D461543CE
:10BEC0002D032D0B3E4B69E603005546283B9D4054
:10BED0000023BCE6504600F005FD2030A8E6030034
:10BEE000283B9F400023BB46984689E600F0FAFCB9
:10BEF000203073E60124A61A382E07DD00220C40FC
:10BF000000230025904649E6029EA3E71F2E20DC71
:10BF100020222C001800921BF040944093400443D0
:10BF2000581E83411C43F540630709D00F2323406B
:10BF3000042B05D023001C1D9C4292415242AD1897
:10BF40002B021FD5012400220C400123002590461E
:10BF500024E61F202C004042821AD440202E1CD000
:10BF60004022961BB5402B43581E83410720234394
:10BF700018400025002809D00F2200251A401C0077
:10BF8000042AD8D1230068076D022D0B0124DB0899
:10BF9000034398460C40002300E60025E3E7802297
:10BFA0000124120315432D0398462D0B0C40044B1E
:10BFB000F4E5C046FF030000FFFFFFFEFE070000A0
:10BFC000FF070000F0B557464E464546E0B40E0068
:10BFD0001100F20F9246C500420F18033703740098
:10BFE000400A4E0F7F0A3043CF4E17435A00640D6C
:10BFF000520DDB0FC900B24200D1E5E001267340CB
:10C00000A61AB446534500D1AFE0002E00DC0DE186
:10C01000002A3AD103000B4300D0E4E06B0709D0BB
:10C020000F232B40042B05D02B1DAB42AD416D429D
:10C030007F191D003B0200D488E0BB4B01349C42B9
:10C0400000D110E13A00B94B51461A400123500784
:10C05000ED08520264050543120B640D0B400021EC
:10C06000280012030D0D120B64052D0515436208FF
:10C07000AF4CDB072C401443640064081C432100D0
:10C080001CBC90469946A246F0BDA74B9C42C5D029
:10C0900080231B0418436346382B00DDFDE01F2B73
:10C0A00000DD30E1624620239B1A02009A4066467A
:10C0B00090460A009940F24046464B1E9941324351
:10C0C000114363460200DA40691A8D429B410D001C
:10C0D000BA1A5B42D71A3B0235D57A02530A984600
:10C0E0004346002B00D1C4E0404600F0FBFB0300B8
:10C0F000083B1F2B00DDC5E020222900D21A47464D
:10C10000D1409F400A009D403A439C4200DDC0E080
:10C110001C1B631C1F2B00DDE4E020211400280001
:10C12000C91AD8408C408D400443DA40681E8541CE
:10C1300017002543002471E7424663461A4300D1A5
:10C140004CE2674645466B0700D069E7012351463C
:10C150007807ED08FA080B40054373498C4238D044
:10C1600012036405120B640D79E7002E00DC9AE0DF
:10C17000002A47D06C4A944200D14FE78022120433
:10C1800010436246382A00DC08E10143481E814121
:10C190000022C9B24919D219A942BF410D007F42FC
:10C1A000BF183A0200D442E15F4A0134944200D100
:10C1B0004EE101205D4A69083A4028400843D5070E
:10C1C000054357089A4629E706000E4300D017E7B3
:10C1D00014E72900114300D1F9E1802109030A4342
:10C1E0001203120B3BE701235B429846C4446346AB
:10C1F000002B72D1691A8D429B413F1A5B42FF1A94
:10C200000D0068E702000A4300D107E7012252420D
:10C210009046C4446246002A00D0E6E06918A9426C
:10C22000B6413F187642F7190D00BAE7002E00D04C
:10C2300080E0621C5205520D012A00DCF9E06A1A06
:10C2400091464D45B6413A1A7642921B90461202EB
:10C2500000D499E04D1BA9428941C71B49427A1A73
:10C2600090469A463CE7524601230025134000229F
:10C27000F5E6280000F036FB20300300083B1F2BBA
:10C2800000DC39E72A002838824000259C4200DC87
:10C290003EE7264FE41A1740C0E60143481E81419D
:10C2A0000022C9B210E7002E00D0F1E0621C9446D3
:10C2B0005205520D012A00DCA0E01B4A944500D132
:10C2C000C5E06918A94292413F185242D219490863
:10C2D000D5070D4357086446A0E6134B9C4200D097
:10C2E000D9E69BE611001F3CE1400C00202B00D159
:10C2F00080E04021CB1A9A4015436A1E95410027E1
:10C30000254300241FE763460200203BDA406346D2
:10C31000202B71D0402366469B1B98400143481E4A
:10C32000814111430022CFE6FF070000FFFF7FFF9E
:10C33000FFFF0F80002C48D0CA4CA24200D1A2E0DF
:10C340007442A1468024240427434C46382C00DD47
:10C35000DBE01F2C00DD44E14E462024A41B3E0000
:10C36000A640A246B0464C462E00E640B44646469D
:10C37000644626435446A5406C1EA54134002C4318
:10C380004D46EF400D1B28E04A4643464D461A43B2
:10C3900000D0A5E6002300240025DEE61F2A5ADC93
:10C3A00066462022921B060096409146B0466246A1
:10C3B0000E00D640424616434A4691404A1E9141DD
:10C3C000020060463143C240E4E63C002C435AD0B0
:10C3D000F443A146002C52D14D1BA9428941C71BF1
:10C3E00049427F1A14009A4675E69E4A944200D04C
:10C3F000C7E613E600227FE700208FE7002C00D07D
:10C40000C8E03B002B4300D10FE103000B4300D1F8
:10C4100004E66918A9429B413F185B42DF193B02C1
:10C4200000D41AE1904B0D001F406446F6E59A4691
:10C4300089E63A002A43002C5CD1002A75D102001B
:10C440000A4300D1CAE007000D009A46E6E56446BB
:10C450000022002581E662460600203AD640624668
:10C46000B046202A00D1B7E040226646921B904099
:10C4700001434246481E8141114300228AE6794C1D
:10C48000A24200D061E707000D0014009A46C5E5FE
:10C49000002C41D13C002C4378D0F443A146002C21
:10C4A00020D0704CA24271D04C46382C00DDB2E056
:10C4B0001F2C00DDBCE02026341BA2463C00564663
:10C4C000B4404E46A0462C00F440A446444666467E
:10C4D0003443A4465446A54064466E1EB5412543E8
:10C4E0004C46E7406D188D4289413F184942CF19AB
:10C4F000140056E6002A2FD102000A4300D184E03E
:10C5000007000D009A46574C88E53D436F1EBD411C
:10C51000ECB200270D1B60E7524CA24236D07442A9
:10C5200080263604A1463743BEE702000A4300D105
:10C5300074E56A1A90464545B6413A1A7642921B0E
:10C540009446120200D4F7E54D1BA9428941C71B4E
:10C5500049427F1A9A4661E502000A433AD0ED0843
:10C560007C072C438025FA082D032A4208D0C708EF
:10C570002F4205D145072C003A009A46C9080C43C2
:10C58000670FD200E5001743364C47E507000D0062
:10C59000140043E53A002A4343D002000A4319D06D
:10C5A000ED087C072C438025FA082D032A4207D08A
:10C5B000C6082E4204D147073C003200C9080C438C
:10C5C000D700620FE50017439A46264C26E5002265
:10C5D000002544E5234C21E5002049E70023002500
:10C5E000BBE54C463E00203CE6404C46B446202C81
:10C5F00031D040244E46A61BB7403D436C1EA5419A
:10C6000064462C4300270D1BE7E68022002312031B
:10C61000144C0025A1E53D436F1EBD410027EDB23E
:10C6200060E707000D000F4CF8E407000D00F5E48B
:10C630004E463C00203EF440A0464C46202C0ED0F6
:10C6400040244E46A41BA7403D436F1EBD414446B7
:10C650000027254346E70027CFE70D0073E50027B5
:10C66000F2E7C046FF070000FFFF7FFF0B0330B576
:10C67000134D1A0B4B005B0DC90F0024AB4211DDAB
:10C68000104CA34210DC8024640322430E4CE41AB5
:10C690001F2C0CDD0D48C31ADA4013005C42002940
:10C6A00000D11C00200030BD094BCC18FAE7E04057
:10C6B000084CA44663449A4013000343EEE7C04687
:10C6C000FE0300001D0400003304000013040000FA
:10C6D000FFFFFF7FEDFBFFFF70B5002830D0C317D1
:10C6E000C4185C40C50F200000F0FCF8174B184A36
:10C6F0001B1AD21A1F2A18DD164AD21A9440002299
:10C7000024035B05240B5B0D0021100024030A0D9C
:10C710001205240B1443104A1B0514401C436400EB
:10C72000ED0764082C43210070BD210091400A00F0
:10C730000B21081AC4405B052403240B5B0DE3E7BF
:10C740000025002300240022DEE7C0461E0400006E
:10C750003304000013040000FFFF0F8070B5051EB6
:10C7600028D000F0BFF8154B154A1B1AD21A1F2A01
:10C7700016DD2C00134A0025D21A94405A052403D2
:10C78000240B520D002124030B0D240B1B05234306
:10C790000D4C1205234013435B002800590870BD5F
:10C7A0000B212C00081AC440954024035A05240B81
:10C7B000520DE7E700220024E4E7C0461E04000013
:10C7C0003304000013040000FFFF0F804B0070B51E
:10C7D0005E0D0C03751C640A420F6D052243C90FE0
:10C7E000C4006D0D012D2ADD3B4BF318FE2B1ADC26
:10C7F000002B42DD8001451EA841D2001043620F8C
:10C800000243500704D00F201040042800D0043207
:10C810008020C004104021D00133FF2B03D09201AF
:10C82000520ADBB201E0FF2300225202520ADB056A
:10C8300013435B00C9075B080B43180070BD002E53
:10C8400007D01443EFD08020D20080040243FF239E
:10C85000D7E722430023002A03D00522D208FF2B6A
:10C8600003D05202520ADBB2DFE7002A32D0802026
:10C87000C00302435202520AD7E71800173014DBF4
:10C880008020000402431E20C01A1F280FDC250050
:10C89000124BF3189D406E1EB5419A402B00134376
:10C8A0002200C2401A430023ABE70023D5E702254C
:10C8B0006D42EB1A1500DD40202809D0084BF31813
:10C8C0009A401443621E9441220000232A4398E7B1
:10C8D0000022F6E70022A8E780FCFFFF82FCFFFFB2
:10C8E000A2FCFFFF1C2101231B04984201D3000C72
:10C8F00010391B0A984201D3000A08391B099842D3
:10C9000001D30009043902A2105C40187047C046E8
:10C910000403020201010101000000000000000008
:10C920000B0010B50100180000F00CF810BD00005D
:10C9300010B5034B0A000100186800F072F810BD32
:10C94000B420002070B5054C05001300201E04D053
:10C950000A000220290000E000BF70BD00000000B6
:10C96000084B10B50400002B02D0002100E000BFEE
:10C97000054B1868836A002B00D09847200000F010
:10C9800065F9C0460000000024D001000E4B70B5D0
:10C9900000251E000D4CE41AA410A54204D0AB00E3
:10C9A000F35898470135F8E700F052F9084B002595
:10C9B0001E00084CE41AA410A54204D0AB00F358A2
:10C9C00098470135F8E770BDB8200020B820002056
:10C9D000B8200020D020002010B5034B01001868BB
:10C9E00000F074F810BDC046B420002010B5034B11
:10C9F0000100186800F024F810BDC046B4200020E3
:10CA0000002310B59A4203D0CC5CC4540133F9E73B
:10CA100010BD03008218934202D019700133FAE767
:10CA200070474A4370B51100140000F04FF8051E1E
:10CA300003D022000021FFF7ECFF280070BD0000AA
:10CA400030B500293ED004390B68002B00DAC91834
:10CA50001D4A13681400002B02D14B60116031E0B5
:10CA60008B420DD90A688818834203D118685B6825
:10CA700082180A604B60216024E08A4203D81300C8
:10CA80005A68002AF9D11D685C198C420BD10968DB
:10CA9000691858181960824214D1106852684118F8
:10CAA00019605A600EE08C4202D90C23036009E041
:10CAB00008680C18A24203D1146852682018086054
:10CAC0004A60596030BDC0463C230020032370B546
:10CAD000CD1C9D43083506000C2D01D20C2505E028
:10CAE000002D03DA0C230020336040E0A942F9D87E
:10CAF0001F4B1C681A002100002913D00B685B1B18
:10CB00000DD40B2B02D90B60CC181EE08C4202D145
:10CB1000636813601AE04B6863600C0016E00C0059
:10CB20004968E9E7134C2368002B03D1300000F07B
:10CB30002DF820602900300000F028F8431CD1D0E7
:10CB40000323C41C9C43A0420AD125602000072275
:10CB50000B30231D9043C31A09D05A42E25006E01D
:10CB6000211A300000F012F8431CEED1BAE770BD74
:10CB70003C2300203823002010B5034B0A0001009D
:10CB8000186800F024F810BDB4200020002370B510
:10CB9000064C05000800236000F04AF8431C03D14E
:10CBA0002368002B00D02B6070BDC04644230020BA
:10CBB000031C0A7801311A700133002AF9D1704739
:10CBC0000023C25C0133002AFBD1581E7047F8B520
:10CBD00006000C001500002904D11100FFF776FFB4
:10CBE000040018E0002A03D1FFF72AFF2C0012E00E
:10CBF00000F013F885420ED929003000FFF766FFD8
:10CC0000071E07D021002A00FFF7FAFE210030009E
:10CC1000FFF716FF3C002000F8BD0B1F1A68101F1D
:10CC2000002A04DA891804390B68D01804387047D0
:10CC3000044A1368002B03D01818106018007047BE
:10CC4000014BF9E74023002048230020FEE7C046BF
:10CC5000F8B5C046F8BC08BC9E467047F8B5C0465B
:10CC6000F8BC08BC9E46704730302E30302E303035
:10CC70003000000000000000000000009F8901005B
:10CC8000658901008B89010095890100C589010032
:10CC90008989010003040A1718190907060000030F
:10CCA000010100040102000302040205020602075A
:10CCB0000201010800020108020001070006000548
:10CCC0000004000300020206010002050101020047
:10CCD00000000000001700000000030003000A1F0E
:10CCE0000A1F0A0A17151D0A13090412190A151535
:10CCF0000A100003000000000E11000000110E00D9
:10CD000000000A040A0000040E04000010080000DD
:10CD10000004040400000800000010080402010ED2
:10CD200011110E0000121F10001915151200091123
:10CD3000150B000C0A091F081715151509081416FC
:10CD4000150811090503010A1515150A02150D0527
:10CD500002000A00000000100A000000040A11008E
:10CD6000000A0A0A0000110A040002011505020E59
:10CD70001115090E1E05051E001F15150A000E11BE
:10CD80001111001F11110E001F151511001F0505AF
:10CD900001000E1111150C1F04041F00111F1100BA
:10CDA000000911110F011F040A11001F10101000BB
:10CDB0001F0204021F1F0204081F0E11110E001F84
:10CDC0000505020006091916001F05050A101215AF
:10CDD00015090001011F01010F10100F00070810B5
:10CDE00008071F0804081F1B04041B0001021C0283
:10CDF000011915131100001F111100010204081080
:10CE00000011111F0000020102001010101010008C
:10CE1000010200000C12121E101F141408000C1244
:10CE20001212000814141F000E15151200041E051E
:10CE300001000215150F001F04041800001D00005A
:10CE4000000010100D001F040A1000000F10100049
:10CE50001E0204021E1E02021C000C12120C001EF6
:10CE60000A0A0400040A0A1E001C0202020010142E
:10CE70000A0200000F1414100E10101E10060810E5
:10CE800008061E1008101E120C0C120012140804C2
:10CE900002121A16120000041F1100001F000000E9
:10CEA000111F040000000404080800000000000333
:10CEB000040A17181909070620001A1B1C04081079
:10CEC0002040800000000000000000000000000082
:10CED000000000000000010203000000020000004A
:10CEE0000100000004000000050000001100000027
:10CEF0000C0000000B000000120000000A000000FF
:10CF0000060000001A0000001400000017000000D6
:10CF1000160000001500000010000000FFFFFFFFDA
:10CF2000FFFFFFFF000000001E00000019000000CE
:10CF300018000000070000000800000009000000C1
:10CF40000D0000000E0000000F0000001C0000009B
:10CF50001B0000001D000000130000000D0A006E01
:10CF6000616E00696E66006F7666002E000000003C
:10CF70000000000000000000EDA4010005A4010075
:10CF80005DA5010071A5010067A50100EBA40100EA
:10CF9000DFA401007DA5010009A50100DBA40100BB
:10CFA00094B6010062B5010068B6010058B50100F1
:10CFB00068B6010072B6010068B6010058B50100FC
:10CFC00062B5010062B5010072B6010058B50100FA
:10CFD0004EB501004EB501004EB50100C4B80100C8
:10CFE000C0BC010080BB010080BB01007EBB010012
:10CFF00098BC010098BC01008ABC01007EBB010006
:10D0000098BC01008ABC010098BC01007EBB0100F5
:10D01000A0BC0100A0BC0100A0BC0100A0BE01009A
:0CD020004300000054200020000000002D
:08D02C0048B1FF7F0100000084
:10D03400000000006464000003000000020000001F
:10D04400080000000A000000FFFFFFFF00000000CE
:10D05400010000000000020001000000FFFFFFFFCC
:10D0640000000000020000000000040002000000B4
:10D07400FFFFFFFF000000000300000000000800A5
:10D084000300000000000000000000000000000099
:10D09400000000000000000000000000000000008C
:10D0A4000000000020D0010000000000000000008B
:10D0B400000000000000000000000000000000006C
:10D0C400000000000000000000000000000000005C
:10D0D400000000000000000000000000000000004C
:10D0E4000000000054200020398101001586010051
:10D0F400198C0100819A0100999E0100E1A70100A9
:08D104000D8101000000000094
:0400000310009F3515
:00000001FF
