:100000000C9464000C948C000C948C000C948C0068
:100010000C948C000C948C000C948C000C9488072D
:100020000C948C000C948C000C948C000C9486081E
:100030000C948C000C948C000C948C000C948C0010
:100040000C943C080C948C000C940A080C94E40763
:100050000C948C000C948C000C948C000C948C00F0
:100060000C9442090C948C0000000000240027002E
:100070002A000000000023002600290000000008DC
:10008000000201000003040700000000000000005F
:10009000010204081020408001020408102001021F
:1000A0000408102000000000250028002B00040494
:1000B0000404040404040202020202020303030310
:1000C000030302005D0AA40E11241FBECFEFD8E087
:1000D000DEBFCDBF11E0A0E0B1E0ECE4F6E202C08B
:1000E00005900D92A632B107D9F723E0A6E2B1E060
:1000F00001C01D92A430B207E1F710E0C3E6D0E0E2
:1001000004C02197FE010E942111C236D107C9F710
:100110000E94D50A0C9419130C94000080E00895F5
:10012000AF92BF92CF92DF92EF92FF920F931F9305
:10013000CF93DF936C017B018B01040F151FEB0143
:100140005E01AE18BF08C017D10759F06991D601FA
:10015000ED91FC910190F081E02DC6010995892B6C
:1001600079F7C501DF91CF911F910F91FF90EF902B
:10017000DF90CF90BF90AF90089542E050E069E1EA
:1001800071E080E292E00C949000FC01538D448D6C
:10019000252F30E0842F90E0821B930B541710F032
:1001A000CF96089501970895FC01918D828D98173F
:1001B00061F0A28DAE0FBF2FB11D5D968C91928D17
:1001C0009F5F9F73928F90E008958FEF9FEF089548
:1001D000FC01918D828D981731F0828DE80FF11D11
:1001E000858D90E008958FEF9FEF0895FC01918D2C
:1001F000228D892F90E0805C9F4F821B91098F7325
:100200009927089580E292E00E94F60021E0892B70
:1002100009F420E0822F089580E090E0892B29F0F6
:100220000E94020181110C9400000895FC01A48D2C
:10023000A80FB92FB11DA35ABF4F2C91848D90E008
:1002400001968F739927848FA689B7892C93A089EB
:10025000B1898C91837080648C93938D848D981375
:1002600006C00288F389E02D80818F7D8083089508
:10027000EF92FF920F931F93CF93DF93EC0181E0F6
:10028000888F9B8D8C8D98131AC0E889F98980819D
:1002900085FF15C09FB7F894EE89FF896083E889D0
:1002A000F98980818370806480839FBF81E090E0C2
:1002B000DF91CF911F910F91FF90EF900895F62E4F
:1002C0000B8D10E00F5F1F4F0F731127E02E8C8DE9
:1002D0008E110CC00FB607FCFACFE889F98980812E
:1002E00085FFF5CFCE010E941601F1CFEB8DEC0F0B
:1002F000FD2FF11DE35AFF4FF0829FB7F8940B8F4B
:10030000EA89FB8980818062CFCFCF93DF93EC01B4
:10031000888D8823B9F0AA89BB89E889F9898C91ED
:1003200085FD03C0808186FD0DC00FB607FCF7CFA9
:100330008C9185FFF2CF808185FFEDCFCE010E94A9
:100340001601E9CFDF91CF910895833081F028F431
:10035000813099F08230A9F008958730A9F0883073
:10036000C9F08430B1F4809180008F7D03C080910A
:1003700080008F7780938000089584B58F7784BD47
:10038000089584B58F7DFBCF8091B0008F778093E7
:10039000B00008958091B0008F7DF9CF1F93CF9367
:1003A000DF93282F30E0F901E458FF4F8491F901E1
:1003B000E057FF4FD491F901E255FF4FC491CC2390
:1003C000A9F0162F81110E94A501EC2FF0E0EE0F8D
:1003D000FF1FEC55FF4FA591B4918FB7F894EC91A6
:1003E000111108C0D095DE23DC938FBFDF91CF9130
:1003F0001F910895DE2BF8CF9091000189130BC057
:10040000E2ECF0E0E4919FEF90930001E13049F0DD
:1004100028F0E23061F060E00C94CE0110926E00A2
:10042000FACF90916F009D7F90936F00F4CF9091E1
:1004300070009D7F9093700091E09093B000909138
:10044000B100987F94609093B1001092B300E3CF15
:10045000CF93DF9390E0FC01E057FF4F249182554A
:100460009F4FFC0184918823D1F090E0880F991F61
:10047000FC01E859FF4FA591B491FC01EC55FF4FE9
:10048000C591D49161110EC09FB7F8948C91E22F61
:10049000E0958E238C932881E223E8839FBFDF9130
:1004A000CF9108958FB7F894EC91E22BEC938FBF26
:1004B000F6CF4F925F926F927F928F929F92AF9200
:1004C000BF92CF92DF92EF92FF920F931F93CF9341
:1004D000DF9300D000D01F92CDB7DEB78C012A0188
:1004E0003B01809100018A30C9F08F3F09F47FC041
:1004F0000F900F900F900F900F90DF91CF911F9161
:100500000F91FF90EF90DF90CF90BF90AF909F90B2
:100510008F907F906F905F904F900895E2ECF0E0A5
:1005200084918D8387FDE4CF61E08AE00E942802F8
:100530008D81882321F09D81923009F05CC14801B2
:10054000B12CA12C60E072E18AE790E0A50198014E
:100550000E94380F29833A834B835C8369017A01B7
:1005600081E0C81AD108E108F1089FEFC916D1044B
:10057000E104F10409F00CF413C160E472E48FE0CB
:1005800090E0A50198010E94380F69017A0181E08D
:10059000C81AD108E108F1089D81923009F098C08D
:1005A0008FEFC816D104E104F10409F00CF4DDC1A9
:1005B00060E970ED83E090E0A50198010E94380F9A
:1005C00069017A0191E0C91AD108E108F1088FEFB9
:1005D000C816D104E104F10411F00CF0A3C183E0CA
:1005E0009091B100987F892B8093B100E1C08AE09F
:1005F00080930001E2ECF0E094919D839F3F09F429
:1006000077CF913029F158F0923009F43FC08D81B5
:1006100087FD6ECF61E08AE00E9428028CCF14BC77
:1006200015BC84B5826084BD85B5816085BDE8EB6D
:10063000F0E0E491F0E0EE0FFF1FEC55FF4F8591E5
:100640009491EAE9F0E0E491E09313021D826CCF0B
:1006500010928000109281008091810088608093C8
:10066000810080918100816080938100E8EBF0E05F
:10067000E491F0E0EE0FFF1FEC55FF4F8591949150
:10068000EAE9F0E0E491E09312024ECF1092B0005C
:100690001092B1008091B00082608093B000809190
:1006A000B10081608093B100E8EBF0E0E491F0E00C
:1006B000EE0FFF1FEC55FF4F85919491909311021F
:1006C00080931002EAE9F0E0E491E0930F022CCF6E
:1006D0009FEFC916D104E104F10409F00CF489C0BC
:1006E00068E478EE81E090E0A50198010E94380F5F
:1006F00069017A0181E0C81AD108E108F1089D81F9
:10070000992309F428C19FEFC916D104E104F1042B
:1007100009F00CF41EC162E17AE780E090E0A501E7
:1007200094010E94380F69017A0181E0C81AD1084A
:10073000E108F1089D81992309F4EBC08FEFC816F9
:10074000D104E104F10411F008F0BFC086E048CF05
:1007500064E274EF80E090E0A50194010E94380FFC
:1007600069017A0181E0C81AD108E108F10885E041
:100770009FEFC916D104E104F10409F008F430CF69
:1007800062E17AE780E090E0A50194010E94380FD1
:1007900069017A0191E0C91AD108E108F108CECFC8
:1007A00081E09D8191111CCF95B5987F892B85BDE6
:1007B0002FEF3FEFA901411451046104710409F0C6
:1007C00043C09D81913009F45EC0923009F46DC040
:1007D00091118ECEC7BC20931C0230931D02409312
:1007E0001E0250931F0280916E00826080936E0003
:1007F0007FCE82E0D6CFB12CA12C60E072E18AE7F7
:1008000090E0A50198010E94380F69017A0181E00A
:10081000C81AD108E108F108C114D10491E0E90631
:10082000F10404F591E08D81813011F68091810011
:10083000887F892B809381002FEF3FEFA90141141E
:10084000510461047104F9F0D801AA0FBB1FA30180
:1008500092010E94570F28EE33E040E050E00E94E2
:10086000990FAFCF68E478EE81E090E0A5019801A0
:100870000E94380F69017A0181E0C81AD108E108A5
:10088000F10893E0D0CFD0928900C09288002093E5
:1008900018023093190240931A0250931B02809160
:1008A0006F00826080936F0023CEC092B3002093CC
:1008B0001402309315024093160250931702809150
:1008C000700082608093700013CEC980DA80EB8064
:1008D000FC809AE0F594E794D794C7949A95D1F761
:1008E00091E0C91AD108E108F10887E079CEC98002
:1008F000DA80EB80FC808AE0F594E794D794C79483
:100900008A95D1F791E0C91AD108E108F10885E08C
:100910004BCF8FEFC816D104E104F10409F038F78A
:1009200084E042CF68E478EE81E090E0A501980190
:100930000E94380F69017A0191E0C91AD108E108D3
:10094000F1088FEFC816D104E104F10411F00CF0A6
:10095000FFCE84E045CE8FEFC816D104E104F10448
:1009600011F00CF0D8CE83E01FCF82E039CE8E306C
:1009700008F08E508770806480937C0080917A00AC
:10098000806480937A0080917A0086FDFCCF80910C
:1009900078009091790008953FB7F8948091A7016D
:1009A0009091A801A091A901B091AA0126B5A89B98
:1009B00005C02F3F19F00196A11DB11D3FBFBA2FF1
:1009C000A92F982F8827BC01CD01620F711D811DB1
:1009D000911D42E0660F771F881F991F4A95D1F736
:1009E00008956F927F928F929F92AF92BF92CF9213
:1009F000DF92EF92FF920F931F93CF93DF93C82F55
:100A0000D62F2091950130919601409197015091F8
:100A100098016091990170919A0180919B01909148
:100A20009C01C0909D01D0909E01E0909F01F090AC
:100A3000A0011091A101B091A201A091A301F09198
:100A4000A4010C2F0E94FA10E22FEE0FE270960123
:100A5000A701612F7B2F8A2F9F2F0E94FA102170F0
:100A6000E22BDE1709F49BC06D2F8C2F0E94280209
:100A70002EEF3FEF4FEF5FEF6FEF7FEF8FEF9FEFC7
:100A80000E94DF10D22EE32EF42E152FB62FA72FA3
:100A9000F82FE92FDD2309F491C060909D0170903B
:100AA0009E0180909F019090A001A090A101B09024
:100AB000A201C090A301D091A40121E030E040E068
:100AC00050E060E070E080E090E00E94DF102629B6
:100AD0003729482959296A297B298C299D2B20935C
:100AE0009D0130939E0140939F015093A00160931C
:100AF000A1017093A2018093A3019093A40170912E
:100B00009501609196015091970140919801309123
:100B1000990120919A0190919B0180919C017D21E6
:100B20006E215F2141233B232A239F238E23709331
:100B300095016093960150939701409398013093EB
:100B4000990120939A0190939B0180939C0120919D
:100B5000AF013091B0014091B1015091B20160916B
:100B6000B3017091B4018091B5019091B6012D212E
:100B70003E214F2151236B237A238F239E232093E1
:100B8000AF013093B0014093B1015093B201609333
:100B9000B3017093B4018093B5019093B601DF91D6
:100BA000CF911F910F91FF90EF90DF90CF90BF906A
:100BB000AF909F908F907F906F90089570919D015E
:100BC00060919E0150919F014091A0013091A1013F
:100BD0002091A2019091A3018091A4017D216E2119
:100BE0005F2141233B232A239F238E2370939D0162
:100BF00060939E0150939F014093A0013093A10107
:100C00002093A2019093A3018093A40178CFDF9257
:100C1000EF92FF920F931F93CF93DF93C82FD62F9E
:100C200061E00E94F104D090AF01E090B001F0903B
:100C3000B1011091B201B091B301A091B401F09152
:100C4000B501E091B601DD2371F121E030E040E033
:100C500050E060E070E080E090E00C2F0E94DF1038
:100C60002D293E294F29512B6B2B7A2B8F2B9E2B15
:100C70002093AF013093B0014093B1015093B20182
:100C80006093B3017093B4018093B5019093B60162
:100C90006D2F8C2FDF91CF911F910F91FF90EF90CF
:100CA000DF900C94CE012EEF3FEF4FEF5FEF6FEF31
:100CB0007FEF8FEF9FEF0C2F0E94DF102D213E2141
:100CC0004F2151236B237A238F239E23D1CF85ED90
:100CD0008093BC008091BC0084FDFCCF10926F011A
:100CE000089520914B01260F3327331F2132310500
:100CF000ECF420916F01FC0190E080E0243069F079
:100D000082E00895A0914B012191AC01455D5E4FB9
:100D1000A40FB52FB11D2C930196861798F38091DF
:100D20004B01680F60934B0180E0089581E00895C6
:100D300008958FEF9FEF08958FEF9FEF08958091B3
:100D40002A0190E09195819591090895CF93DF93C1
:100D5000CB01EA01642F0E947106CE01DF91CF9191
:100D60000895CF93DF931F92CDB7DEB7698361E01B
:100D7000CE0101960E94710681E090E00F90DF9114
:100D8000CF91089590E080E00895682F80E292E08E
:100D90000C943801CF92DF92EF92FF92CF93DF93C2
:100DA0006B017C0183E00E94C506C701B6010E9469
:100DB000A910862FC72F6093B7017093B8010E94C6
:100DC000C5068C2F0E94C506C7EBD1E08A810E9420
:100DD000C5068B81DF91CF91FF90EF90DF90CF9090
:100DE0000C94C5060F931F93CF93DF938B01D82FDD
:100DF000C92F82E00E94C506C801AD2FBC2F809389
:100E0000260190932701A0932801B09329010E9405
:100E1000C506812F0E94C5068D2F0E94C5068C2F06
:100E2000DF91CF911F910F910C94C5068FEF0E9417
:100E3000C50685E50E94C5060C94BD00829739F56C
:100E40008091D3018093B7018091D4018093B80140
:100E50008091B7019091B8012091D5012093B701FD
:100E60002091D6012093B8011816190664F4409118
:100E7000B7015091B801052E000C660B770B0E944C
:100E8000590281E008958AE00E94FC01FACF80E0D7
:100E90000895EF92FF920F931F93CF93DF93EC018E
:100EA0007B018A0188819981009729F02A813B8101
:100EB0002417350788F4B8016F5F7F4F0E944C12EA
:100EC000009791F0998388831B830A832C813D814D
:100ED000232B11F4FC0110821D830C83B701888140
:100EE00099810E9412130CC088819981009711F09A
:100EF0000E94C311198218821D821C821B821A82D1
:100F0000CE01DF91CF911F910F91FF90EF90089547
:100F10001F920F920FB60F9211242F933F934F936E
:100F20005F936F937F938F939F93AF93BF93EF9351
:100F3000FF938091140290911502A0911602B09136
:100F40001702892B8A2B8B2BD1F190910F02E09104
:100F50001002F09111028081892780838091140210
:100F600090911502A0911602B09117021816190659
:100F70001A061B069CF48091140290911502A09110
:100F80001602B09117020197A109B10980931402CA
:100F900090931502A0931602B0931702FF91EF9160
:100FA000BF91AF919F918F917F916F915F914F9181
:100FB0003F912F910F900FBE0F901F901895809129
:100FC00000010E94FC01EACF1F920F920FB60F9210
:100FD00011242F933F934F935F936F937F938F933E
:100FE0009F93AF93BF93EF93FF9380E292E00E94B1
:100FF0001601FF91EF91BF91AF919F918F917F91DA
:101000006F915F914F913F912F910F900FBE0F9075
:101010001F9018951F920F920FB60F9211242F93C5
:101020008F939F93EF93FF93E0913002F091310201
:101030008081E0913602F091370282FD1BC09081E1
:10104000809139028F5F8F7320913A02821741F0AD
:10105000E0913902F0E0E05EFD4F958F8093390218
:10106000FF91EF919F918F912F910F900FBE0F9055
:101070001F9018958081F4CF1F920F920FB60F9298
:1010800011242F933F938F939F93AF93BF9380919E
:10109000AB019091AC01A091AD01B091AE01309146
:1010A000A60123E0230F2D3758F50196A11DB11D90
:1010B0002093A6018093AB019093AC01A093AD0166
:1010C000B093AE018091A7019091A801A091A901D0
:1010D000B091AA010196A11DB11D8093A701909323
:1010E000A801A093A901B093AA01BF91AF919F91CC
:1010F0008F913F912F910F900FBE0F901F901895D9
:1011000026E8230F0296A11DB11DD2CF1F920F9288
:101110000FB60F9211242F933F934F935F936F93CA
:101120007F938F939F93AF93BF93CF93DF93EF936F
:10113000FF938091A501C091E102D0E087FF24C018
:1011400010928500109284008091A5018F5F80939A
:10115000A5018091A501082E000C990B8C179D0705
:1011600024F48091A5018C30C4F180918400909189
:101170008500049680349C4908F47AC080918400EC
:1011800090918500049676C08091A501082E000CF0
:10119000990B8C179D07C4F6E091A5018E2FEE0FD9
:1011A000990BFC01EE0FFF1FE80FF91FE354FD4FF1
:1011B000808186FFC9CFE091A5018E2FEE0F990B9C
:1011C000FC01EE0FFF1FE80FF91FE354FD4F808174
:1011D00060E08F730E94CE01B7CF209184003091E0
:1011E0008500E091A5018E2FEE0F990BFC01EE0F0B
:1011F000FF1FE80FF91FE354FD4F81819281820F99
:10120000931F9093890080938800E091A5018E2F11
:10121000EE0F990BFC01EE0FFF1FE80FF91FE354CF
:10122000FD4F808186FF11C0E091A5018E2FEE0F4A
:10123000990BFC01EE0FFF1FE80FF91FE354FD4F60
:10124000808161E08F730E94CE01FF91EF91DF9169
:10125000CF91BF91AF919F918F917F916F915F914E
:101260004F913F912F910F900FBE0F901F901895A7
:1012700080E49CE990938900809388008FEF8093AD
:10128000A501E3CF1F920F920FB60F9211242F9357
:101290003F934F935F936F937F938F939F93AF93FE
:1012A000BF93EF93FF938091B900887F803609F454
:1012B0004AC0F0F5883209F4A5C018F5803109F468
:1012C00099C0B8F4882309F4F5C0883009F492C0B5
:1012D000FF91EF91BF91AF919F918F917F916F910E
:1012E0005F914F913F912F910F900FBE0F901F90E4
:1012F0001895883109F486C0803251F780936E01C9
:1013000014C0803409F49BC040F48033B9F38833AF
:10131000F9F680936E0185ECAEC0803509F483C088
:10132000883509F494C0883499F60E946706D0CFB6
:10133000883909F48AC038F5883729F050F488369E
:1013400011F0803729F683E080936F0110926D01D0
:1013500055C0883809F479C0803919F0803809F00F
:10136000B7CF80916D01803208F06FC0E0916D01C0
:1013700081E08E0F80936D018091BB00F0E0E35B14
:10138000FE4F80833BC0803B39F0D0F4803A09F4B3
:1013900077C0883A09F09CCF84E080936F01109267
:1013A0004C0110924B01F0E0E0E0099580914B0177
:1013B00081110FC081E080934B0110922B0109C075
:1013C000803C09F4A8CF883C09F4A5CF883B09F0FC
:1013D0007FCFE0914C0181E08E0F80934C01F0E0D3
:1013E000E55DFE4F80818093BB0090914C01809120
:1013F0004B0129C0809194018093BB0085EC8093C0
:10140000BC0066CF9091930180919201981758F596
:10141000E091930181E08E0F80939301F0E0EE580C
:10142000FE4F8081E9CFE091930181E08E0F8093A0
:1014300093018091BB00F0E0EE58FE4F80839091C5
:101440009301809192019817C8F285E8D8CFE09176
:10145000930181E08E0F809393018091BB00F0E0B7
:10146000EE58FE4F80838091710181115ECF81E043
:101470008093700184EA8093BC0010926F0128CFA2
:1014800085EC8093BC0010926F0180916D018032D9
:1014900030F4E0916D01F0E0E35BFE4F108260916B
:1014A0006D0170E08DE491E0F0E0E0E009951092CC
:1014B0006D010ECF10926E0138CF10922302109260
:1014C000220288EE93E0A0E0B0E0809324029093A3
:1014D0002502A0932602B09327028BE091E090931F
:1014E00021028093200285EC90E090932D0280935E
:1014F0002C0284EC90E090932F0280932E0280ECDB
:1015000090E0909331028093300281EC90E09093D0
:1015100033028093320282EC90E090933502809304
:10152000340286EC90E0909337028093360210925A
:10153000390210923A0210923B0210923C02109231
:10154000FB021092FA021092FD021092FC0210921D
:10155000FF021092FE0249E050E06CE171E08AEF78
:1015600092E00E944907E2EEF2E02FEF48EB5BE0E9
:101570008091E1028C30B8F491E0980F9093E102F1
:10158000808390E0DC01AA0FBB1FA80FB91FA354F2
:10159000BD4F12965C934E931197339682E0EA3FCB
:1015A000F80731F708952083F8CFCF93DF9300D069
:1015B00000D000D01F92CDB7DEB7789484B582609A
:1015C00084BD84B5816084BD85B5826085BD85B5E7
:1015D000816085BD80916E00816080936E00109265
:1015E00081008091810082608093810080918100E0
:1015F0008160809381008091800081608093800071
:101600008091B10084608093B1008091B0008160CE
:101610008093B00080917A00846080937A008091FA
:101620007A00826080937A0080917A008160809352
:101630007A0080917A00806880937A001092C100CD
:10164000E0913002F091310282E08083E0912C023F
:10165000F0912D021082E0912E02F0912F0280E194
:10166000808310923802E0913402F091350286E0D6
:101670008083E0913202F091330280818061808327
:10168000E0913202F0913302808188608083E091A2
:101690003202F0913302808180688083E0913202CF
:1016A000F091330280818F7D80838EE197E090936B
:1016B000CA018093C9018EE890E09093CC01809399
:1016C000CB0142E350E060E070E084EF91E00E94E3
:1016D00059020E94CC044B015C0102E3C02ED12CC4
:1016E000E12CF12C0E94CC04681979098A099B0924
:1016F000683E734081059105A8F321E0C21AD10824
:10170000E108F10888EE880E83E0981EA11CB11C48
:10171000C114D104E104F10429F78AE00E94FC011C
:1017200044244A9413E0512E612C712C2FB7F89465
:101730006091AB017091AC018091AD019091AE01CF
:101740002FBF0E94AA0E20E030E04AE754E40E9436
:10175000371020910B0230910C0240910D025091F4
:101760000E020E94CA0F4B015C0180920702909208
:101770000802A0920902B0920A021092060280E2C8
:1017800092E00E94F600181619064CF4F1E0F0936E
:10179000060280E292E00E94D400809305028091CC
:1017A00006028823D1F180910502909104028535CB
:1017B00009F040C091113EC0809103028F3F29F48F
:1017C00021E02093020220930402809102028F5FA5
:1017D000843308F046C0809302028091040288237B
:1017E000E1F080910102811118C0809102028430E1
:1017F000A0F0109204020091D0018091D101C0901C
:10180000D201EC2CF12C002389F1823009F4B6C00E
:101810007CF5813099F110920202E0E0F0E0EF2BCC
:1018200009F484CF0E940201882309F47FCF0E942B
:1018300000007CCF80930302992339F2E0910202E9
:10184000E23039F480930102F0E0E353FE4F8083ED
:10185000BCCFE330C8F39091010291509093010204
:10186000F3CF1092020210920402B7CF8701CDCFBE
:101870008450823080F60E941607CDCF8FEF0E94F1
:10188000C50685E50E94C506802F0E94C50682E335
:10189000C81207C0C501B4010E94F2060E94BD0033
:1018A000BACFE091CB01F091CC01C701099581112C
:1018B000F5CF1091D3019FE1C91609F437C0EEECC2
:1018C000CE1609F445C0FEE1CF12E8CF60E0812FCB
:1018D0000E942802212F30E0F901E458FF4F849143
:1018E000F901E057FF4F0491F901E255FF4F1491C0
:1018F00070E060E0112399F081110E94A501E12FB1
:10190000F0E0EE0FFF1FEE58FF4FA591B491EC9160
:101910000E2391E080E009F490E0692F782F072EE4
:10192000000C880B990B0E94AC0EB6CF1E3008F449
:10193000125F60E0812F0E94F104812F0E94B704A2
:10194000BC0190E080E00E94AA0E0E94CA06A6CFC9
:101950001E3008F4125F60E0812F0E94F104812F95
:101960000E94B7049C01A4E6B0E00E94BB0FA30153
:1019700092010E94380F622F70E0E3CFC1103CC08B
:101980001A8219821C821B821E821D826091FA02B9
:101990007091FB026115710541F04091FE0250917A
:1019A000FF02CE0101960E9449071D81E12EFE80B3
:1019B00084E00E94C506812F0E94C50610E000E069
:1019C0000E151F05A4F48D819E810817190768F470
:1019D00089819A81009749F0800F911FFC018081D5
:1019E0000E94C5060F5F1F4FEBCF80E0F9CF8981C2
:1019F0009A810E94C3113FCFF2E3EF16F104E1F4A4
:101A00002FB7F8946091AB017091AC018091AD015A
:101A10009091AE012FBF0E94AA0E20E030E04AE76D
:101A200054E40E94371060930B0270930C02809371
:101A30000D0290930E021FCFE091C901F091CA01EF
:101A4000C7010995811117CFB090D3010B2D10E07C
:101A500020E2C21609F455C02C154CF18EE1C812D3
:101A60000ACF6091D4016230F0F02091AF01309143
:101A7000B0014091B1015091B2016091B3017091F8
:101A8000B4018091B5019091B6010E94FA102170C5
:101A900030E040E050E060E070E080E090E0A0E006
:101AA0000E94151161F18B2D0E940706E4CE91E290
:101AB000C91609F487C0E2E2CE12DDCEB092B701BA
:101AC0008091D4018093B8018091B7019091B801C1
:101AD0002091D5012093B7012091D6012093B80120
:101AE000181619060CF06AC04091B7015091B80160
:101AF000052E000C660B770B0E945902BCCE61E0EC
:101B0000D2CFC090D40161E08B2D0E94F104EC2C67
:101B1000F12C61E08B2D0E942802C11005C060E00D
:101B20008B2D0E94CE01A7CEFFEFEF16F10411F42A
:101B300061E0F6CFF801E458FF4FE491E33021F182
:101B400048F4E130B9F0E230D1F020E8E216F104D7
:101B50007CF7E5CFE73011F1E83041F1E430A9F747
:101B600080918000806280938000F0928B00E092F0
:101B70008A0081CE84B5806884BDC7BC7CCE84B524
:101B8000806284BDC8BC77CE8091800080688093DD
:101B90008000F0928900E09288006DCE8091B000C4
:101BA00080688093B000C092B30065CE8091B00091
:101BB00080628093B000C092B4005DCE8AE00E9443
:101BC000FC0159CE8091D4018F83E9EBF1E090E0E4
:101BD00080E0219131910217130751F0232B09F076
:101BE000ABC0FC01EE0FFF1FE754FE4F11830083D3
:101BF000EF81E53B08F03FCEFC01EE0FFF1FE80F41
:101C0000F91FEE51FD4FA08081819281EA2CF12CC9
:101C10001701220C331C81010E0D1F1D03541D4F93
:101C2000F801208126FD3AC0FBE0FA15B8F161E029
:101C30008B2D0E9428028B2D8F73F801B080FB2D15
:101C4000F07CBF2EB82AF801B08290E080E0FC0161
:101C5000EE0FFF1FE80FF91FE354FD4F208126FD13
:101C600013C001968C30910591F710928000F2E03C
:101C7000F09381001092850010928400B19A8091B7
:101C80006F00826080936F00F101EE0DFF1DE35441
:101C9000FD4F80818064808390E080E0FBE0FA1556
:101CA00008F4E9CD28E5C22E22E0D22EC91AD108C7
:101CB00097FDD394CC0CDD1CCC0CDD1C08E810E0A7
:101CC000081B110987FD1395000F111F000F111F2D
:101CD0004801012E000CAA08BB0896010D2C000C2F
:101CE000440B550B281939094A095B098F81A82F24
:101CF000B0E00E94570F24EB30E040E050E00E943B
:101D0000380F820E931EA41EB51E801691062CF06D
:101D100086018C149D040CF4840102501109000FFB
:101D2000111F8FB7F894F101EE0DFF1DE354FD4F25
:101D3000128301838FBF9FCD01968830910509F0F2
:101D400048CF90E080E054CF8091FA029091FB025E
:101D50000C94C311E89409C097FB3EF490958095CC
:101D6000709561957F4F8F4F9F4F9923A9F0F92F61
:101D700096E9BB279395F695879577956795B795DF
:101D8000F111F8CFFAF4BB0F11F460FF1BC06F5FC5
:101D90007F4F8F4F9F4F16C0882311F096E911C0D7
:101DA000772321F09EE8872F762F05C0662371F0F8
:101DB00096E8862F70E060E02AF09A95660F771F0C
:101DC000881FDAF7880F9695879597F9089597F900
:101DD0009F6780E870E060E008959FEF80EC0895D1
:101DE00000240A94161617061806090608950024FA
:101DF0000A9412161306140605060895092E039474
:101E0000000C11F4882352F0BB0F40F4BF2B11F4E7
:101E100060FF04C06F5F7F4F8F4F9F4F089557FD46
:101E20009058440F551F59F05F3F71F04795880F48
:101E300097FB991F61F09F3F79F0879508951216DF
:101E400013061406551FF2CF4695F1DF08C016168B
:101E500017061806991FF1CF86957105610508943C
:101E60000895E894BB2766277727CB0197F9089553
:101E7000052E97FB1EF400940E944F0F57FD07D0CC
:101E80000E94990F07FC03D04EF40C944F0F50950D
:101E90004095309521953F4F4F4F5F4F0895909556
:101EA0008095709561957F4F8F4F9F4F08950E9449
:101EB000BB0FA59F900DB49F900DA49F800D911D09
:101EC000112408952F923F924F925F926F927F92CA
:101ED0008F929F92AF92BF92CF92DF92EF92FF923A
:101EE0000F931F93CF93DF93CDB7DEB7CA1BDB0BE6
:101EF0000FB6F894DEBF0FBECDBF09942A8839888B
:101F000048885F846E847D848C849B84AA84B98491
:101F1000C884DF80EE80FD800C811B81AA81B9819D
:101F2000CE0FD11D0FB6F894DEBF0FBECDBFED01B1
:101F30000895A1E21A2EAA1BBB1BFD010DC0AA1F0A
:101F4000BB1FEE1FFF1FA217B307E407F50720F022
:101F5000A21BB30BE40BF50B661F771F881F991F9D
:101F60001A9469F760957095809590959B01AC01E6
:101F7000BD01CF010895A29FB001B39FC001A39FEF
:101F8000700D811D1124911DB29F700D811D1124B2
:101F9000911D08955058BB27AA270E94E20F0C9468
:101FA000FE0E0E94F00E38F00E94F70E20F039F479
:101FB0009F3F19F426F40C94ED0E0EF4E095E7FB28
:101FC0000C94E70EE92F0E940F0F58F3BA1762071F
:101FD00073078407950720F079F4A6F50C94310F68
:101FE0000EF4E0950B2EBA2FA02D0B01B901900134
:101FF0000C01CA01A0011124FF27591B99F0593F78
:1020000050F4503E68F11A16F040A22F232F342FBF
:102010004427585FF3CF469537952795A795F0400D
:102020005395C9F77EF41F16BA0B620B730B840B22
:10203000BAF09150A1F0FF0FBB1F661F771F881FDA
:10204000C2F70EC0BA0F621F731F841F48F4879532
:1020500077956795B795F7959E3F08F0B0CF939524
:10206000880F08F09927EE0F9795879508950E949D
:102070004B100C94FE0E0E94F70E58F00E94F00ECA
:1020800040F029F45F3F29F00C94E70E51110C94B5
:10209000320F0C94ED0E0E940F0F68F39923B1F3E9
:1020A000552391F3951B550BBB27AA27621773077E
:1020B000840738F09F5F5F4F220F331F441FAA1F12
:1020C000A9F335D00E2E3AF0E0E832D091505040CE
:1020D000E695001CCAF72BD0FE2F29D0660F771F7C
:1020E000881FBB1F261737074807AB07B0E809F062
:1020F000BB0B802DBF01FF2793585F4F3AF09E3FE7
:10210000510578F00C94E70E0C94320F5F3FE4F326
:10211000983ED4F3869577956795B795F7959F5F29
:10212000C9F7880F911D9695879597F90895E1E075
:10213000660F771F881FBB1F621773078407BA07D4
:1021400020F0621B730B840BBA0BEE1F88F7E0952F
:1021500008950E94B0106894B1110C94320F089544
:102160000E94170F88F09F5798F0B92F9927B75101
:10217000B0F0E1F0660F771F881F991F1AF0BA952B
:10218000C9F714C0B13091F00E94310FB1E0089549
:102190000C94310F672F782F8827B85F39F0B93F3B
:1021A000CCF3869577956795B395D9F73EF49095DE
:1021B0008095709561957F4F8F4F9F4F0895002EAA
:1021C000083090F0982F872F762F652F542F432FAC
:1021D000322F22270850F4CF220F331F441F551FE0
:1021E000661F771F881F991F0A95B2F7002D089563
:1021F00097FD1094002E083098F00850232F342FAC
:10220000452F562F672F782F892F912DF4CF1594B6
:10221000979587957795679557954795379527951E
:102220000A95AAF71124002D08950024A7FD009413
:102230002A1730054005500560057005800590059A
:102240000895EE0FFF1F0590F491E02D09940F9370
:102250001F93CF93DF938230910510F482E090E0DA
:10226000E0910203F091030330E020E0B0E0A0E051
:10227000309799F42115310509F44AC0281B390B10
:1022800024303105D8F58A819B816115710589F16A
:10229000FB0193838283FE0111C040815181028141
:1022A000138148175907E0F04817590799F4109718
:1022B00061F012960C93129713961C933296CF01ED
:1022C000DF91CF911F910F91089500930203109316
:1022D0000303F4CF2115310551F04217530738F0AD
:1022E000A901DB019A01BD01DF01F801C1CFEF01B6
:1022F000F9CF9093030380930203CDCFFE01E20F49
:10230000F31F819391932250310939832883D7CFCA
:102310002091000330910103232B41F4209103010C
:1023200030910401309301032093000320910101B7
:10233000309102012115310541F42DB73EB740918E
:10234000050150910601241B350BE0910003F0912B
:102350000103E217F307A0F42E1B3F0B28173907E0
:1023600078F0AC014E5F5F4F2417350748F04E0FF1
:102370005F1F5093010340930003819391939FCF7C
:10238000F0E0E0E09CCFCF93DF930097E9F0FC0111
:10239000329713821282A0910203B0910303ED01E0
:1023A00030E020E01097A1F420813181820F931F4B
:1023B00020910003309101032817390709F061C00B
:1023C000F0930103E0930003DF91CF910895EA01B8
:1023D000CE17DF07E8F54A815B819E014115510563
:1023E000B1F7E901FB83EA8349915991C40FD51FE5
:1023F000EC17FD0761F4808191810296840F951F8F
:10240000E90199838883828193819B838A83F0E0A9
:10241000E0E012968D919C9113970097B9F52D915C
:102420003C911197CD010296820F931F20910003DA
:10243000309101032817390739F6309751F510927A
:10244000030310920203B0930103A0930003BCCFD7
:10245000D383C28340815181840F951FC817D90748
:1024600061F44E5F5F4F88819981480F591F5183F6
:1024700040838A819B81938382832115310509F0F2
:10248000B0CFF0930303E09302039ECFFD01DC0184
:10249000C0CF13821282D7CFB0E0A0E0E2E5F2E134
:1024A0000C94640F8C01009751F4CB010E9427110A
:1024B0008C01C801CDB7DEB7E0E10C94800FFC01C0
:1024C000E60FF71F9C0122503109E217F30708F4C9
:1024D0009DC0D901CD91DC911197C617D70798F00F
:1024E000C530D10530F3CE0104978617970708F35E
:1024F000C61BD70B2297C193D1936D937C93CF01C9
:102500000E94C311D6CF5B01AC1ABD0A4C018C0EE0
:102510009D1EA0910203B0910303512C412CF12C7C
:10252000E12C109731F580910003909101038815FB
:10253000990509F05CC04616570608F058C080910E
:10254000010190910201009741F48DB79EB740912F
:10255000050150910601841B950BE817F90708F057
:1025600055C0F0930103E0930003F9017183608388
:10257000A0CF8D919C91119712966C901297139603
:102580007C901397A815B90559F56C0142E0C40E6B
:10259000D11CCA14DB0420F1AC014A195B09DA0131
:1025A0001296159780F06282738251834083D9011D
:1025B0006D937C93E114F10471F0D7011396FC93B1
:1025C000EE93129776CF22968C0F9D1FF90191837F
:1025D0008083F301EFCFF0930303E093020369CF0D
:1025E0004816590608F42C017D01D3019ACFCB017E
:1025F0000E9427117C01009749F0AE01B8010E94AA
:102600000913C8010E94C311870153CF10E000E0F5
:1026100050CFFB01DC0102C001900D9241505040AF
:10262000D8F70895FB01DC0101900D920020E1F73D
:10263000089510E0C3E6D0E004C0FE010E9421111D
:0C2640002196C436D107C9F7F894FFCFEB
:10264C00FF0000040380000000000038019000C56A
:10265C00008501F600D400E8000D0A0030302E3061
:06266C00302E303030007A
:00000001FF
