:1000000004C1000033C1000031C100002FC1000055
:100010002DC100002BC1000029C1000027C1000034
:1000200025C1000023C1000021C100001FC1000044
:100030001DC100000C942E0A19C1000017C1000058
:1000400015C100000C94BE0B11C100000FC10000CF
:100050000DC100000BC1000009C100000C94ED0AA5
:1000600005C100000C94B70A0C948D0AFFC0000073
:10007000FDC00000FBC00000F9C00000F7C0000098
:100080000C94910BF3C00000F1C00000EFC0000021
:10009000EDC00000EBC00000E9C000000C94EB0BC9
:1000A000E5C00000E3C000000C94640BDFC000005A
:1000B000DDC00000DBC00000D9C000000C94370B8D
:1000C000D5C00000D3C00000D1C00000CFC00000E8
:1000D000CDC00000CBC00000C9C00000C7C00000F8
:1000E000C5C0000000002100240027002A002D00C8
:1000F0003000330001010000040107010A01000083
:1001000020002300260029002C002F0032000001CF
:10011000000003010601090100000A0B02090C0D91
:100120000E080703040100000000000000000000AA
:1001300000000000000000000000000000000000BF
:10014000000000001211100000000000000000007C
:10015000000000000000000000000000000001029C
:1001600010202008081020401020408002010201C9
:100170000804020101020408102040808040201081
:1001800008040201800402018040201008040201DA
:100190000804020101020408102040800102040842
:1001A0001020408000002200250028002B002E0097
:1001B0003100340002010000050108010B010505B2
:1001C0000505070508080808020202020A0A0808CD
:1001D00004040404010101010101010103030303FB
:1001E00003030303040707070C0C0C0C0C0C0C0C8A
:1001F0000202020206060606060606060B0B0B0B9B
:100200000B0B0B0B02000A0DFE1111241FBECFEFCA
:10021000D1E2DEBFCDBF00E00CBF12E0A0E0B2E053
:10022000ECEBFCE200E00BBF02C007900D92A6329F
:10023000B107D9F724E0A6E2B2E001C01D92A238CE
:10024000B207E1F711E0C4E0D1E000E006C0219779
:100250000109802FFE010E94F213C330D10780E014
:100260000807A9F70E94810D0C944D16C9CE80E0B5
:100270000895AF92BF92CF92DF92EF92FF920F93C9
:100280001F93CF93DF936C017B018B01040F151F2C
:10029000EB015E01AE18BF08C017D10759F0699194
:1002A000D601ED91FC910190F081E02DC6011995E8
:1002B000892B79F7C501DF91CF911F910F91FF90A5
:1002C000EF90DF90CF90BF90AF90089542E050E064
:1002D00069E172E082E393E0CCCFFC01538D448D61
:1002E000252F30E0842F90E0821B930B541710F0E1
:1002F000CF96089501970895FC01918D828D9817EE
:1003000061F0A28DAE0FBF2FB11D5D968C91928DC5
:100310009F5F9F73928F90E008958FEF9FEF0895F6
:10032000FC01918D828D981731F0828DE80FF11DBF
:10033000858D90E008958FEF9FEF0895FC01918DDA
:10034000228D892F90E0805C9F4F821B91098F73D3
:100350009927089582E393E0F1DF21E0892B09F4E6
:1003600020E0822F0895FC01A48DA80FB92FB11DA4
:10037000A35ABF4F2C91848D90E001968F739927DB
:10038000848FA689B7892C93A089B1898C918370B9
:1003900080648C93938D848D981306C00288F389B2
:1003A000E02D80818F7D80830895EF92FF920F93DF
:1003B0001F93CF93DF93EC0181E0888F9B8D8C8D11
:1003C00098131AC0E889F989808185FF15C09FB705
:1003D000F894EE89FF896083E889F98980818370C8
:1003E000806480839FBF81E090E0DF91CF911F9177
:1003F0000F91FF90EF900895F62E0B8D10E00F5F98
:100400001F4F0F731127E02E8C8D8E110BC00FB66E
:1004100007FCFACFE889F989808185FFF5CFCE0105
:10042000A2DFF2CFEB8DEC0FFD2FF11DE35AFF4F52
:10043000F0829FB7F8940B8FEA89FB8980818062F4
:10044000D0CFCF93DF93EC01888D8823B1F0AA89B8
:10045000BB89E889F9898C9185FD03C0808186FD7F
:100460000CC00FB607FCF7CF8C9185FFF2CF8081CF
:1004700085FFEDCFCE0177DFEACFDF91CF910895F1
:1004800080E090E0892B21F065DF81110E9400005F
:1004900080E090E0892B49F080E090E0892B29F002
:1004A0000E94000081110E94000080E090E0892BF2
:1004B00049F080E090E0892B29F00E940000811132
:1004C0000E94000080E090E0892B49F080E090E0FD
:1004D000892B29F00E94000081110C9400000895DE
:1004E0008150823108F05AC0E82FF0E08827E458A4
:1004F000FD4F8F4F0C94F2139C02A0028E029402C7
:100500009802CE02A302A902AD02B302B702BB0257
:10051000C102C502CE02C902CF02D302809180007F
:100520008F77809380000895809180008F7DF9CF30
:1005300080918000877FF5CF84B58F7784BD089543
:1005400084B58F7DFBCF8091B0008F778093B00012
:1005500008958091B0008F7DF9CF809190008F77C2
:10056000809390000895809190008F7DF9CF8091C5
:100570009000877FF5CF8091A0008F778093A000B7
:1005800008958091A0008F7DF9CF8091A000877F92
:10059000F5CF809120018F7780932001089580917D
:1005A00020018F7DF9CF80912001877FF5CF1F93A8
:1005B000CF93DF93282F30E0F901E85EFE4F84915E
:1005C000F901E25AFE4FD491F901E254FE4FC49171
:1005D000CC23A1F0162F811183DFEC2FF0E0EE0F7A
:1005E000FF1FEC55FE4FA591B4918FB7F894EC9195
:1005F000111108C0D095DE23DC938FBFDF91CF911E
:100600001F910895DE2BF8CF9091000289130DC041
:10061000E4E0F2E0E4919FEF90930002E230D9F041
:1006200030F4EE2379F0E13081F060E0C0CFE430C7
:1006300049F110F1E530C9F7909173009D7F9093D7
:100640007300F3CF10926E00F0CF90916F009D7FFA
:1006500090936F00EACF909170009D7F909370000F
:1006600091E09093B0009091B100987F9460909346
:10067000B1001092B300D9CF909171009D7F9093FB
:100680007100D3CF909172009D7F90937200CDCF77
:10069000CF93DF9390E0FC01E25AFE4F2491825405
:1006A0009E4FFC0184918823D1F090E0880F991F20
:1006B000FC01EC51FF4FA591B491FC01EC55FE4FAC
:1006C000C591D49161110EC09FB7F8948C91E22F1F
:1006D000E0958E238C932881E223E8839FBFDF91EE
:1006E000CF9108958FB7F894EC91E22BEC938FBFE4
:1006F000F6CF4F925F926F927F928F929F92AF92BE
:10070000BF92CF92DF92EF92FF920F931F93CF93FE
:10071000DF9300D01F921F92CDB7DEB78C012A0164
:100720003B01809100028A30C9F08F3F09F491C0EB
:100730000F900F900F900F900F90DF91CF911F911E
:100740000F91FF90EF90DF90CF90BF90AF909F9070
:100750008F907F906F905F904F900895E4E0F2E06B
:1007600084918D8387FDE4CF61E08AE091DF9D81F4
:10077000992321F08D81823009F0D1C14801B12C3B
:10078000A12C60E072E18AE790E0A50198010E9447
:10079000911229833A834B835C8369017A0191E04A
:1007A000C91AD108E108F1088FEFC816D104E10495
:1007B000F10409F00CF482C160E472E48FE090E08F
:1007C000A50198010E94911269017A0191E0C91A6C
:1007D000D108E108F1088D81823009F010C182E072
:1007E0009FEFC916D104E104F10409F00CF45FC1D4
:1007F00060E970ED83E090E0A50198010E949112FC
:1008000069017A0181E0C81AD108E108F10883E0A2
:100810009FEFC916D104E104F10409F00CF447C1BB
:1008200068E478EE81E090E0A50198010E949112C1
:1008300069017A0191E0C91AD108E108F1088FEF46
:10084000C816D104E104F10411F00CF018C184E0E1
:100850002EC18AE080930002E4E0F2E094919D834F
:10086000892F9F3F09F464CF923009F468C058F48F
:10087000992379F1913009F444C087FD59CF61E0A3
:100880008AE006DF77CF9D81943009F49AC008F49E
:1008900078C0953091F7109220011092210180913B
:1008A00021018860809321018091210181608093E2
:1008B0002101E8ECF1E0E491F0E0EE0FFF1FEC55D0
:1008C000FE4F85919491E8E6F1E0E491E093120304
:1008D0004BCF14BC15BC84B5826084BD85B58160E6
:1008E00085BDE8ECF1E0E491F0E0EE0FFF1FEC5580
:1008F000FE4F85919491E8E6F1E0E491E0931903CD
:1009000033CF109280001092810080918100886026
:100910008093810080918100816080938100E8EC68
:10092000F1E0E491F0E0EE0FFF1FEC55FE4F8591F2
:100930009491E8E6F1E0E491E093180315CF10926A
:10094000B0001092B1008091B00082608093B0003E
:100950008091B10081608093B100E8ECF1E0E49116
:10096000F0E0EE0FFF1FEC55FE4F859194919093B0
:10097000170380931603E8E6F1E0E491E093150392
:10098000F3CE1092900010929100809191008860B7
:100990008093910080919100816080939100E8ECB8
:1009A000F1E0E491F0E0EE0FFF1FEC55FE4F859172
:1009B0009491E8E6F1E0E491E093140383E08D8301
:1009C000D3CE1092A0001092A1008091A100886067
:1009D0008093A1008091A10081608093A100E8EC48
:1009E000F1E0E491F0E0EE0FFF1FEC55FE4F859132
:1009F0009491E8E6F1E0E491E0931303B5CE8FEF34
:100A0000C816D104E104F10409F00CF486C068E4CE
:100A100078EE81E090E0A50198010E9491126901B1
:100A20007A0191E0C91AD108E108F1088D81882383
:100A300009F48DC18FEFC816D104E104F10409F067
:100A40000CF405CF62E17AE780E090E0A501940123
:100A50000E94911269017A0191E0C91AD108E10856
:100A6000F1088D81882309F447C18FEFC816D1049E
:100A7000E104F10411F008F048C186E018C064E216
:100A800074EF80E090E0A50194010E949112690149
:100A90007A0191E0C91AD108E108F1088FEFC81670
:100AA000D104E104F10411F008F041C185E0909116
:100AB000B100987F892B8093B10008C081E09D81AF
:100AC0009111F5CF95B5987F892B85BD2FEF3FEF1D
:100AD000A901411451046104710409F049C09D81C8
:100AE000923009F4E7C00CF0CEC0992309F4D3C0CA
:100AF000913009F01DCED0928900C09288002093D9
:100B00002A0330932B0340932C0350932D038091A1
:100B10006F00826080936F000BCE82E0D0CFB12C4B
:100B2000A12C60E072E18AE790E0A50198010E94A3
:100B3000911269017A0181E0C81AD108E108F1082F
:100B4000C114D10491E0E906F10404F591E08D812E
:100B5000813069F580918100887F892B80938100A5
:100B60002FEF3FEFA901411451046104710419F200
:100B7000D801AA0FBB1FA30192010E94AD1228EE5B
:100B800033E040E050E00E94B712A9CF68E478EE6D
:100B900081E090E0A50198010E94911269017A011B
:100BA00081E0C81AD108E108F10893E0D0CF8D8127
:100BB000833001F580919100887F892B809391008B
:100BC0002FEF3FEFA901411451046104710481F634
:100BD000D0929900C092980020932203309323036F
:100BE0004093240350932503809171008260809389
:100BF00071009ECD8D81843009F58091A100887FA0
:100C0000892B8093A1002FEF3FEFA90141145104DC
:100C10006104710409F0ACCFD092A900C092A80081
:100C200020931E0330931F0340932003509321030E
:100C3000809172008260809372007ACD8D818530C0
:100C400009F044CF80912101887F892B8093210175
:100C50002FEF3FEFA901411451046104710409F021
:100C600087CFD0922901C092280120931A03309394
:100C70001B0340931C0350931D03809173008260FB
:100C80008093730055CD8D81843031F20CF4A0CF68
:100C9000853039F34DCDC7BC20932E0330932F03FD
:100CA000409330035093310380916E0082608093B3
:100CB0006E003ECDC092B3002093260330932703ED
:100CC00040932803509329038091700082608093A1
:100CD00070002ECDC980DA80EB80FC809AE0F5941C
:100CE000E794D794C7949A95D1F791E0C91AD1089F
:100CF000E108F10885E0E6CE8FEFC816D104E104E3
:100D0000F10409F038F784E0DDCEC980DA80EB80A9
:100D1000FC808AE0F594E794D794C7948A95D1F73C
:100D200091E0C91AD108E108F10887E0C0CE62E17C
:100D30007AE780E090E0A50194010E949112690198
:100D40007A0191E0C91AD108E108F1088ECE83E05A
:100D50009FEFC916D104E104F10411F00CF072CE3A
:100D6000B1CE863308F0865320917B00982F98707F
:100D7000277F922B90937B008770806480937C0008
:100D800080917A00806480937A0080917A0086FD59
:100D9000FCCF809178009091790008953FB7F89446
:100DA0008091AA029091AB02A091AC02B091AD02E9
:100DB00026B5A89B05C02F3F19F00196A11DB11DB6
:100DC0003FBFBA2FA92F982F8827BC01CD01620FF2
:100DD000711D811D911D42E0660F771F881F991FAD
:100DE0004A95D1F70895AF92BF92CF92DF92EF92DA
:100DF000FF920F931F93CF93DF936B017A01EC0166
:100E0000CB55DD4F28813CE0389F8001399F100D84
:100E10001124A0905F04B12C27FF1FC0FB01118299
:100E2000108288818F5F888388819801280F311D07
:100E300087FD3A95F6012A153B051CF488818C3014
:100E4000BCF180819181049680349C4908F471C082
:100E5000F6018081918104966EC088819801280FE7
:100E6000311D87FD3A952A153B05DCF68881A801DE
:100E7000480F511D87FD5A95FA01EE0FFF1FE40F31
:100E8000F51FE153FC4F808186FFCBCF8881F801AD
:100E9000E80FF11D87FDFA95CF01EE0FFF1FE80F58
:100EA000F91FE153FC4F808160E08F7380DBB9CF85
:100EB000808191812881A801420F511D27FD5A95FB
:100EC0009A01FA01EE0FFF1FE20FF31FE153FC4FEF
:100ED00021813281820F931FF70191838083888162
:100EE0009801280F311D87FD3A95F901EE0FFF1F7C
:100EF000E20FF31FE153FC4F808186FF21C0888100
:100F0000080F111D87FD1A95F801EE0FFF1FE00F66
:100F1000F11FE153FC4F808161E08F73DF91CF912E
:100F20001F910F91FF90EF90DF90CF90BF90AF9007
:100F30003ECB80E49CE9F701918380838FEF888327
:100F4000DF91CF911F910F91FF90EF90DF90CF90A5
:100F5000BF90AF9008956F927F928F929F92AF92C1
:100F6000BF92CF92DF92EF92FF920F931F93CF9396
:100F7000DF93C82FD62F2091950230919602409191
:100F80009702509198026091990270919A02809113
:100F90009B0290919C02C0909D02D0909E02E09096
:100FA0009F02F090A0021091A102B091A202A09124
:100FB000A302F091A4020C2F0E941514E22FEE0F51
:100FC000E2709601A701612F7B2F8A2F9F2F0E942D
:100FD00015142170E22BDE1709F49AC06D2F8C2FA7
:100FE00057DB2EEF3FEF4FEF5FEF6FEF7FEF8FEFAE
:100FF0009FEF0E94FA13D22EE32EF42E152FB62F58
:10100000A72FF82FE92FDD2309F491C060909D02EE
:1010100070909E0280909F029090A002A090A102EA
:10102000B090A202C090A302D091A40221E030E0CF
:1010300040E050E060E070E080E090E00E94FA1351
:1010400026293729482959296A297B298C299D2B4A
:1010500020939D0230939E0240939F025093A002E2
:101060006093A1027093A2028093A3029093A402C2
:10107000709195026091960250919702409198026A
:101080003091990220919A0290919B0280919C024A
:101090007D216E215F2141233B232A239F238E2321
:1010A0007093950260939602509397024093980232
:1010B0003093990220939A0290939B0280939C0212
:1010C0002091B2023091B3024091B4025091B50226
:1010D0006091B6027091B7028091B8029091B90206
:1010E0002D213E214F2151236B237A238F239E23D1
:1010F0002093B2023093B3024093B4025093B502EE
:101100006093B6027093B7028093B8029093B902CD
:10111000DF91CF911F910F91FF90EF90DF90CF90D3
:10112000BF90AF909F908F907F906F900895709137
:101130009D0260919E0250919F024091A0023091C9
:10114000A1022091A2029091A3028091A4027D218C
:101150006E215F2141233B232A239F238E237093FB
:101160009D0260939E0250939F024093A002309391
:10117000A1022093A2029093A3028093A40278CFAD
:10118000DF92EF92FF920F931F93CF93DF93C82FBD
:10119000D62F61E0E0DED090B202E090B302F09092
:1011A000B4021091B502B091B602A091B702F091CD
:1011B000B802E091B902DD2369F121E030E040E0BE
:1011C00050E060E070E080E090E00C2F0E94FA13A5
:1011D0002D293E294F29512B6B2B7A2B8F2B9E2BA0
:1011E0002093B2023093B3024093B4025093B502FD
:1011F0006093B6027093B7028093B8029093B902DD
:101200006D2F8C2FDF91CF911F910F91FF90EF9059
:10121000DF90CDC92EEF3FEF4FEF5FEF6FEF7FEF26
:101220008FEF9FEF0C2F0E94FA132D213E214F21AB
:1012300051236B237A238F239E23D2CF85ED809376
:10124000BC008091BC0084FDFCCF10926F02089519
:1012500020914B02260F3327331F21323105ECF446
:1012600020916F02FC0190E080E0243069F082E080
:101270000895A0914B022191AC01455D5D4FA40FF3
:10128000B52FB11D2C930196861798F380914B02D0
:10129000680F60934B0280E0089581E008950895FF
:1012A0008FEF9FEF08958FEF9FEF089580912A02AF
:1012B00090E09195819591090895CF93DF93CB01AB
:1012C000EA01642FC5DFCE01DF91CF910895CF935E
:1012D000DF931F92CDB7DEB7698361E0CE0101963F
:1012E000B7DF81E090E00F90DF91CF91089590E01B
:1012F00080E00895682F82E393E057C8CF92DF9291
:10130000EF92FF92CF93DF936B017C0183E0F2DFDA
:10131000C701B6010E94B513862FC72F6093BA028A
:101320007093BB02E7DF8C2FE5DFCAEBD2E08A8146
:10133000E1DF8B81DF91CF91FF90EF90DF90CF9035
:10134000D9CF0F931F93CF93DF938B01D82FC92F42
:1013500082E0D0DFC801AD2FBC2F8093260290938E
:101360002702A0932802B0932902C4DF812FC2DF95
:101370008D2FC0DF8C2FDF91CF911F910F91BACFAE
:101380008FEFB8DF85E5B6DF0C946601829729F50B
:101390008091D6028093BA028091D7028093BB02DB
:1013A0008091BA029091BB022091D8022093BA0298
:1013B0002091D9022093BB02181619065CF44091C3
:1013C000BA025091BB02052E000C660B770B91D927
:1013D00081E008958AE018D9FBCF80E00895EF926C
:1013E000FF920F931F93CF93DF93EC017B018A0150
:1013F00088819981009729F02A813B81241735073C
:1014000088F4B8016F5F7F4F0E946115009791F0DB
:10141000998388831B830A832C813D81232B11F4BC
:10142000FC0110821D830C83B701888199810E9481
:1014300046160CC088819981009711F00E94D8143B
:10144000198218821D821C821B821A82CE01DF91B2
:10145000CF911F910F91FF90EF9008951F920F92DF
:101460000FB60F9211240BB60F922F933F934F9309
:101470005F936F937F938F939F93AF93BF93EF93FC
:10148000FF938091260390912703A0912803B091A8
:101490002903892B8A2B8B2BE1F190911503E09185
:1014A0001603F0911703808189278083809126039A
:1014B00090912703A0912803B091290318161906CB
:1014C0001A061B069CF48091260390912703A09195
:1014D0002803B09129030197A109B109809326033C
:1014E00090932703A0932803B0932903FF91EF91D2
:1014F000BF91AF919F918F917F916F915F914F912C
:101500003F912F910F900BBE0F900FBE0F901F9029
:1015100018958091000278D8E9CF1F920F920FB6EC
:101520000F9211240BB60F922F933F934F935F931B
:101530006F937F938F939F93AF93BF93EF93FF939B
:1015400082E393E00E94B301FF91EF91BF91AF91CD
:101550009F918F917F916F915F914F913F912F91CB
:101560000F900BBE0F900FBE0F901F9018951F92FB
:101570000F920FB60F9211240BB60F922F938F93E9
:101580009F93EF93FF93E0914203F0914303808197
:10159000E0914803F091490382FD1DC09081809144
:1015A0004B038F5F8F7320914C03821741F0E091C2
:1015B0004B03F0E0EE5CFC4F958F80934B03FF9163
:1015C000EF919F918F912F910F900BBE0F900FBEB7
:1015D0000F901F9018958081F2CF1F920F920FB637
:1015E0000F9211242F933F938F939F93AF93BF93A9
:1015F0008091AE029091AF02A091B002B091B10281
:101600003091A90223E0230F2D3758F50196A11D33
:10161000B11D2093A9028093AE029093AF02A093D4
:10162000B002B093B1028091AA029091AB02A09156
:10163000AC02B091AD020196A11DB11D8093AA022A
:101640009093AB02A093AC02B093AD02BF91AF9167
:101650009F918F913F912F910F900FBE0F901F90F0
:10166000189526E8230F0296A11DB11DD2CF1F9217
:101670000F920FB60F9211240BB60F922F933F9338
:101680004F935F936F937F938F939F93AF93BF938A
:10169000EF93FF9348E251E064E271E090E080E074
:1016A000A2DBFF91EF91BF91AF919F918F917F91BD
:1016B0006F915F914F913F912F910F900BBE0F90C3
:1016C0000FBE0F901F9018951F920F920FB60F929A
:1016D00011240BB60F922F933F934F935F936F9309
:1016E0007F938F939F93AF93BF93EF93FF9348EABA
:1016F00050E064EA70E083E090E075DBFF91EF91E9
:10170000BF91AF919F918F917F916F915F914F9119
:101710003F912F910F900BBE0F900FBE0F901F9017
:1017200018951F920F920FB60F9211240BB60F92BD
:101730002F933F934F935F936F937F938F939F93D9
:10174000AF93BF93EF93FF9348E950E064E970E0F3
:1017500082E090E048DBFF91EF91BF91AF919F91C4
:101760008F917F916F915F914F913F912F910F904A
:101770000BBE0F900FBE0F901F9018951F920F92E7
:101780000FB60F9211240BB60F922F933F934F93E6
:101790005F936F937F938F939F93AF93BF93EF93D9
:1017A000FF9348E850E064E870E081E090E01BDBE4
:1017B000FF91EF91BF91AF919F918F917F916F9129
:1017C0005F914F913F912F910F900BBE0F900FBEE5
:1017D0000F901F9018951F920F920FB60F92112421
:1017E0000BB60F922F933F934F935F936F937F931B
:1017F0008F939F93AF93BF93EF93FF938091B90023
:10180000887F803609F44CC008F03FC0883209F464
:10181000A6C028F5803109F49AC0C8F4882309F4D9
:10182000F6C0883009F493C0FF91EF91BF91AF915A
:101830009F918F917F916F915F914F913F912F91E8
:101840000F900BBE0F900FBE0F901F901895883110
:1018500009F485C0803241F780936E0214C0803451
:1018600009F49AC040F48033B9F38833E9F68093E1
:101870006E0285ECADC0803509F482C0883509F46C
:1018800093C0883489F6DADCCFCF883909F48AC06E
:1018900038F5883729F050F4883611F0803721F672
:1018A00083E080936F0210926D0255C0883809F46E
:1018B00079C0803919F0803809F0B6CF80916D0277
:1018C000803208F06FC0E0916D0281E08E0F80934E
:1018D0006D028091BB00F0E0E35BFD4F80833BC075
:1018E000803B39F0D0F4803A09F477C0883A09F0A7
:1018F0009BCF84E080936F0210924C0210924B02B7
:10190000F0E0E0E0199580914B0281110FC081E079
:1019100080934B0210922B0209C0803C09F4A9CF9E
:10192000883C09F4A6CF883B09F07ECFE0914C02B9
:1019300081E08E0F80934C02F0E0E55DFD4F8081E9
:101940008093BB0090914C0280914B0229C0809102
:1019500094028093BB0085EC8093BC0065CF90918E
:10196000930280919202981758F5E091930281E0DA
:101970008E0F80939302F0E0EE58FD4F8081E9CF07
:10198000E091930281E08E0F809393028091BB00DF
:10199000F0E0EE58FD4F8083909193028091920287
:1019A0009817C8F285E8D8CFE091930281E08E0FB6
:1019B000809393028091BB00F0E0EE58FD4F80834E
:1019C0008091710281115FCF81E08093700284EA7F
:1019D0008093BC0010926F0227CF85EC8093BC00EF
:1019E00010926F0280916D02803230F4E0916D02AE
:1019F000F0E0E35BFD4F108260916D0270E08DE4DA
:101A000092E0F0E0E0E0199510926D020DCF109297
:101A10006E0239CF109235031092340388EE93E0B2
:101A2000A0E0B0E08093360390933703A09338038F
:101A3000B09339038BE092E09093330380933203A9
:101A400085EC90E090933F0380933E0384EC90E01C
:101A5000909341038093400380EC90E09093430384
:101A60008093420381EC90E090934503809344037C
:101A700082EC90E0909347038093460386EC90E0DD
:101A8000909349038093480310924B0310924C03A8
:101A900010924D0310924E03109279041092780424
:101AA00010927B0410927A0410927D0410927C04B0
:101AB00049E050E06CE172E088E794E090DCE0E619
:101AC000F4E02FEF48EB5BE080915F048033B8F4E3
:101AD00091E0980F90935F04808390E0DC01AA0F5F
:101AE000BB1FA80FB91FA153BC4F12965C934E9316
:101AF0001197339684E0E837F80731F7089520838B
:101B0000F8CFCF93DF9300D000D01F92CDB7DEB7D0
:101B1000789484B5826084BD84B5816084BD85B5C8
:101B2000826085BD85B5816085BD80916E008160D4
:101B300080936E001092810080918100826080937A
:101B4000810080918100816080938100809180007C
:101B50008160809380008091B10084608093B100A7
:101B60008091B00081608093B0008091910082608C
:101B70008093910080919100816080939100809189
:101B800090008160809390008091A100826080939A
:101B9000A1008091A10081608093A1008091A000AC
:101BA00081608093A0008091210182608093210157
:101BB00080912101816080932101809120018160C9
:101BC0008093200180917A00846080937A008091D4
:101BD0007A00826080937A0080917A00816080939D
:101BE0007A0080917A00806880937A001092C10018
:101BF000E0914203F091430382E08083E0913E0351
:101C0000F0913F031082E0914003F091410380E1A5
:101C1000808310924A03E0914603F091470386E0E7
:101C20008083E0914403F09145038081806180834B
:101C3000E0914403F0914503808188608083E091C6
:101C40004403F0914503808180688083E0914403E0
:101C5000F091450380818F7D808386EC99E090939D
:101C6000CD028093CC0287E391E09093CF028093E2
:101C7000CE0242E350E060E070E084EF91E00E9429
:101C800079038CD82B013C0162E3C62ED12CE12CC8
:101C9000F12C84D86419750986099709683E734048
:101CA00081059105B0F321E0C21AD108E108F108DD
:101CB00048EE440E43E0541E611C711CC114D10453
:101CC000E104F10431F78AE00E940403AA24A394FA
:101CD00048E5842E42E0942E52E0B52E2FB7F894BA
:101CE0006091AE027091AF028091B0029091B1020A
:101CF0002FBF89D320E030E04AE754E4CED42091CE
:101D00000E0330910F03409110035091110360D4E2
:101D10002B013C0140920A0350920B0360920C038A
:101D200070920D031092090382E393E00E949E01DA
:101D30001816190644F4A092090382E393E00E9466
:101D40007C0180930803809109038823B9F1809175
:101D50000803909107038535A1F5911132C0809158
:101D600006038F3F21F4A0920503A0920703809100
:101D700005038F5F8433E0F58093050380910703AB
:101D80008823E1F080910403811118C0809105033C
:101D90008430A0F010920703E090D3028091D40227
:101DA0000091D502C02ED12CEE2039F1823009F4F9
:101DB0009FC02CF5813041F1109205030E94400232
:101DC0008DCF80930603992391F2E0910503E230D1
:101DD00039F480930403F0E0E053FD4F8083C7CFD4
:101DE000E330C8F390910403915090930403F3CF30
:101DF0001092050310920703C1CF7601D7CF84500C
:101E00008230D0F6BDDAD8CF8FEF74DA85E572DA9A
:101E10008E2D70DAC301B201023309F441C0E091A2
:101E2000CE02F091CF02C601199581113AC01091EE
:101E3000D6020F3109F438C00E3C09F444C00E310B
:101E400009F02FC060E0812F0E944803212F30E06D
:101E5000F901E85EFE4F8491F901E25AFE4F0491C8
:101E6000F901E254FE4F149170E060E0112399F003
:101E700081110E947002E12FF0E0EE0FFF1FE2508F
:101E8000FF4FA591B491EC910E2391E080E009F40D
:101E900090E0692F782F072E000C880B990BB5D294
:101EA00050DA0E94660188CF163308F41A5C60E0AD
:101EB000812F51D8812F0E94B106BC0190E080E0B3
:101EC000A2D21CDAEECF163308F41A5C60E0812F40
:101ED00042D8812F0E94B1069C01A4E6B0E069D3EC
:101EE0002FEF33E040E050E01CD3622F70E0E6CFEC
:101EF000011137C01A8219821C821B821E821D8228
:101F000060917804709179046115710539F0409100
:101F10007C0450917D04CE01019661DA1D81E12E91
:101F2000FE8084E0E7D9812FE5D910E000E00E15AE
:101F30001F059CF48D819E810817190760F4898123
:101F40009A81009741F0800F911FFC018081D2D9C6
:101F50000F5F1F4FECCF80E0FACF89819A8128D59F
:101F600051CFF2E3CF16D104D1F42FB7F89460919A
:101F7000AE027091AF028091B0029091B1022FBF7A
:101F800042D220E030E04AE754E487D360930E0366
:101F900070930F03809310039093110333CFE0915C
:101FA000CC02F091CD02C601199581112BCF109171
:101FB000D602C12ED12C003209F451C03CF50E31AD
:101FC00009F020CF6091D7026230E8F02091B20290
:101FD0003091B3024091B4025091B5026091B602C3
:101FE0007091B7028091B8029091B902012F1DD46F
:101FF000217030E040E050E060E070E080E090E090
:10200000A0E02ED451F1812FBBD8FCCE013209F4CF
:1020100000C1023209F0F6CE1093BA028091D702C5
:102020008093BB028091BA029091BB022091D802AA
:102030002093BA022091D9022093BB0218161906E8
:102040000CF0E3C04091BA025091BB02052E000C87
:10205000660B770B0E947903D5CE61E0D4CF009157
:10206000D70261E0812F0E94AB07E02EF12C61E0E6
:10207000812F0E944803011105C060E0812F0E945A
:10208000D702C0CE2FEFE216F10411F461E0F6CFD3
:10209000F601E85EFE4FE491E150E23108F0AFC096
:1020A000F0E08827EA5AFF4E8F4F9CC368106D10EE
:1020B00072107C108610FF1090109810A010AA10BB
:1020C000B410BE10CD10D710FF10E110EB10F510BA
:1020D00084B5806884BD07BD95CE84B5806284BD1B
:1020E00008BD90CE80918000806880938000F0923F
:1020F0008900E092880086CE809180008062809383
:102100008000F0928B00E0928A007CCE809180006B
:10211000886080938000F0928D00E0928C0072CEF7
:102120008091B00080688093B0000093B3006ACEC5
:102130008091B00080628093B0000093B40062CEC2
:1021400080919000806880939000F0929900E092D6
:10215000980058CE80919000806280939000F09219
:102160009B00E0929A004ECE809190008860809310
:102170009000F0929D00E0929C0044CE8091A000DF
:1021800080688093A0008091A0008F7B8093A00046
:10219000F092A900E092A80035CE8091A000806264
:1021A0008093A000F092AB00E092AA002BCE809129
:1021B000A00088608093A000F092AD00E092AC0097
:1021C00021CE80912001806880932001F092290126
:1021D000E092280117CE8091200180628093200137
:1021E000F0922B01E0922A010DCE809120018860AF
:1021F00080932001F0922D01E0922C0103CE40E863
:10220000E416F1040CF042CF38CF8AE00E940403B8
:10221000F9CD5091D7025F83ECEBF2E090E080E0E3
:1022200021913191C216D30651F0232B09F0B4C08D
:10223000FC01EE0FFF1FE454FD4FD182C082EF81FD
:10224000E53B08F0DFCDFC01EE0FFF1FE80FF91FA3
:10225000E05AFB4F708081819281C72CD12C1601EE
:10226000220C331C91012C0D3D1DA90141535C4FE3
:102270007A01FA01208126FD44C0FFE2F71508F437
:1022800040C061E0812F0E9448031F73F7018081E5
:10229000807C182B1083872D6CE098D2869FF001EC
:1022A000112450E040E0BF01640F751F9B01220F15
:1022B000331F260F371FD901A153BC4F9C9196FDA8
:1022C00016C04F5F5F4F4C30510569F7813009F000
:1022D0006BC010928000B092810010928500109225
:1022E0008400B19A80916F00826080936F00F10149
:1022F000EC0DFD1DE153FC4F80818064808390E0F4
:1023000080E0FFE2F71508F47DCD8401091B110977
:1023100097FD1395000F111F000F111F28E8E22EE3
:10232000F12CE81AF10887FDF394EE0CFF1CEE0C7B
:10233000FF1C27010F2C000C660877089801012E5E
:10234000000C440B550B24193509460957098F8198
:10235000A82FB0E002D124EB30E040E050E0E1D023
:10236000420E531E641E751E4E145F042CF078013D
:10237000401651060CF4720192E0E91AF108EE0CD5
:10238000FF1C8FB7F894F101EC0DFD1DE153FC4FDC
:10239000F282E1828FBF36CD01968830910509F037
:1023A0003FCF90E080E04BCF823061F410929000FC
:1023B00080939100109295001092940088BB8093B6
:1023C000710095CF833061F41092A000B092A1000B
:1023D0001092A5001092A400B9BAB092720087CFF3
:1023E000811185CF10922001B09221011092250118
:1023F00010922401BABAB092730079CF8091780418
:1024000090917904D5C2E89409C097FB3EF4909569
:102410008095709561957F4F8F4F9F4F9923A9F0BD
:10242000F92F96E9BB279395F6958795779567954C
:10243000B795F111F8CFFAF4BB0F11F460FF1BC090
:102440006F5F7F4F8F4F9F4F16C0882311F096E923
:1024500011C0772321F09EE8872F762F05C06623D1
:1024600071F096E8862F70E060E02AF09A95660F8A
:10247000771F881FDAF7880F9695879597F9089543
:1024800097F99F6780E870E060E008959FEF80EC27
:10249000089500240A9416161706180609060895CA
:1024A00000240A9412161306140605060895092E30
:1024B0000394000C11F4882352F0BB0F40F4BF2B9F
:1024C00011F460FF04C06F5F7F4F8F4F9F4F0895DF
:1024D00057FD9058440F551F59F05F3F71F04795D5
:1024E000880F97FB991F61F09F3F79F087950895BA
:1024F000121613061406551FF2CF4695F1DF08C0D9
:10250000161617061806991FF1CF869571056105F5
:1025100008940895E894BB2766277727CB0197F99D
:102520000895052E97FB16F400940FD057FD05D0A3
:102530001ED007FC02D046F408C050954095309557
:1025400021953F4F4F4F5F4F08959095809570951F
:1025500061957F4F8F4F9F4F08952BD0A59F900D72
:10256000B49F900DA49F800D911D11240895A1E2A8
:102570001A2EAA1BBB1BFD010DC0AA1FBB1FEE1FFD
:10258000FF1FA217B307E407F50720F0A21BB30B48
:10259000E40BF50B661F771F881F991F1A9469F7C4
:1025A00060957095809590959B01AC01BD01CF0120
:1025B0000895A29FB001B39FC001A39F700D811D1C
:1025C0001124911DB29F700D811D1124911D08953C
:1025D0005058BB27AA270ED06ACF5BDF30F060DFF0
:1025E00020F031F49F3F11F41EF450CF0EF4E0952B
:1025F000E7FB46CFE92F6CDF80F3BA17620773075A
:102600008407950718F071F49EF584CF0EF4E095D9
:102610000B2EBA2FA02D0B01B90190010C01CA019C
:10262000A0011124FF27591B99F0593F50F4503E47
:1026300068F11A16F040A22F232F342F4427585F39
:10264000F3CF469537952795A795F0405395C9F751
:102650007EF41F16BA0B620B730B840BBAF0915009
:10266000A1F0FF0FBB1F661F771F881FC2F70EC0A8
:10267000BA0F621F731F841F48F48795779567957B
:10268000B795F7959E3F08F0B3CF9395880F08F064
:102690009927EE0F9795879508950CD008CF00DF06
:1026A00040F0F7DE30F021F45F3F19F0E9CE511130
:1026B00032CFECCE0DDF98F39923C9F35523B1F354
:1026C000951B550BBB27AA2762177307840738F0A1
:1026D0009F5F5F4F220F331F441FAA1FA9F333D000
:1026E0000E2E3AF0E0E830D091505040E695001CB4
:1026F000CAF729D0FE2F27D0660F771F881FBB1F70
:10270000261737074807AB07B0E809F0BB0B802D49
:10271000BF01FF2793585F4F2AF09E3F510568F095
:10272000AFCEF9CE5F3FECF3983EDCF3869577951C
:102730006795B795F7959F5FC9F7880F911D969597
:10274000879597F90895E1E0660F771F881FBB1FF3
:10275000621773078407BA0720F0621B730B840BA0
:10276000BA0BEE1F88F7E095089504D06894B11174
:10277000D2CE0895B5DE88F09F5790F0B92F9927F3
:10278000B751A0F0D1F0660F771F881F991F1AF07C
:10279000BA95C9F712C0B13081F0BCDEB1E008953E
:1027A000B9CE672F782F8827B85F39F0B93FCCF3BF
:1027B000869577956795B395D9F73EF49095809572
:1027C000709561957F4F8F4F9F4F0895991B79E0CA
:1027D00004C0991F961708F0961B881F7A95C9F7B1
:1027E00080950895EE0FFF1F881F8BBF0790F6910D
:1027F000E02D1994002E083090F0982F872F762F17
:10280000652F542F432F322F22270850F4CF220F49
:10281000331F441F551F661F771F881F991F0A9576
:10282000B2F7002D089597FD1094002E083098F00F
:102830000850232F342F452F562F672F782F892F9D
:10284000912DF4CF15949795879577956795579522
:102850004795379527950A95AAF71124002D0895D5
:102860000024A7FD00942A17300540055005600597
:1028700070058005900508950F931F93CF93DF9304
:102880008230910510F482E090E0E0918004F091B4
:10289000810430E020E0B0E0A0E0309799F4211509
:1028A000310509F44AC0281B390B24303105D8F50D
:1028B0008A819B816115710589F1FB019383828374
:1028C000FE0111C0408151810281138148175907CF
:1028D000E0F04817590799F4109761F012960C939D
:1028E000129713961C933296CF01DF91CF911F91CF
:1028F0000F9108950093800410938104F4CF211563
:10290000310551F04217530738F0A901DB019A0154
:10291000BD01DF01F801C1CFEF01F9CF9093810430
:1029200080938004CDCFFE01E20FF31F819391933A
:102930002250310939832883D7CF20917E043091EA
:102940007F04232B41F42091030230910402309341
:102950007F0420937E042091010230910202211510
:10296000310541F42DB73EB7409105025091060262
:10297000241B350BE0917E04F0917F04E217F307EE
:10298000A0F42E1B3F0B2817390778F0AC014E5FDF
:102990005F4F2417350748F04E0F5F1F50937F0499
:1029A00040937E04819391939FCFF0E0E0E09CCF31
:1029B000CF93DF930097E9F0FC01329713821282E4
:1029C000A0918004B0918104ED0130E020E01097E7
:1029D000A1F420813181820F931F20917E043091D8
:1029E0007F042817390709F061C0F0937F04E09352
:1029F0007E04DF91CF910895EA01CE17DF07E8F555
:102A00004A815B819E0141155105B1F7E901FB83C4
:102A1000EA8349915991C40FD51FEC17FD0761F462
:102A2000808191810296840F951FE90199838883A3
:102A3000828193819B838A83F0E0E0E012968D91FE
:102A40009C9113970097B9F52D913C911197CD0169
:102A50000296820F931F20917E0430917F042817E5
:102A6000390739F6309751F510928104109280049D
:102A7000B0937F04A0937E04BCCFD383C2834081F4
:102A80005181840F951FC817D90761F44E5F5F4FBE
:102A900088819981480F591F518340838A819B8186
:102AA000938382832115310509F0B0CFF09381041F
:102AB000E09380049ECFFD01DC01C0CF138212821F
:102AC000D7CF4F925F926F927F928F929F92AF92E9
:102AD000BF92CF92DF92EF92FF920F931F93CF930B
:102AE000DF938C01009791F4CB01DF91CF911F917F
:102AF0000F91FF90EF90DF90CF90BF90AF909F909D
:102B00008F907F906F905F904F90B6CEFC01E60F54
:102B1000F71F9C0122503109E217F30708F4AAC0FD
:102B2000D901CD91DC911197C617D70718F1C5309F
:102B3000D10570F0CE0104978617970748F0C61BA1
:102B4000D70B2297C193D1936D937C93CF0130DF44
:102B5000C801DF91CF911F910F91FF90EF90DF900F
:102B6000CF90BF90AF909F908F907F906F905F902D
:102B70004F9008955B01AC1ABD0A4C018C0E9D1E4E
:102B8000A0918004B0918104512C412CF12CE12CB6
:102B9000109731F580917E0490917F0488159905F6
:102BA00009F05CC04616570608F058C08091010233
:102BB00090910202009741F48DB79EB740910502B3
:102BC00050910602841B950BE817F90708F052C0D4
:102BD000F0937F04E0937E04F90171836083B8CFA2
:102BE0008D919C91119712966C90129713967C90F0
:102BF0001397A815B90559F56C0142E0C40ED11C14
:102C0000CA14DB0420F1AC014A195B09DA011296FF
:102C1000159780F06282738251834083D9016D934E
:102C20007C93E114F10471F0D7011396FC93EE93B9
:102C300012978ECF22968C0F9D1FF901918380836E
:102C4000F301EFCFF0938104E093800481CF481625
:102C5000590608F42C017D01D3019ACFCB010CDE7B
:102C60007C01009739F0AE01B80107D0C801A0DEA1
:102C700087016ECF10E000E06BCFFB01DC0102C0EA
:102C800001900D9241505040D8F70895FB01DC01AE
:102C900001900D920020E1F7089511E0C4E0D1E029
:102CA00000E005C0802FFE019DDD2196011DC5308D
:0C2CB000D10780E00807B1F7F894FFCFCF
:102CBC00FF00008204800000000000D50139016D86
:102CCC000121029E017C0190010D0A0030302E3052
:062CDC00302E3030300004
:00000001FF
