:100000000C94DD000C9405010C9405010C94050181
:100010000C9405010C9405010C9405010C94050148
:100020000C9405010C9405010C94CB090C943A0A2C
:100030000C9405010C9405010C9405010C94050128
:100040000C9405010C94110D0C9405010C94050100
:100050000C9405010C9405010C9405010C94C70C3B
:100060000C9405010C9405010C9405010C940501F8
:100070000C9405010C9405010C9405010C940501E8
:100080000C946C0C0C9405010C9405010C94050166
:100090000C94CD0D0C9405010C9405010C940501F4
:1000A0000C9405010C9405010C9405010706050448
:1000B0000100080A0B0C0D090000000024002700B5
:1000C0002A002D003000080B000202020100090482
:1000D00000000102020000052400100105240101B6
:1000E000010424020605240600010705810310000F
:1000F0004009040100020A00000007050202400056
:1001000000070583024000000403090412010002F5
:10011000EF020140412336800001010203014172D8
:100120006475696E6F204C4C430041726475696E52
:100130006F204C656F6E6172646F000000000023D9
:1001400000260029002C002F000000000200090FEB
:100150000000030401000C0000000000000000008B
:100160000000000000000000040802011040804070
:1001700010204080408008020401804020100201CD
:100180001080102040402000000000250028002B97
:10019000002E0031000404040404030405020202DA
:1001A0000204030202020206060606060604040210
:1001B000020204040300E80E4A1311241FBECFEF0D
:1001C000DAE0DEBFCDBF11E0A0E0B1E0E8E9FFE298
:1001D00002C005900D92AA33B107D9F722E0AAE335
:1001E000B1E001C01D92AB3EB207E1F710E0CCEDEB
:1001F000D0E004C02197FE010E948515CB3DD107B8
:10020000C9F70E943A0F0C94BF170C940000FC0130
:1002100080913D02882311F13FB7F89482E08093EA
:10022000E9002091F200822F90E01816190614F4CC
:1002300081E090E0882339F0289844E640933C021E
:100240004091F1004083222339F02091F2002111E6
:1002500003C02BE62093E8003FBF08958FEF9FEF88
:1002600008952FB7F89483E08093E9009091E80017
:10027000892F807295FF04C09091F20080E4891B61
:100280002FBF08958091340281110DC082E08093C8
:10029000300284E0809331021092330210923202D5
:1002A00081E08093340280E392E0089580E0089535
:1002B0004091C6015091C7012091C4013091C50100
:1002C00042175307B4F49091E8009570E1F39091D0
:1002D000E80092FD19C08093F1008091C6019091D1
:1002E000C70101968F739927892B19F48EEF80939C
:1002F000E8008091C6019091C70101969093C701D3
:100300008093C60181E0089580E00895EF92FF9206
:100310000F931F93CF93DF93F82E192FE62E042F00
:1003200081E0860F880F0E94580183E00E945801E7
:10033000CF2DD12FEC0EFD2EF11CCE15DF05B9F01F
:1003400007FF13C0FE0184910E945801182F80E01E
:100350000E945801812321968111EFCFDF91CF9127
:100360001F910F91FF90EF9008958881EDCF81E06C
:10037000F5CFDF92EF92FF920F931F93CF93DF930E
:10038000D82E8A01EB017B01E40EF51ECE15DF05A8
:1003900059F0D7FE12C0FE0184910E9458012196A7
:1003A0008111F4CF0FEF1FEFC801DF91CF911F91A3
:1003B0000F91FF90EF90DF9008958881EECF0F931B
:1003C0001F93CF93DF931F92CDB7DEB782E089836F
:1003D00042E450E066EC70E080E80E94B9010E94BF
:1003E0004201DC0112960D911C910115110589F055
:1003F000D801ED91FC910280F381E02DBE016F5F89
:100400007F4FC801099597FD04C0F801008511854B
:10041000ECCF89810F90DF91CF911F910F910895BB
:10042000615030F02091F100FC0120830196F8CF5B
:10043000289884E680933C020895CF93DF931F921F
:10044000CDB7DEB76983DC01ED91FC910280F381C9
:10045000E02D41E050E0BE016F5F7F4F09950F90A6
:10046000DF91CF91089583E08093E9008091F200BD
:10047000882319F08AE38093E80008950E943101EF
:1004800090E00895CF93DF931F92CDB7DEB7FC01C4
:100490008485958597FD08C02FEF3FEF358724872A
:1004A0000F90DF91CF910895CE0101960E94070130
:1004B000019719F4898190E0F3CF8FEF9FEFF0CF90
:1004C0000F931F93CF93DF931F92CDB7DEB78C01AD
:1004D000FC018485958597FF0BC0CE0101960E9493
:1004E0000701019771F4898190E0F801958784876D
:1004F000F801848595850F90DF91CF911F910F9121
:1005000008958FEF9FEFF1CFFC018485958597FDCE
:100510000BC09FB7F89482E08093E9008091F200CD
:100520009FBF90E0019608959FB7F89482E0809372
:10053000E9008091F2009FBF90E0089581508F30D4
:1005400008F047C0E82FF0E0E855FD4F0C94851502
:10055000C502C902B702BD02C102E902E902E9020D
:10056000CC02D202D602DA02E002E902E402809171
:1005700080008F77809380000895809180008F7D28
:10058000F9CF80918000877FF5CF84B58F7784BDC8
:10059000089584B58F7DFBCF809190008F778093F5
:1005A00090000895809190008F7DF9CF8091900008
:1005B000877FF5CF8091C0008F778093C00008952A
:1005C0008091C0008F7DF9CF8091C200877F80939A
:1005D000C20008951F93CF93DF93282F30E0F901D5
:1005E000E75BFE4F8491F901E859FE4FD491F90180
:1005F000EB56FE4FC491CC23A9F0162F81110E9417
:100600009E02EC2FF0E0EE0FFF1FE957FE4FA59181
:10061000B4918FB7F894EC91111108C0D095DE23F6
:10062000DC938FBFDF91CF911F910895DE2BF8CF20
:1006300080910C018A3069F4E4EBF1E0E4918FEFF2
:1006400080930C01E13061F040F0E33079F0E43068
:1006500099F060E08AE00C94EA0210926E00F9CF03
:1006600080916F008D7F80936F00F3CF8091710038
:100670008D7F80937100EDCF809172008F7B80938E
:100680007200E7CFCF93DF9390E0FC01E859FE4F73
:1006900024918B569E4FFC0184918823D1F090E0E9
:1006A000880F991FFC01E854FF4FA591B491FC01FC
:1006B000E957FE4FC591D49161110EC09FB7F894D0
:1006C0008C91E22FE0958E238C932881E223E8839E
:1006D0009FBFDF91CF9108958FB7F894EC91E22BF3
:1006E000EC938FBFF6CF4F925F926F927F928F9273
:1006F0009F92AF92BF92CF92DF92EF92FF920F93B1
:100700001F93CF93DF9300D000D01F92CDB7DEB7F9
:100710008C012A013B0180910C018A30C9F08F3F86
:1007200009F47EC00F900F900F900F900F90DF9103
:10073000CF911F910F91FF90EF90DF90CF90BF90DE
:10074000AF909F908F907F906F905F904F900895A3
:10075000E4EBF1E084918D8387FDE4CF61E08AE0F2
:100760000E9442038D81882321F09D81923009F0FF
:1007700069C14801B12CA12C60E072E18AE790E0E8
:10078000A50198010E94DE1329833A834B835C8381
:1007900069017A0181E0C81AD108E108F1089FEFE8
:1007A000C916D104E104F10409F00CF421C160E49C
:1007B00072E48FE090E0A50198010E94DE136901C8
:1007C0007A0181E0C81AD108E108F1089D819230D0
:1007D00009F0B8C08FEFC816D104E104F10409F0A4
:1007E0000CF40EC160E970ED83E090E0A501980182
:1007F0000E94DE1369017A0191E0C91AD108E1086B
:10080000F1088FEFC816D104E104F10411F00CF0E7
:10081000D9C1411451046104710409F483CF6FC13B
:100820008AE080930C01E4EBF1E094919D839F3F7B
:1008300009F478CF913041F170F0933009F442C05F
:10084000943009F461C08D8187FD6CCF61E08AE04E
:100850000E9442038ACF14BC15BC84B5826084BD5B
:1008600085B5816085BDEFE9F1E0E491F0E0EE0F40
:10087000FF1FE957FE4F85919491E2E7F1E0E49183
:10088000E09343021D826ACF109280001092810093
:1008900080918100886080938100809181008160D7
:1008A00080938100EFE9F1E0E491F0E0EE0FFF1FAB
:1008B000E957FE4F85919491E2E7F1E0E491E093EE
:1008C00042024CCF109290001092910080919100C2
:1008D0008860809391008091910081608093910065
:1008E000EFE9F1E0E491F0E0EE0FFF1FE957FE4F72
:1008F000859194919093410280934002E2E7F1E068
:10090000E491E0933F022ACF1092C0001092C10000
:100910008091C10088608093C1008091C100816096
:100920008093C100EFE9F1E0E491F0E0EE0FFF1FEA
:10093000E957FE4F85919491E2E7F1E0E491E0936D
:100940003E020CCF9FEFC916D104E104F10409F077
:100950000CF476C068E478EE81E090E0A50198019F
:100960000E94DE1369017A0181E0C81AD108E1080A
:10097000F1089D81992309F463C19FEFC916D10441
:10098000E104F10409F04CF44114510461047104D0
:1009900009F47EC091E09D83B2C062E17AE780E015
:1009A00090E0A50194010E94DE1369017A0181E0C3
:1009B000C81AD108E108F1089D81992309F4F9C00A
:1009C0008FEFC816D104E104F104D1F0C8F0C9805A
:1009D000DA80EB80FC808AE0F594E794D794C794A2
:1009E0008A95D1F791E0C91AD108E108F10808C049
:1009F00081E09D81911104C095B5987F892B85BDBB
:100A00002FEF3FEFA901411451046104710409F073
:100A100076C08D81813009F43EC00CF0A0C08111F8
:100A200081CEC7BC209350023093510240935202B2
:100A30005093530280916E00826080936E0072CE5C
:100A400082E0D7CFB12CA12C60E072E18AE790E080
:100A5000A50198010E94DE1369017A0181E0C81A9C
:100A6000D108E108F108C114D10491E0E906F104CC
:100A700024F591E08D81813089F580918100887F16
:100A8000892B809381004114510461047104B9F5EC
:100A90002FEF3FEFA901D0928900C09288002093E8
:100AA0004C0230934D0240934E0250934F0280917E
:100AB0006F00826080936F0035CE68E478EE81E04D
:100AC00090E0A50198010E94DE1369017A0181E09E
:100AD000C81AD108E108F10893E0CCCF8D818330AA
:100AE000E1F480919100887F892B809391002FEF12
:100AF0003FEFA9014114510461047104B1F1D8011F
:100B0000AA0FBB1FA30192010E94FD1328EE33E040
:100B100040E050E00E943F147CCF8D81843009F08A
:100B20006FCF8091C100887F892B8093C1002FEF08
:100B30003FEFA901411451046104710401F7C0920F
:100B4000CF002093440230934502409346025093D5
:100B5000470280917200806480937200E3CD9D8192
:100B6000933019F0943059F3DDCDD0929900C092B2
:100B70009800209348023093490240934A025093D0
:100B80004B0280917100826080937100CBCDC9804F
:100B9000DA80EB80FC809AE0F594E794D794C794D0
:100BA0009A95D1F791E0C91AD108E108F10885E0DA
:100BB00023CF8FEFC816D104E104F10409F038F710
:100BC00084E01ACF68E478EE81E090E0A501980116
:100BD0000E94DE1369017A0191E0C91AD108E10887
:100BE000F1088FEFC816D104E104F10409F00CF408
:100BF00007CF64E274EF80E090E0A50194010E94C9
:100C0000DE1369017A0181E0C81AD108E108F10810
:100C10009FEFC916D104E104F10409F008F4F9CDFD
:100C200062E17AE780E090E0A50194010E94DE1382
:100C300069017A0191E0C91AD108E108F108C0CE32
:100C40008FEFC816D104E104F10411F00CF0A5CE29
:100C500083E0D2CE823108F08251E82FF0E0E455F3
:100C6000FF4FE49190917B008E2F880F880F807248
:100C70009F7D892B80937B00E770E064E0937C008C
:100C800080917A00806480937A0080917A0086FD5A
:100C9000FCCF809178009091790008953FB7F89447
:100CA0008091C0019091C101A091C201B091C30196
:100CB00026B5A89B05C02F3F19F00196A11DB11DB7
:100CC0003FBFBA2FA92F982F8827BC01CD01620FF3
:100CD000711D811D911D42E0660F771F881F991FAE
:100CE0004A95D1F708958F929F92AF92BF92CF927B
:100CF000DF92EF92FF924B015C010E944E066B0166
:100D00007C010E944E066C197D098E099F09683E80
:100D1000734081059105A8F321E0821A9108A1088A
:100D2000B10888EEC80E83E0D81EE11CF11C8114C6
:100D30009104A104B10429F7FF90EF90DF90CF90C8
:100D4000BF90AF909F908F9008958F929F92AF9297
:100D5000BF92CF92DF92EF92FF920F931F93CF93A8
:100D6000DF936C017B018A0180910B01882309F4D8
:100D70005CC080913D02882309F457C08091CA016C
:100D800080FF05C08091E00082608093E000E80170
:100D9000B12C8AEFA82E93E0892E2AE3922E209779
:100DA00011F4BB20D9F10E94310181110AC0AA942B
:100DB000AA20D9F161E070E080E090E00E94730623
:100DC000EECF8C171D0611F00CF08C2F9FB7F89406
:100DD0008092E9002091E80025FD02C09FBFDFCF8F
:100DE000282F30E0C21BD30BF701815020F0419136
:100DF0004093F100FACFE20EF31EBB2021F0909257
:100E0000E800B12CEBCF8091E80085FDE7CF909210
:100E1000E800BB24B394209709F3F3CF5D9884E6F0
:100E20008093C901101611063CF081E090E0F601B4
:100E30009383828310E000E0C801DF91CF911F917E
:100E40000F91FF90EF90DF90CF90BF90AF909F9069
:100E50008F90089542E050E06CE271E084E592E00A
:100E60000C94A5066F927F928F929F92AF92BF9241
:100E7000CF92DF92EF92FF920F931F93CF93DF9366
:100E8000C82FD62F2091AE013091AF014091B00113
:100E90005091B1016091B2017091B3018091B401A0
:100EA0009091B501C090B601D090B701E090B80123
:100EB000F090B9011091BA01B091BB01A091BC01B1
:100EC000F091BD010C2F0E94A615E22FEE0FE270EB
:100ED0009601A701612F7B2F8A2F9F2F0E94A615B5
:100EE0002170E22BDE1709F49BC06D2F8C2F0E941E
:100EF00042032EEF3FEF4FEF5FEF6FEF7FEF8FEF8C
:100F00009FEF0E948B15D22EE32EF42E152FB62FB5
:100F1000A72FF82FE92FDD2309F491C06090B601C7
:100F20007090B7018090B8019090B901A090BA017B
:100F3000B090BB01C090BC01D091BD0121E030E078
:100F400040E050E060E070E080E090E00E948B15AF
:100F500026293729482959296A297B298C299D2B3B
:100F60002093B6013093B7014093B8015093B90173
:100F70006093BA017093BB018093BC019093BD0153
:100F80007091AE016091AF015091B0014091B101FB
:100F90003091B2012091B3019091B4018091B501DB
:100FA0007D216E215F2141233B232A239F238E2312
:100FB0007093AE016093AF015093B0014093B101C3
:100FC0003093B2012093B3019093B4018093B501A3
:100FD0002091D0013091D1014091D2015091D301A3
:100FE0006091D4017091D5018091D6019091D70183
:100FF0002D213E214F2151236B237A238F239E23C2
:101000002093D0013093D1014093D2015093D3016A
:101010006093D4017093D5018093D6019093D7014A
:10102000DF91CF911F910F91FF90EF90DF90CF90C4
:10103000BF90AF909F908F907F906F900895709128
:10104000B6016091B7015091B8014091B90130915A
:10105000BA012091BB019091BC018091BD017D211D
:101060006E215F2141233B232A239F238E237093EC
:10107000B6016093B7015093B8014093B901309322
:10108000BA012093BB019093BC018093BD0178CF3E
:10109000DF92EF92FF920F931F93CF93DF93C82FAE
:1010A000D62F61E00E943207D090D001E090D101AC
:1010B000F090D2011091D301B091D401A091D5014B
:1010C000F091D601E091D701DD2371F121E030E00C
:1010D00040E050E060E070E080E090E00C2F0E9483
:1010E0008B152D293E294F29512B6B2B7A2B8F2BBA
:1010F0009E2B2093D0013093D1014093D201509385
:10110000D3016093D4017093D5018093D60190935D
:10111000D7016D2F8C2FDF91CF911F910F91FF90F1
:10112000EF90DF900C94EA022EEF3FEF4FEF5FEF6E
:101130006FEF7FEF8FEF9FEF0C2F0E948B152D210C
:101140003E214F2151236B237A238F239E23D1CF1E
:1011500085ED8093BC008091BC0084FDFCCF109293
:101160008801089520916401260F3327331F21320F
:101170003105ECF420918801FC0190E080E02430FE
:1011800069F082E00895A09164012191AC014C5B6B
:101190005E4FA40FB52FB11D2C930196861798F3BF
:1011A00080916401680F6093640180E0089581E09C
:1011B000089508958FEF9FEF08958FEF9FEF0895A3
:1011C0008091430190E09195819591090895CF9385
:1011D000DF93CB01EA01642F0E94B208CE01DF91B8
:1011E000CF910895CF93DF931F92CDB7DEB7698378
:1011F00061E0CE0101960E94B20881E090E00F907C
:10120000DF91CF91089590E080E00895682F84E504
:1012100092E00C941D02CF92DF92EF92FF92CF9357
:10122000DF936B017C0183E00E940609C701B601D0
:101230000E944F15862F6093D8017093D9010E94A8
:101240000609C8EDD1E089810E9406098A810E94C1
:1012500006098B81DF91CF91FF90EF90DF90CF90C7
:101260000C940609EF92FF920F931F93CF93DF9395
:10127000162FE72EF82E092F82E00E940609CFE3F1
:10128000D1E0812F9E2DAF2DB02F88839983AA8323
:10129000BB830E94060989810E9406098A810E94F7
:1012A00006098B81DF91CF911F910F91FF90EF90F5
:1012B0000C9406098FEF0E94060985E50E94060935
:1012C0000C942A07829731F58091F4018093D8011C
:1012D0008091F5018093D9018091D8019091D90135
:1012E0002091F6012093D8012091F7012093D90194
:1012F0001816190664F44091D8015091D901052EB1
:10130000000C660B770B0E94730381E008950E9426
:101310001803FBCF80E00895EF92FF920F931F9385
:10132000CF93DF93EC017B018A018881998100973B
:1013300029F02A813B812417350788F4B8016F5FB3
:101340007F4F0E94F216009791F0998388831B8348
:101350000A832C813D81232B11F4FC0110821D8313
:101360000C83B701888199810E94B8170CC08881CD
:101370009981009711F00E946916198218821D82C6
:101380001C821B821A82CE01DF91CF911F910F9197
:10139000FF90EF9008951F920F920FB60F921124B5
:1013A0008F939F938091E1009091E100937F9093C0
:1013B000E10083FF0FC01092E90091E09093EB00F1
:1013C0001092EC0092E39093ED0010923D0298E0B1
:1013D0009093F00082FF22C093E09093E9009091F7
:1013E000F200992319F09AE39093E8009091C901D3
:1013F000992341F09091C90191509093C9019111A5
:1014000001C05D9A90913C02992341F090913C0279
:10141000915090933C02911101C0289A84FF18C00A
:101420008091E2008E7E81608093E2008091E100F5
:101430008F7E8093E1008091CA018E7E80618093CF
:10144000CA019F918F910F900FBE0F901F9018951A
:1014500080FFF7CF8091E2008E7E80618093E20072
:101460008091E1008E7E8093E1008091CA018E7EA2
:101470008160E5CF1F920F920FB60F921124CF9289
:10148000DF92EF92FF920F931F932F933F934F930F
:101490005F936F937F938F939F93AF93BF93EF93DC
:1014A000FF93CF93DF93CDB7DEB76C97DEBFCDBF91
:1014B0001092E9008091E80083FF25C068E0CE012A
:1014C00045960E94100282EF8093E8008D8987FF85
:1014D00039C09091E80090FFFCCF982F907609F0EA
:1014E00034C19E894F89588D2F89F88C911131C054
:1014F000803861F58091CB018093F1001092F1006A
:101500008EEF8093E8006C960FB6F894DEBF0FBEA6
:10151000CDBFDF91CF91FF91EF91BF91AF919F919F
:101520008F917F916F915F914F913F912F911F917B
:101530000F91FF90EF90DF90CF900F900FBE0F9024
:101540001F9018959EEF9093E800C7CF1092F1007E
:10155000D5CF913059F48111D3CF4130510581F667
:101560008091CB018D7F8093CB01CACF933049F41A
:101570008111C6CF4130510519F68091CB018260AF
:10158000F2CF953041F48091E80080FFFCCF2068D5
:101590002093E300B5CF963009F0A9C00B8D1C8DC8
:1015A00022E01092E9001092C7011092C601F212D7
:1015B0002EC01092C5011092C4010E94DF011F824B
:1015C00099E09983FA8291E09E8390EA98879AEF56
:1015D00099872091C6013091C701275F3F4F3C8317
:1015E0002B838D831092E9001092C7011092C601DF
:1015F0001093C5010093C40149E050E0BE016F5F44
:101600007F4F80E00E94B9010E94DF0179CF1093E3
:10161000C5010093C4010E944201DC0112960D91A4
:101620001C910115110509F451C1D801ED91FC91EE
:101630000480F581E02DBE016B5E7F4FC8010995E6
:10164000009709F03EC1F80100851185EACFF3E06B
:10165000FF120EC08F89882309F440C0823061F4E4
:1016600040E860E18AE291E00E948601811148CF62
:1016700081E28093EB0047CF813029F440E86BE0B2
:101680008EE191E0F1CF833099F70E944201DC01B5
:101690001296ED90FC908E010F5F1F4F6801E114D0
:1016A000F10479F0D701ED91FC910680F781E02DEE
:1016B000B801C7010995080F111DF701E084F184F5
:1016C000EECFD8011C92F60101900020E9F7319786
:1016D000BF016C197D0940E0C601C6CF68E071E02A
:1016E000FB01449150E080E80E94B90109CF973096
:1016F00009F4BECF983021F481E08093F10000CF4F
:10170000993009F0FDCE837009F0B2CFE4E1F1E049
:1017100081E031E096E32191222371F08093E9008A
:101720003093EB00DF0111972C912093EC00909304
:10173000ED008F5F873079F78EE78093EA00109293
:10174000EA008F8980933D02DBCE8B8D9C8D1092B9
:10175000E9001092C7011092C6019093C5018093D1
:10176000C401898D811192C08E899D89913A49F475
:10177000813209F07DCF47E050E064E071E080E025
:10178000B3CF913209F074CF833269F48F89988D89
:10179000B0E0A0E08093000190930101A0930201CA
:1017A000B0930301ADCE803269F48091E80082FFEE
:1017B000FCCF67E084E091E00E9410028BEF809301
:1017C000E8009ECE823209F09BCE8F8980930B0178
:1017D000EEEFFFE7859194918B3F9C4D51F1E0E056
:1017E000F8E08091040190910501A0910601B0916B
:1017F0000701803B9440A105B105F1F480910B01F4
:1018000080FD1AC0EE3F8AE0F80789F587E797E781
:1018100091838083809160008093C80188E19BE080
:101820000FB6F894A895809360000FBE9093600067
:1018300067CEEEEFFAE0D5CF808191818737974769
:1018400009F05ECEA8958091600088618093600069
:101850008091C80180936000EE3F2AE0F20789F092
:101860008091FE0A9091FF0A9183808349CE808106
:1018700091818737980751F29093FF0A8093FE0A6F
:10188000C5CF1092FF0A1092FE0A3ACE0E94420182
:10189000DC0112960D911C910115110509F4E8CE99
:1018A000D801ED91FC910190F081E02DBE016B5EBD
:1018B0007F4FC8010995811123CEF801008511855C
:1018C000EBCF181619060CF41BCED2CEF1E0FF12A6
:1018D000BECE6CE071E004CF1F920F920FB60F9254
:1018E00011248F939F93AF93BF93EF93FF938091B6
:1018F000480290914902A0914A02B0914B02892B73
:101900008A2B8B2BA1F190913F02E0914002F09144
:101910004102808189278083809148029091490209
:10192000A0914A02B0914B02181619061A061B061E
:101930009CF48091480290914902A0914A02B09192
:101940004B020197A109B109809348029093490283
:10195000A0934A02B0934B02FF91EF91BF91AF91D8
:101960009F918F910F900FBE0F901F9018958091AF
:1019700071008D7F8093710080913F02E091400261
:10198000F09141029081809589238083E5CF1F9259
:101990000F920FB60F9211242F933F938F939F9323
:1019A000AF93BF938091CC019091CD01A091CE01D6
:1019B000B091CF013091BF0123E0230F2D3758F5AF
:1019C0000196A11DB11D2093BF018093CC0190937E
:1019D000CD01A093CE01B093CF018091C001909131
:1019E000C101A091C201B091C3010196A11DB11D19
:1019F0008093C0019093C101A093C201B093C30131
:101A0000BF91AF919F918F913F912F910F900FBEFA
:101A10000F901F90189526E8230F0296A11DB11D67
:101A2000D2CF1F920F920FB60F9211242F933F9394
:101A30004F935F936F937F938F939F93AF93BF93D6
:101A4000CF93DF93EF93FF938091BE01C091C802C3
:101A5000D0E087FF24C0109285001092840080910E
:101A6000BE018F5F8093BE018091BE01082E000CE5
:101A7000990B8C179D0724F48091BE018C30C4F122
:101A80008091840090918500049680349C4908F4EC
:101A90007AC08091840090918500049676C08091F0
:101AA000BE01082E000C990B8C179D07C4F6E0911F
:101AB000BE018E2FEE0F990BFC01EE0FFF1FE80FFA
:101AC000F91FEC55FD4F808186FFC9CFE091BE0123
:101AD0008E2FEE0F990BFC01EE0FFF1FE80FF91F81
:101AE000EC55FD4F808160E08F730E94EA02B7CF12
:101AF0002091840030918500E091BE018E2FEE0F81
:101B0000990BFC01EE0FFF1FE80FF91FEC55FD4F7D
:101B100081819281820F931F909389008093880026
:101B2000E091BE018E2FEE0F990BFC01EE0FFF1F0F
:101B3000E80FF91FEC55FD4F808186FF11C0E09141
:101B4000BE018E2FEE0F990BFC01EE0FFF1FE80F69
:101B5000F91FEC55FD4F808161E08F730E94EA020E
:101B6000FF91EF91DF91CF91BF91AF919F918F91B5
:101B70007F916F915F914F913F912F910F900FBE89
:101B80000F901F90189580E49CE9909389008093B2
:101B900088008FEF8093BE01E3CF1F920F920FB6A4
:101BA0000F9211242F933F934F935F936F937F93E3
:101BB0008F939F93AF93BF93EF93FF938091B9005F
:101BC000887F803609F44AC0F0F5883209F4A5C050
:101BD00018F5803109F499C0B8F4882309F4F5C0E8
:101BE000883009F492C0FF91EF91BF91AF919F911E
:101BF0008F917F916F915F914F913F912F910F90B6
:101C00000FBE0F901F901895883109F486C080325E
:101C100051F78093870114C0803409F49BC040F4CD
:101C20008033B9F38833F9F68093870185ECAEC031
:101C3000803509F483C0883509F494C0883499F656
:101C40000E94A808D0CF883909F48AC038F58837AF
:101C500029F050F4883611F0803729F683E080931C
:101C600088011092860155C0883809F479C08039FE
:101C700019F0803809F0B7CF80918601803208F0E2
:101C80006FC0E091860181E08E0F80938601809184
:101C9000BB00F0E0EA59FE4F80833BC0803B39F047
:101CA000D0F4803A09F477C0883A09F09CCF84E0F8
:101CB000809388011092650110926401F0E0E0E0E9
:101CC00009958091640181110FC081E080936401C6
:101CD0001092440109C0803C09F4A8CF883C09F463
:101CE000A5CF883B09F07FCFE091650181E08E0FA1
:101CF00080936501F0E0EC5BFE4F80818093BB0038
:101D0000909165018091640129C08091AD0180931B
:101D1000BB0085EC8093BC0066CF9091AC018091B4
:101D2000AB01981758F5E091AC0181E08E0F8093DC
:101D3000AC01F0E0E557FE4F8081E9CFE091AC01C6
:101D400081E08E0F8093AC018091BB00F0E0E557FD
:101D5000FE4F80839091AC018091AB019817C8F23F
:101D600085E8D8CFE091AC0181E08E0F8093AC0183
:101D70008091BB00F0E0E557FE4F808380918A019F
:101D800081115ECF81E08093890184EA8093BC0059
:101D90001092880128CF85EC8093BC0010928801B6
:101DA00080918601803230F4E0918601F0E0EA59BA
:101DB000FE4F10826091860170E086E691E0F0E0CF
:101DC000E0E00995109286010ECF1092870138CF7E
:101DD000109257021092560288EE93E0A0E0B0E015
:101DE0008093580290935902A0935A02B0935B02D9
:101DF0008EE191E090935502809354028FEF9FEF14
:101E000090936102809360021092E2021092E102CC
:101E10001092E4021092E3021092E6021092E502A0
:101E200049E050E06FE271E081EE92E00E948C099F
:101E3000E9ECF2E02FEF48EB5BE08091C8028C30D8
:101E4000B8F491E0980F9093C802808390E0DC0191
:101E5000AA0FBB1FA80FB91FAC55BD4F12965C93BC
:101E60004E931197339682E0E13EF80731F70895DB
:101E70002083F8CFCF93DF9300D000D000D01F9203
:101E8000CDB7DEB7789484B5826084BD84B58160B7
:101E900084BD85B5826085BD85B5816085BD809135
:101EA0006E00816080936E001092810080918100AD
:101EB00082608093810080918100816080938100A5
:101EC0008091800081608093800080919100826089
:101ED0008093910080919100816080939100809126
:101EE00090008160809390008091C1008460809315
:101EF000C1008091C10082608093C1008091C100C7
:101F000081608093C1008091C30081608093C30091
:101F10008091C00082608093C0008091C200816087
:101F20008093C20080917A00846080937A008091CF
:101F30007A00826080937A0080917A008160809339
:101F40007A0080917A00806880937A0010923D0236
:101F50001092CB011092CA018091D70081608093CA
:101F6000D70080EA8093D80089B5806189BD89B5A2
:101F7000826089BD09B400FEFDCF61E070E080E0C1
:101F800090E00E9473068091D8008F7C80618093DE
:101F9000D8008091E000807F8093E0008091E10094
:101FA0008E7E8093E1008DE08093E200559A209A26
:101FB0008FEF9FEF909361028093600282E699E039
:101FC0009093EB018093EA0186E591E09093ED0117
:101FD0008093EC0142E350E060E070E084EF91E038
:101FE0000E94730362E370E080E090E00E94730659
:101FF0000E941803BB24B394B0E02B2EB0E03B2E1C
:102000002FB7F8946091CC017091CD018091CE01F1
:102010009091CF012FBF0E94501320E030E04AE79B
:1020200054E40E94DD1420912C0230912D02409145
:102030002E0250912F020E94701460932802709318
:10204000290280932A0290932B021092270284E5A2
:1020500092E00E9484021816190644F4B0922702F6
:1020600084E592E00E94420280932602809127023A
:102070008823C1F180912602909125028535C9F50A
:10208000911137C0809124028F3F21F4B092230236
:10209000B0922502809123028F5F843308F040C004
:1020A00080932302809125028823E1F0809122020F
:1020B000811118C0809123028430A0F01092250273
:1020C000E090F1018091F2010091F301C02ED12C3A
:1020D000EE2059F1823009F4B4C04CF5813069F139
:1020E000109223022114310409F48ACF0E940000C7
:1020F00081CF80932402992369F2E0912302E23098
:1021000039F480932202F0E0E251FE4F8083C2CF87
:10211000E330C8F390912202915090932202F3CFC2
:102120001092230210922502BDCF7601D3CF8450A6
:102130008230B0F60E945A09D3CF8FEF0E94060971
:1021400085E50E9406098E2D0E940609023369F476
:10215000609128027091290280912A0290912B02AD
:102160000E9432090E942A07BBCFE091EC01F09156
:10217000ED01C60109958111F5CF1091F4010F31E0
:1021800009F435C00E3C09F444C00E3159F760E043
:10219000812F0E944203212F30E0F901E75BFE4FBF
:1021A0008491F901E859FE4F0491F901EB56FE4F75
:1021B000149170E060E0112399F081110E949E0259
:1021C000E12FF0E0EE0FFF1FE55CFE4FA591B4910B
:1021D000EC910E2391E080E009F490E0692F782FD4
:1021E000072E000C880B990B0E945213B9CF1231A5
:1021F00008F41E5E60E0812F0E943207812F0E944A
:102200002A06BC0190E080E00E9450130E940B0956
:10221000A9CF123108F41E5E60E0812F0E943207C0
:10222000812F0E942A069C01A4E6B0E00E9461145E
:102230002FEF33E040E050E00E94DE13622F70E0A9
:10224000E1CF01113CC01A8219821C821B821E82BE
:102250001D826091E1027091E2026115710541F009
:102260004091E5025091E602CE0101960E948C0950
:102270001D81E12EFE8084E00E940609812F0E94CC
:10228000060910E000E00E151F05A4F48D819E8163
:102290000817190768F489819A81009749F0800F1F
:1022A000911FFC0180810E9406090F5F1F4FEBCF39
:1022B00080E0F9CF89819A810E9469163BCFF2E3D1
:1022C000CF16D104E1F42FB7F8946091CC0170914E
:1022D000CD018091CE019091CF012FBF0E9450136C
:1022E00020E030E04AE754E40E94DD1460932C02C1
:1022F00070932D0280932E0290932F021BCFE091BA
:10230000EA01F091EB01C6010995811113CF1091FB
:10231000F401E12EF12C003209F454C054F50E31D1
:1023200009F008CF6091F5016230F8F02091D001FA
:102330003091D1014091D2015091D3016091D401EB
:102340007091D5018091D6019091D701012F0E9403
:10235000A615217030E040E050E060E070E080E0E1
:1023600090E0A0E00E94C11559F1812F0E94480819
:10237000E1CE013209F4CCC0023209F0DBCE109379
:10238000D8018091F5018093D9018091D801909175
:10239000D9012091F6012093D8012091F7012093D3
:1023A000D901181619060CF0B0C04091D80150910F
:1023B000D901052E000C660B770B0E947303BACE71
:1023C00061E0D3CF0091F50161E0812F0E943207D7
:1023D000C02ED12C61E0812F0E944203011105C063
:1023E00060E0812F0E94EA02A5CE2FEFC216D10431
:1023F00011F461E0F6CFF701E75BFE4FE491E150A5
:10240000EF3008F07CC0F0E0E85FFD4E0C948515DD
:1024100017121C1221122B1235127F127F127F12FB
:102420003F12491253125D126A127F12721284B562
:10243000806884BD07BD7ECE84B5806284BD08BD42
:1024400079CE80918000806880938000D09289004E
:10245000C09288006FCE809180008062809380005F
:10246000D0928B00C0928A0065CE809180008860F7
:1024700080938000D0928D00C0928C005BCE8091C2
:102480009000806880939000D0929900C09298004C
:1024900051CE80919000806280939000D0929B00FA
:1024A000C0929A0047CE80919000886080939000FF
:1024B000D0929D00C0929C003DCE8091C00080686B
:1024C0008093C0008091C0008F7B8093C0000093F8
:1024D000CF0030CE8091C00080628093C000009316
:1024E000D00028CE8091C20088608093C200809185
:1024F000C2008B7F8093C2000093D2001BCE40E8C5
:10250000C416D1040CF075CF6BCF0E94180312CE05
:102510005091F5015F83EAEDF1E090E080E02191D8
:102520003191E216F30651F0232B09F0ABC0FC0108
:10253000EE0FFF1FE652FE4FF182E082EF81E53B96
:1025400008F0F8CDFC01EE0FFF1FE80FF91FE7536D
:10255000FD4FA08081819281EA2CF12C4701880CEB
:10256000991C94012E0D3F1DA9014C555D4F6A0128
:10257000FA01208126FD36C0FBE0FA1598F161E0F2
:10258000812F0E9442031F73F6018081807C182BEB
:10259000108390E080E0FC01EE0FFF1FE80FF91FB1
:1025A000EC55FD4F208126FD13C001968C3091051E
:1025B00091F710928000F2E0F09381001092850074
:1025C00010928400B19A80916F00826080936F00B6
:1025D000F401EE0DFF1DEC55FD4F8081806480837A
:1025E00090E080E0FBE0FA1508F4A4CD08E512E0E5
:1025F000091B110997FD1395000F111F000F111FE3
:1026000028E8C22ED12CC81AD10887FDD394CC0C4F
:10261000DD1CCC0CDD1C26010D2C000C6608770897
:102620009801012E000C440B550B2419350946095D
:1026300057098F81A82FB0E00E94FD1324EB30E0F2
:1026400040E050E00E94DE13BA01A901440D551D7F
:10265000661D771D4C155D052CF06801401751076C
:102660000CF46A01E2E0CE1AD108CC0CDD1C8FB765
:10267000F894F401EE0DFF1DEC55FD4FD282C1829E
:102680008FBF58CD01968830910509F048CF90E072
:1026900080E054CF8091E1029091E2020C9469169F
:1026A000E89409C097FB3EF49095809570956195EC
:1026B0007F4F8F4F9F4F9923A9F0F92F96E9BB27A2
:1026C0009395F695879577956795B795F111F8CF1E
:1026D000FAF4BB0F11F460FF1BC06F5F7F4F8F4F89
:1026E0009F4F16C0882311F096E911C0772321F07F
:1026F0009EE8872F762F05C0662371F096E8862F17
:1027000070E060E02AF09A95660F771F881FDAF76D
:10271000880F9695879597F9089597F99F6780E8B0
:1027200070E060E008959FEF80EC089500240A9423
:102730001616170618060906089500240A9412169C
:102740001306140605060895092E0394000C11F4CF
:10275000882352F0BB0F40F4BF2B11F460FF04C07C
:102760006F5F7F4F8F4F9F4F089557FD9058440FD5
:10277000551F59F05F3F71F04795880F97FB991FE0
:1027800061F09F3F79F0879508951216130614069D
:10279000551FF2CF4695F1DF08C01616170618062A
:1027A000991FF1CF86957105610508940895E89405
:1027B000BB2766277727CB0197F90895052E97FB4E
:1027C0001EF400940E94F51357FD07D00E943F1499
:1027D00007FC03D04EF40C94F513509540953095BA
:1027E00021953F4F4F4F5F4F08959095809570957D
:1027F00061957F4F8F4F9F4F08950E946114A59F51
:10280000900DB49F900DA49F800D911D11240895EB
:102810002F923F924F925F926F927F928F929F92F0
:10282000AF92BF92CF92DF92EF92FF920F931F93DE
:10283000CF93DF93CDB7DEB7CA1BDB0B0FB6F8948F
:10284000DEBF0FBECDBF09942A88398848885F84CF
:102850006E847D848C849B84AA84B984C884DF8040
:10286000EE80FD800C811B81AA81B981CE0FD11D24
:102870000FB6F894DEBF0FBECDBFED010895A1E203
:102880001A2EAA1BBB1BFD010DC0AA1FBB1FEE1FEA
:10289000FF1FA217B307E407F50720F0A21BB30B35
:1028A000E40BF50B661F771F881F991F1A9469F7B1
:1028B00060957095809590959B01AC01BD01CF010D
:1028C0000895A29FB001B39FC001A39F700D811D09
:1028D0001124911DB29F700D811D1124911D089529
:1028E0005058BB27AA270E9488140C94A4130E9456
:1028F000961338F00E949D1320F039F49F3F19F48D
:1029000026F40C9493130EF4E095E7FB0C948D13CE
:10291000E92F0E94B51358F3BA17620773078407AB
:10292000950720F079F4A6F50C94D7130EF4E095F2
:102930000B2EBA2FA02D0B01B90190010C01CA0179
:10294000A0011124FF27591B99F0593F50F4503E24
:1029500068F11A16F040A22F232F342F4427585F16
:10296000F3CF469537952795A795F0405395C9F72E
:102970007EF41F16BA0B620B730B840BBAF09150E6
:10298000A1F0FF0FBB1F661F771F881FC2F70EC085
:10299000BA0F621F731F841F48F487957795679558
:1029A000B795F7959E3F08F0B0CF9395880F08F044
:1029B0009927EE0F9795879508950E94F1140C942E
:1029C000A4130E949D1358F00E94961340F029F41E
:1029D0005F3F29F00C948D1351110C94D8130C9473
:1029E00093130E94B51368F39923B1F3552391F320
:1029F000951B550BBB27AA2762177307840738F06E
:102A00009F5F5F4F220F331F441FAA1FA9F335D0CA
:102A10000E2E3AF0E0E832D091505040E695001C7E
:102A2000CAF72BD0FE2F29D0660F771F881FBB1F38
:102A3000261737074807AB07B0E809F0BB0B802D16
:102A4000BF01FF2793585F4F3AF09E3F510578F042
:102A50000C948D130C94D8135F3FE4F3983ED4F399
:102A6000869577956795B795F7959F5FC9F7880F16
:102A7000911D9695879597F90895E1E0660F771F68
:102A8000881FBB1F621773078407BA0720F0621BF9
:102A9000730B840BBA0BEE1F88F7E09508950E9424
:102AA00056156894B1110C94D81308950E94BD1363
:102AB00088F09F5798F0B92F9927B751B0F0E1F0FF
:102AC000660F771F881F991F1AF0BA95C9F714C0AF
:102AD000B13091F00E94D713B1E008950C94D71350
:102AE000672F782F8827B85F39F0B93FCCF38695E8
:102AF00077956795B395D9F73EF490958095709545
:102B000061957F4F8F4F9F4F0895EE0FFF1F0590E8
:102B1000F491E02D0994002E083090F0982F872F23
:102B2000762F652F542F432F322F22270850F4CFB2
:102B3000220F331F441F551F661F771F881F991FC1
:102B40000A95B2F7002D089597FD1094002E0830D5
:102B500098F00850232F342F452F562F672F782FAA
:102B6000892F912DF4CF1594979587957795679533
:102B700057954795379527950A95AAF71124002D63
:102B800008950024A7FD00942A173005400550053C
:102B9000600570058005900508950F931F93CF93EE
:102BA000DF938230910510F482E090E0E091E90239
:102BB000F091EA0230E020E0B0E0A0E0309799F434
:102BC0002115310509F44AC0281B390B2430310581
:102BD000D8F58A819B816115710589F1FB01938389
:102BE0008283FE0111C04081518102811381481707
:102BF0005907E0F04817590799F4109761F01296B9
:102C00000C93129713961C933296CF01DF91CF91BC
:102C10001F910F9108950093E9021093EA02F4CFF7
:102C20002115310551F04217530738F0A901DB0196
:102C30009A01BD01DF01F801C1CFEF01F9CF9093F7
:102C4000EA028093E902CDCFFE01E20FF31F8193E8
:102C500091932250310939832883D7CF2091E702FD
:102C60003091E802232B41F420910F0130911001A3
:102C70003093E8022093E70220910D0130910E017C
:102C80002115310541F42DB73EB740911101509106
:102C90001201241B350BE091E702F091E802E217E4
:102CA000F307A0F42E1B3F0B2817390778F0AC016F
:102CB0004E5F5F4F2417350748F04E0F5F1F50934C
:102CC000E8024093E702819391939FCFF0E0E0E028
:102CD0009CCFCF93DF930097E9F0FC0132971382EA
:102CE0001282A091E902B091EA02ED0130E020E009
:102CF0001097A1F420813181820F931F2091E70268
:102D00003091E8022817390709F061C0F093E80212
:102D1000E093E702DF91CF910895EA01CE17DF0734
:102D2000E8F54A815B819E0141155105B1F7E90142
:102D3000FB83EA8349915991C40FD51FEC17FD0716
:102D400061F4808191810296840F951FE901998336
:102D50008883828193819B838A83F0E0E0E01296EE
:102D60008D919C9113970097B9F52D913C911197F6
:102D7000CD010296820F931F2091E7023091E80265
:102D80002817390739F6309751F51092EA02109258
:102D9000E902B093E802A093E702BCCFD383C283D9
:102DA00040815181840F951FC817D90761F44E5F88
:102DB0005F4F88819981480F591F518340838A81D1
:102DC0009B81938382832115310509F0B0CFF09365
:102DD000EA02E093E9029ECFFD01DC01C0CF13823D
:102DE0001282D7CFB0E0A0E0E8EFF6E10C940A142D
:102DF0008C01009751F4CB010E94CD158C01C801C4
:102E0000CDB7DEB7E0E10C942614FC01E60FF71F06
:102E10009C0122503109E217F30708F49DC0D90143
:102E2000CD91DC911197C617D70798F0C530D10521
:102E300030F3CE0104978617970708F3C61BD70B0C
:102E40002297C193D1936D937C93CF010E94691611
:102E5000D6CF5B01AC1ABD0A4C018C0E9D1EA09111
:102E6000E902B091EA02512C412CF12CE12C10978F
:102E700031F58091E7029091E8028815990509F0F3
:102E80005CC04616570608F058C080910D0190911D
:102E90000E01009741F48DB79EB7409111015091FA
:102EA0001201841B950BE817F90708F055C0F09341
:102EB000E802E093E702F90171836083A0CF8D916E
:102EC0009C91119712966C90129713967C90139781
:102ED000A815B90559F56C0142E0C40ED11CCA14FD
:102EE000DB0420F1AC014A195B09DA01129615974F
:102EF00080F06282738251834083D9016D937C9309
:102F0000E114F10471F0D7011396FC93EE9312973C
:102F100076CF22968C0F9D1FF90191838083F30158
:102F2000EFCFF093EA02E093E90269CF4816590621
:102F300008F42C017D01D3019ACFCB010E94CD155D
:102F40007C01009749F0AE01B8010E94AF17C8019B
:102F50000E946916870153CF10E000E050CFFB01BB
:102F6000DC0102C001900D9241505040D8F7089505
:102F7000FB01DC0101900D920020E1F7089510E0C3
:102F8000CCEDD0E004C0FE010E9485152196CD3D18
:082F9000D107C9F7F894FFCF47
:102F9800FFFFFFFF00E1000000000000FF0000EB62
:102FA80002800000C18081000000000000001D02B6
:102FB800A5063E0233028402420260020D0A003076
:0A2FC800302E30302E303030000083
:00000001FF
